{
  "_format": "hh-sol-artifact-1",
  "contractName": "LumiaDiamondInit",
  "sourceName": "contracts/lumia-diamond/LumiaDiamondInit.sol",
  "abi": [
    {
      "inputs": [],
      "name": "AccessControlBadConfirmation",
      "type": "error"
    },
    {
      "inputs": [
        {
          "internalType": "address",
          "name": "account",
          "type": "address"
        },
        {
          "internalType": "bytes32",
          "name": "neededRole",
          "type": "bytes32"
        }
      ],
      "name": "AccessControlUnauthorizedAccount",
      "type": "error"
    },
    {
      "inputs": [],
      "name": "EnforcedPause",
      "type": "error"
    },
    {
      "inputs": [],
      "name": "ExpectedPause",
      "type": "error"
    },
    {
      "inputs": [],
      "name": "InvalidInitialization",
      "type": "error"
    },
    {
      "inputs": [],
      "name": "NotInitializing",
      "type": "error"
    },
    {
      "inputs": [],
      "name": "ReentrancyGuardReentrantCall",
      "type": "error"
    },
    {
      "anonymous": false,
      "inputs": [
        {
          "indexed": false,
          "internalType": "uint64",
          "name": "version",
          "type": "uint64"
        }
      ],
      "name": "Initialized",
      "type": "event"
    },
    {
      "anonymous": false,
      "inputs": [
        {
          "indexed": false,
          "internalType": "address",
          "name": "mailbox",
          "type": "address"
        }
      ],
      "name": "InterchainFactorySetup",
      "type": "event"
    },
    {
      "anonymous": false,
      "inputs": [
        {
          "indexed": false,
          "internalType": "address",
          "name": "account",
          "type": "address"
        }
      ],
      "name": "Paused",
      "type": "event"
    },
    {
      "anonymous": false,
      "inputs": [
        {
          "indexed": true,
          "internalType": "bytes32",
          "name": "role",
          "type": "bytes32"
        },
        {
          "indexed": true,
          "internalType": "bytes32",
          "name": "previousAdminRole",
          "type": "bytes32"
        },
        {
          "indexed": true,
          "internalType": "bytes32",
          "name": "newAdminRole",
          "type": "bytes32"
        }
      ],
      "name": "RoleAdminChanged",
      "type": "event"
    },
    {
      "anonymous": false,
      "inputs": [
        {
          "indexed": true,
          "internalType": "bytes32",
          "name": "role",
          "type": "bytes32"
        },
        {
          "indexed": true,
          "internalType": "address",
          "name": "account",
          "type": "address"
        },
        {
          "indexed": true,
          "internalType": "address",
          "name": "sender",
          "type": "address"
        }
      ],
      "name": "RoleGranted",
      "type": "event"
    },
    {
      "anonymous": false,
      "inputs": [
        {
          "indexed": true,
          "internalType": "bytes32",
          "name": "role",
          "type": "bytes32"
        },
        {
          "indexed": true,
          "internalType": "address",
          "name": "account",
          "type": "address"
        },
        {
          "indexed": true,
          "internalType": "address",
          "name": "sender",
          "type": "address"
        }
      ],
      "name": "RoleRevoked",
      "type": "event"
    },
    {
      "anonymous": false,
      "inputs": [
        {
          "indexed": false,
          "internalType": "address",
          "name": "account",
          "type": "address"
        }
      ],
      "name": "Unpaused",
      "type": "event"
    },
    {
      "inputs": [],
      "name": "DEFAULT_ADMIN_ROLE",
      "outputs": [
        {
          "internalType": "bytes32",
          "name": "",
          "type": "bytes32"
        }
      ],
      "stateMutability": "view",
      "type": "function"
    },
    {
      "inputs": [
        {
          "internalType": "bytes32",
          "name": "role",
          "type": "bytes32"
        }
      ],
      "name": "getRoleAdmin",
      "outputs": [
        {
          "internalType": "bytes32",
          "name": "",
          "type": "bytes32"
        }
      ],
      "stateMutability": "view",
      "type": "function"
    },
    {
      "inputs": [
        {
          "internalType": "bytes32",
          "name": "role",
          "type": "bytes32"
        },
        {
          "internalType": "uint256",
          "name": "index",
          "type": "uint256"
        }
      ],
      "name": "getRoleMember",
      "outputs": [
        {
          "internalType": "address",
          "name": "",
          "type": "address"
        }
      ],
      "stateMutability": "view",
      "type": "function"
    },
    {
      "inputs": [
        {
          "internalType": "bytes32",
          "name": "role",
          "type": "bytes32"
        }
      ],
      "name": "getRoleMemberCount",
      "outputs": [
        {
          "internalType": "uint256",
          "name": "",
          "type": "uint256"
        }
      ],
      "stateMutability": "view",
      "type": "function"
    },
    {
      "inputs": [
        {
          "internalType": "bytes32",
          "name": "role",
          "type": "bytes32"
        }
      ],
      "name": "getRoleMembers",
      "outputs": [
        {
          "internalType": "address[]",
          "name": "",
          "type": "address[]"
        }
      ],
      "stateMutability": "view",
      "type": "function"
    },
    {
      "inputs": [
        {
          "internalType": "bytes32",
          "name": "role",
          "type": "bytes32"
        },
        {
          "internalType": "address",
          "name": "account",
          "type": "address"
        }
      ],
      "name": "grantRole",
      "outputs": [],
      "stateMutability": "nonpayable",
      "type": "function"
    },
    {
      "inputs": [
        {
          "internalType": "bytes32",
          "name": "role",
          "type": "bytes32"
        },
        {
          "internalType": "address",
          "name": "account",
          "type": "address"
        }
      ],
      "name": "hasRole",
      "outputs": [
        {
          "internalType": "bool",
          "name": "",
          "type": "bool"
        }
      ],
      "stateMutability": "view",
      "type": "function"
    },
    {
      "inputs": [
        {
          "internalType": "address",
          "name": "mailbox",
          "type": "address"
        }
      ],
      "name": "init",
      "outputs": [],
      "stateMutability": "nonpayable",
      "type": "function"
    },
    {
      "inputs": [],
      "name": "paused",
      "outputs": [
        {
          "internalType": "bool",
          "name": "",
          "type": "bool"
        }
      ],
      "stateMutability": "view",
      "type": "function"
    },
    {
      "inputs": [
        {
          "internalType": "bytes32",
          "name": "role",
          "type": "bytes32"
        },
        {
          "internalType": "address",
          "name": "callerConfirmation",
          "type": "address"
        }
      ],
      "name": "renounceRole",
      "outputs": [],
      "stateMutability": "nonpayable",
      "type": "function"
    },
    {
      "inputs": [
        {
          "internalType": "bytes32",
          "name": "role",
          "type": "bytes32"
        },
        {
          "internalType": "address",
          "name": "account",
          "type": "address"
        }
      ],
      "name": "revokeRole",
      "outputs": [],
      "stateMutability": "nonpayable",
      "type": "function"
    },
    {
      "inputs": [
        {
          "internalType": "bytes4",
          "name": "interfaceId",
          "type": "bytes4"
        }
      ],
      "name": "supportsInterface",
      "outputs": [
        {
          "internalType": "bool",
          "name": "",
          "type": "bool"
        }
      ],
      "stateMutability": "view",
      "type": "function"
    }
  ],
  "bytecode": "0x6080604052348015600e575f5ffd5b50610c2f8061001c5f395ff3fe608060405234801561000f575f5ffd5b50600436106100b1575f3560e01c80639010d07c1161006e5780639010d07c1461016357806391d148541461018e578063a217fddf146101a1578063a3246ad3146101a8578063ca15c873146101c8578063d547741f146101db575f5ffd5b806301ffc9a7146100b557806319ab453c146100dd578063248a9ca3146100f25780632f2ff15d1461011357806336568abe146101265780635c975abb14610139575b5f5ffd5b6100c86100c3366004610a6b565b6101ee565b60405190151581526020015b60405180910390f35b6100f06100eb366004610aad565b610218565b005b610105610100366004610ac6565b610419565b6040519081526020016100d4565b6100f0610121366004610add565b610439565b6100f0610134366004610add565b61045b565b7fcd5ed15c6e187e77e9aee88184c21f4f2182ab5827cb3b7e07fbedcd63f033005460ff166100c8565b610176610171366004610b07565b610493565b6040516001600160a01b0390911681526020016100d4565b6100c861019c366004610add565b6104c0565b6101055f81565b6101bb6101b6366004610ac6565b6104f6565b6040516100d49190610b27565b6101056101d6366004610ac6565b610526565b6100f06101e9366004610add565b61054a565b5f6001600160e01b03198216635a05180f60e01b1480610212575061021282610566565b92915050565b7ff0c57e16840df040f15088dc2f81fe391c3923bec73e23a9662efc9c229c6a008054600160401b810460ff16159067ffffffffffffffff165f8115801561025d5750825b90505f8267ffffffffffffffff1660011480156102795750303b155b905081158015610287575080155b156102a55760405163f92ee8a960e01b815260040160405180910390fd5b845467ffffffffffffffff1916600117855583156102cf57845460ff60401b1916600160401b1785555b6102d761059a565b6102df6105a4565b6102e76105b4565b6102f15f336105c4565b50635a05180f60e01b5f9081527fc8fcad8db84d3cc18b4c41d551ea0ee66dd599cde068d998e57d5e09332c131f6020527fead49a91534c613aa041a37b4ec60071fffa378ffdebca636e9dba34cc056cc8805460ff191660011790557fc8fcad8db84d3cc18b4c41d551ea0ee66dd599cde068d998e57d5e09332c131c90610378610606565b80546001600160a01b0319166001600160a01b038a1690811782556040519081529091507f4f70ae0fbbd9c0df2bb8b76410100bf4c143a6c64699c894ce0e4d59e229a5059060200160405180910390a15050831561041157845460ff60401b19168555604051600181527fc7f505b2f371ae2175ee4913f4499e1f2633a7b5936321eed1cdaeb6115181d29060200160405180910390a15b505050505050565b5f9081525f516020610bda5f395f51905f52602052604090206001015490565b61044282610419565b61044b81610633565b61045583836105c4565b50505050565b6001600160a01b03811633146104845760405163334bd91960e11b815260040160405180910390fd5b61048e8282610640565b505050565b5f8281525f516020610bba5f395f51905f526020819052604082206104b89084610679565b949350505050565b5f9182525f516020610bda5f395f51905f52602090815260408084206001600160a01b0393909316845291905290205460ff1690565b5f8181525f516020610bba5f395f51905f52602081905260409091206060919061051f90610684565b9392505050565b5f8181525f516020610bba5f395f51905f5260208190526040822061051f90610690565b61055382610419565b61055c81610633565b6104558383610640565b5f6001600160e01b03198216637965db0b60e01b148061021257506301ffc9a760e01b6001600160e01b0319831614610212565b6105a2610699565b565b6105ac610699565b6105a26106e2565b6105bc610699565b6105a2610710565b5f5f516020610bba5f395f51905f52816105de8585610743565b905080156104b8575f8581526020839052604090206105fd90856107e4565b50949350505050565b5f8061021260017f2cd77f9c94fe319a7dd481b63cd8242cc742768694b511683687a8add87c34b0610b72565b61063d81336107f8565b50565b5f5f516020610bba5f395f51905f528161065a8585610839565b905080156104b8575f8581526020839052604090206105fd90856108b2565b5f61051f83836108c6565b60605f61051f836108ec565b5f610212825490565b7ff0c57e16840df040f15088dc2f81fe391c3923bec73e23a9662efc9c229c6a0054600160401b900460ff166105a257604051631afcd79f60e31b815260040160405180910390fd5b6106ea610699565b60017f9b779b17422d0df92223018b32b4d1fa46e071723d6817e2486d003becc55f0055565b610718610699565b7fcd5ed15c6e187e77e9aee88184c21f4f2182ab5827cb3b7e07fbedcd63f03300805460ff19169055565b5f5f516020610bda5f395f51905f5261075c84846104c0565b6107db575f848152602082815260408083206001600160a01b03871684529091529020805460ff191660011790556107913390565b6001600160a01b0316836001600160a01b0316857f2f8788117e7eff1d82e926ec794901d17c78024a50270940304540a733656f0d60405160405180910390a46001915050610212565b5f915050610212565b5f61051f836001600160a01b038416610945565b61080282826104c0565b6108355760405163e2517d3f60e01b81526001600160a01b03821660048201526024810183905260440160405180910390fd5b5050565b5f5f516020610bda5f395f51905f5261085284846104c0565b156107db575f848152602082815260408083206001600160a01b0387168085529252808320805460ff1916905551339287917ff6391f5c32d9c69d2a47ea670b442974b53935d1edc7fd64eb21e047a839171b9190a46001915050610212565b5f61051f836001600160a01b038416610991565b5f825f0182815481106108db576108db610b91565b905f5260205f200154905092915050565b6060815f0180548060200260200160405190810160405280929190818152602001828054801561093957602002820191905f5260205f20905b815481526020019060010190808311610925575b50505050509050919050565b5f81815260018301602052604081205461098a57508154600181810184555f848152602080822090930184905584548482528286019093526040902091909155610212565b505f610212565b5f81815260018301602052604081205480156107db575f6109b3600183610b72565b85549091505f906109c690600190610b72565b9050808214610a25575f865f0182815481106109e4576109e4610b91565b905f5260205f200154905080875f018481548110610a0457610a04610b91565b5f918252602080832090910192909255918252600188019052604090208390555b8554869080610a3657610a36610ba5565b600190038181905f5260205f20015f90559055856001015f8681526020019081526020015f205f905560019350505050610212565b5f60208284031215610a7b575f5ffd5b81356001600160e01b03198116811461051f575f5ffd5b80356001600160a01b0381168114610aa8575f5ffd5b919050565b5f60208284031215610abd575f5ffd5b61051f82610a92565b5f60208284031215610ad6575f5ffd5b5035919050565b5f5f60408385031215610aee575f5ffd5b82359150610afe60208401610a92565b90509250929050565b5f5f60408385031215610b18575f5ffd5b50508035926020909101359150565b602080825282518282018190525f918401906040840190835b81811015610b675783516001600160a01b0316835260209384019390920191600101610b40565b509095945050505050565b8181038181111561021257634e487b7160e01b5f52601160045260245ffd5b634e487b7160e01b5f52603260045260245ffd5b634e487b7160e01b5f52603160045260245ffdfec1f6fe24621ce81ec5827caf0253cadb74709b061630e6b55e8237170593200002dd7bc7dec4dceedda775e58dd541e08a116c6c53815c0bd028192f7b626800a26469706673582212206251d77192090050e01211c03c16122729522c2b6a14ba569a5a1d355621e36264736f6c634300081b0033",
  "linkReferences": {},
  "deployedLinkReferences": {}
}