{
  "_format": "hh-sol-artifact-1",
  "contractName": "StakeRedeemRoute",
  "sourceName": "contracts/lumia-diamond/facets/StakeRedeemRoute.sol",
  "abi": [
    {
      "inputs": [],
      "name": "AccessControlBadConfirmation",
      "type": "error"
    },
    {
      "inputs": [
        {
          "internalType": "address",
          "name": "account",
          "type": "address"
        },
        {
          "internalType": "bytes32",
          "name": "neededRole",
          "type": "bytes32"
        }
      ],
      "name": "AccessControlUnauthorizedAccount",
      "type": "error"
    },
    {
      "inputs": [],
      "name": "DestinationUnset",
      "type": "error"
    },
    {
      "inputs": [],
      "name": "InvalidInitialization",
      "type": "error"
    },
    {
      "inputs": [
        {
          "internalType": "address",
          "name": "from",
          "type": "address"
        }
      ],
      "name": "NotFromMailbox",
      "type": "error"
    },
    {
      "inputs": [],
      "name": "NotInitializing",
      "type": "error"
    },
    {
      "inputs": [],
      "name": "OnlyDiamondInternal",
      "type": "error"
    },
    {
      "inputs": [],
      "name": "OnlyLumiaFactoryManager",
      "type": "error"
    },
    {
      "inputs": [],
      "name": "RecipientUnset",
      "type": "error"
    },
    {
      "anonymous": false,
      "inputs": [
        {
          "indexed": false,
          "internalType": "uint64",
          "name": "version",
          "type": "uint64"
        }
      ],
      "name": "Initialized",
      "type": "event"
    },
    {
      "anonymous": false,
      "inputs": [
        {
          "indexed": true,
          "internalType": "bytes32",
          "name": "role",
          "type": "bytes32"
        },
        {
          "indexed": true,
          "internalType": "bytes32",
          "name": "previousAdminRole",
          "type": "bytes32"
        },
        {
          "indexed": true,
          "internalType": "bytes32",
          "name": "newAdminRole",
          "type": "bytes32"
        }
      ],
      "name": "RoleAdminChanged",
      "type": "event"
    },
    {
      "anonymous": false,
      "inputs": [
        {
          "indexed": true,
          "internalType": "bytes32",
          "name": "role",
          "type": "bytes32"
        },
        {
          "indexed": true,
          "internalType": "address",
          "name": "account",
          "type": "address"
        },
        {
          "indexed": true,
          "internalType": "address",
          "name": "sender",
          "type": "address"
        }
      ],
      "name": "RoleGranted",
      "type": "event"
    },
    {
      "anonymous": false,
      "inputs": [
        {
          "indexed": true,
          "internalType": "bytes32",
          "name": "role",
          "type": "bytes32"
        },
        {
          "indexed": true,
          "internalType": "address",
          "name": "account",
          "type": "address"
        },
        {
          "indexed": true,
          "internalType": "address",
          "name": "sender",
          "type": "address"
        }
      ],
      "name": "RoleRevoked",
      "type": "event"
    },
    {
      "anonymous": false,
      "inputs": [
        {
          "indexed": true,
          "internalType": "address",
          "name": "mailbox",
          "type": "address"
        },
        {
          "indexed": false,
          "internalType": "address",
          "name": "recipient",
          "type": "address"
        },
        {
          "indexed": false,
          "internalType": "uint64",
          "name": "nonce",
          "type": "uint64"
        },
        {
          "indexed": true,
          "internalType": "address",
          "name": "strategy",
          "type": "address"
        },
        {
          "indexed": true,
          "internalType": "address",
          "name": "user",
          "type": "address"
        },
        {
          "indexed": false,
          "internalType": "uint256",
          "name": "shares",
          "type": "uint256"
        }
      ],
      "name": "StakeRedeemDispatched",
      "type": "event"
    },
    {
      "inputs": [],
      "name": "DEFAULT_ADMIN_ROLE",
      "outputs": [
        {
          "internalType": "bytes32",
          "name": "",
          "type": "bytes32"
        }
      ],
      "stateMutability": "view",
      "type": "function"
    },
    {
      "inputs": [],
      "name": "LUMIA_FACTORY_MANAGER_ROLE",
      "outputs": [
        {
          "internalType": "bytes32",
          "name": "",
          "type": "bytes32"
        }
      ],
      "stateMutability": "view",
      "type": "function"
    },
    {
      "inputs": [
        {
          "components": [
            {
              "internalType": "uint64",
              "name": "nonce",
              "type": "uint64"
            },
            {
              "internalType": "address",
              "name": "strategy",
              "type": "address"
            },
            {
              "internalType": "address",
              "name": "user",
              "type": "address"
            },
            {
              "internalType": "uint256",
              "name": "redeemAmount",
              "type": "uint256"
            }
          ],
          "internalType": "struct StakeRedeemData",
          "name": "data",
          "type": "tuple"
        }
      ],
      "name": "generateStakeRedeemBody",
      "outputs": [
        {
          "internalType": "bytes",
          "name": "body",
          "type": "bytes"
        }
      ],
      "stateMutability": "pure",
      "type": "function"
    },
    {
      "inputs": [
        {
          "internalType": "bytes32",
          "name": "role",
          "type": "bytes32"
        }
      ],
      "name": "getRoleAdmin",
      "outputs": [
        {
          "internalType": "bytes32",
          "name": "",
          "type": "bytes32"
        }
      ],
      "stateMutability": "view",
      "type": "function"
    },
    {
      "inputs": [
        {
          "internalType": "bytes32",
          "name": "role",
          "type": "bytes32"
        },
        {
          "internalType": "uint256",
          "name": "index",
          "type": "uint256"
        }
      ],
      "name": "getRoleMember",
      "outputs": [
        {
          "internalType": "address",
          "name": "",
          "type": "address"
        }
      ],
      "stateMutability": "view",
      "type": "function"
    },
    {
      "inputs": [
        {
          "internalType": "bytes32",
          "name": "role",
          "type": "bytes32"
        }
      ],
      "name": "getRoleMemberCount",
      "outputs": [
        {
          "internalType": "uint256",
          "name": "",
          "type": "uint256"
        }
      ],
      "stateMutability": "view",
      "type": "function"
    },
    {
      "inputs": [
        {
          "internalType": "bytes32",
          "name": "role",
          "type": "bytes32"
        }
      ],
      "name": "getRoleMembers",
      "outputs": [
        {
          "internalType": "address[]",
          "name": "",
          "type": "address[]"
        }
      ],
      "stateMutability": "view",
      "type": "function"
    },
    {
      "inputs": [
        {
          "internalType": "bytes32",
          "name": "role",
          "type": "bytes32"
        },
        {
          "internalType": "address",
          "name": "account",
          "type": "address"
        }
      ],
      "name": "grantRole",
      "outputs": [],
      "stateMutability": "nonpayable",
      "type": "function"
    },
    {
      "inputs": [
        {
          "internalType": "bytes32",
          "name": "role",
          "type": "bytes32"
        },
        {
          "internalType": "address",
          "name": "account",
          "type": "address"
        }
      ],
      "name": "hasRole",
      "outputs": [
        {
          "internalType": "bool",
          "name": "",
          "type": "bool"
        }
      ],
      "stateMutability": "view",
      "type": "function"
    },
    {
      "inputs": [
        {
          "components": [
            {
              "internalType": "uint64",
              "name": "nonce",
              "type": "uint64"
            },
            {
              "internalType": "address",
              "name": "strategy",
              "type": "address"
            },
            {
              "internalType": "address",
              "name": "user",
              "type": "address"
            },
            {
              "internalType": "uint256",
              "name": "redeemAmount",
              "type": "uint256"
            }
          ],
          "internalType": "struct StakeRedeemData",
          "name": "data",
          "type": "tuple"
        }
      ],
      "name": "quoteDispatchStakeRedeem",
      "outputs": [
        {
          "internalType": "uint256",
          "name": "",
          "type": "uint256"
        }
      ],
      "stateMutability": "view",
      "type": "function"
    },
    {
      "inputs": [
        {
          "internalType": "bytes32",
          "name": "role",
          "type": "bytes32"
        },
        {
          "internalType": "address",
          "name": "callerConfirmation",
          "type": "address"
        }
      ],
      "name": "renounceRole",
      "outputs": [],
      "stateMutability": "nonpayable",
      "type": "function"
    },
    {
      "inputs": [
        {
          "internalType": "bytes32",
          "name": "role",
          "type": "bytes32"
        },
        {
          "internalType": "address",
          "name": "account",
          "type": "address"
        }
      ],
      "name": "revokeRole",
      "outputs": [],
      "stateMutability": "nonpayable",
      "type": "function"
    },
    {
      "inputs": [
        {
          "components": [
            {
              "internalType": "uint64",
              "name": "nonce",
              "type": "uint64"
            },
            {
              "internalType": "address",
              "name": "strategy",
              "type": "address"
            },
            {
              "internalType": "address",
              "name": "user",
              "type": "address"
            },
            {
              "internalType": "uint256",
              "name": "redeemAmount",
              "type": "uint256"
            }
          ],
          "internalType": "struct StakeRedeemData",
          "name": "data",
          "type": "tuple"
        }
      ],
      "name": "stakeRedeemDispatch",
      "outputs": [],
      "stateMutability": "payable",
      "type": "function"
    },
    {
      "inputs": [
        {
          "internalType": "bytes4",
          "name": "interfaceId",
          "type": "bytes4"
        }
      ],
      "name": "supportsInterface",
      "outputs": [
        {
          "internalType": "bool",
          "name": "",
          "type": "bool"
        }
      ],
      "stateMutability": "view",
      "type": "function"
    }
  ],
  "bytecode": "0x6080604052348015600e575f5ffd5b50610e4c8061001c5f395ff3fe6080604052600436106100d9575f3560e01c806391d148541161007c578063ca15c87311610057578063ca15c87314610265578063d547741f14610284578063d8de8ac7146102a3578063f7935f39146102cf575f5ffd5b806391d1485414610207578063a217fddf14610226578063a3246ad314610239575f5ffd5b8063252f3dbf116100b7578063252f3dbf1461015d5780632f2ff15d1461019057806336568abe146101b15780639010d07c146101d0575f5ffd5b806301ffc9a7146100dd5780631fd0f88814610111578063248a9ca31461013e575b5f5ffd5b3480156100e8575f5ffd5b506100fc6100f7366004610b8b565b6102e2565b60405190151581526020015b60405180910390f35b34801561011c575f5ffd5b5061013061012b366004610bcd565b61030c565b604051908152602001610108565b348015610149575f5ffd5b50610130610158366004610c5f565b6103cd565b348015610168575f5ffd5b506101307f1a943f8dfd290b4a9a9d3eb8bcc83fa75fc54a99823be2ef5e377c5d8985ca0281565b34801561019b575f5ffd5b506101af6101aa366004610c76565b6103ed565b005b3480156101bc575f5ffd5b506101af6101cb366004610c76565b61040f565b3480156101db575f5ffd5b506101ef6101ea366004610ca0565b610447565b6040516001600160a01b039091168152602001610108565b348015610212575f5ffd5b506100fc610221366004610c76565b61046c565b348015610231575f5ffd5b506101305f81565b348015610244575f5ffd5b50610258610253366004610c5f565b6104a2565b6040516101089190610cc0565b348015610270575f5ffd5b5061013061027f366004610c5f565b6104d2565b34801561028f575f5ffd5b506101af61029e366004610c76565b6104f6565b3480156102ae575f5ffd5b506102c26102bd366004610bcd565b610512565b6040516101089190610d39565b6101af6102dd366004610bcd565b61051d565b5f6001600160e01b03198216635a05180f60e01b14806103065750610306826106dd565b92915050565b5f5f610316610711565b6020848101516001600160a01b039081165f908152600f8401909252604090912082548154939450909290821691639c42bd1891610100810463ffffffff1691600160281b9091041661036888610512565b6040518463ffffffff1660e01b815260040161038693929190610d4b565b602060405180830381865afa1580156103a1573d5f5f3e3d5ffd5b505050506040513d601f19601f820116820180604052508101906103c59190610d78565b949350505050565b5f9081525f516020610df75f395f51905f52602052604090206001015490565b6103f6826103cd565b6103ff8161073e565b610409838361074b565b50505050565b6001600160a01b03811633146104385760405163334bd91960e11b815260040160405180910390fd5b610442828261078d565b505050565b5f8281525f516020610dd75f395f51905f526020819052604082206103c590846107c6565b5f9182525f516020610df75f395f51905f52602090815260408084206001600160a01b0393909316845291905290205460ff1690565b5f8181525f516020610dd75f395f51905f5260208190526040909120606091906104cb906107d1565b9392505050565b5f8181525f516020610dd75f395f51905f526020819052604082206104cb906107dd565b6104ff826103cd565b6105088161073e565b610409838361078d565b6060610306826107e6565b33301461053d5760405163d248bf1560e01b815260040160405180910390fd5b5f610546610711565b6020808401516001600160a01b039081165f908152600f84019092526040909120805492935091600160281b900416610592576040516394d1b98f60e01b815260040160405180910390fd5b8054610100900463ffffffff165f036105be57604051632490a0bf60e11b815260040160405180910390fd5b5f6105c884610512565b8254845460405163fa31de0160e01b8152929350600160281b82046001600160a01b039081169391169163fa31de019134916106179161010090910463ffffffff169086908890600401610d4b565b60206040518083038185885af1158015610633573d5f5f3e3d5ffd5b50505050506040513d601f19601f820116820180604052508101906106589190610d78565b50604085810151602080880151875487548a516060808d015188516001600160a01b03600160281b9095048516815267ffffffffffffffff9093169683019690965296810194909452938416949184169316917f31d25dc1bfb9068e5b46fa9f1a06b8e548116ebda5a7f50416150828f05fde0e910160405180910390a45050505050565b5f6001600160e01b03198216637965db0b60e01b148061030657506301ffc9a760e01b6001600160e01b0319831614610306565b5f8061030660017f2cd77f9c94fe319a7dd481b63cd8242cc742768694b511683687a8add87c34b0610d8f565b6107488133610863565b50565b5f5f516020610dd75f395f51905f528161076585856108a4565b905080156103c5575f8581526020839052604090206107849085610945565b50949350505050565b5f5f516020610dd75f395f51905f52816107a78585610959565b905080156103c5575f85815260208390526040902061078490856109d2565b5f6104cb83836109e6565b60605f6104cb83610a0c565b5f610306825490565b6060600360c01b825f015160c01b61080884602001516001600160a01b031690565b60408501516001600160a01b031660608601516040516001600160c01b031995861660208201529490931660288501526030840191909152605083015260708201526090016040516020818303038152906040529050919050565b61086d828261046c565b6108a05760405163e2517d3f60e01b81526001600160a01b03821660048201526024810183905260440160405180910390fd5b5050565b5f5f516020610df75f395f51905f526108bd848461046c565b61093c575f848152602082815260408083206001600160a01b03871684529091529020805460ff191660011790556108f23390565b6001600160a01b0316836001600160a01b0316857f2f8788117e7eff1d82e926ec794901d17c78024a50270940304540a733656f0d60405160405180910390a46001915050610306565b5f915050610306565b5f6104cb836001600160a01b038416610a65565b5f5f516020610df75f395f51905f52610972848461046c565b1561093c575f848152602082815260408083206001600160a01b0387168085529252808320805460ff1916905551339287917ff6391f5c32d9c69d2a47ea670b442974b53935d1edc7fd64eb21e047a839171b9190a46001915050610306565b5f6104cb836001600160a01b038416610ab1565b5f825f0182815481106109fb576109fb610dae565b905f5260205f200154905092915050565b6060815f01805480602002602001604051908101604052809291908181526020018280548015610a5957602002820191905f5260205f20905b815481526020019060010190808311610a45575b50505050509050919050565b5f818152600183016020526040812054610aaa57508154600181810184555f848152602080822090930184905584548482528286019093526040902091909155610306565b505f610306565b5f818152600183016020526040812054801561093c575f610ad3600183610d8f565b85549091505f90610ae690600190610d8f565b9050808214610b45575f865f018281548110610b0457610b04610dae565b905f5260205f200154905080875f018481548110610b2457610b24610dae565b5f918252602080832090910192909255918252600188019052604090208390555b8554869080610b5657610b56610dc2565b600190038181905f5260205f20015f90559055856001015f8681526020019081526020015f205f905560019350505050610306565b5f60208284031215610b9b575f5ffd5b81356001600160e01b0319811681146104cb575f5ffd5b80356001600160a01b0381168114610bc8575f5ffd5b919050565b5f6080828403128015610bde575f5ffd5b506040516080810167ffffffffffffffff81118282101715610c0e57634e487b7160e01b5f52604160045260245ffd5b604052823567ffffffffffffffff81168114610c28575f5ffd5b8152610c3660208401610bb2565b6020820152610c4760408401610bb2565b60408201526060928301359281019290925250919050565b5f60208284031215610c6f575f5ffd5b5035919050565b5f5f60408385031215610c87575f5ffd5b82359150610c9760208401610bb2565b90509250929050565b5f5f60408385031215610cb1575f5ffd5b50508035926020909101359150565b602080825282518282018190525f918401906040840190835b81811015610d005783516001600160a01b0316835260209384019390920191600101610cd9565b509095945050505050565b5f81518084528060208401602086015e5f602082860101526020601f19601f83011685010191505092915050565b602081525f6104cb6020830184610d0b565b63ffffffff84168152826020820152606060408201525f610d6f6060830184610d0b565b95945050505050565b5f60208284031215610d88575f5ffd5b5051919050565b8181038181111561030657634e487b7160e01b5f52601160045260245ffd5b634e487b7160e01b5f52603260045260245ffd5b634e487b7160e01b5f52603160045260245ffdfec1f6fe24621ce81ec5827caf0253cadb74709b061630e6b55e8237170593200002dd7bc7dec4dceedda775e58dd541e08a116c6c53815c0bd028192f7b626800a2646970667358221220666955f33e4a8394554cdc31f6aa0d854493b1ef0ee19dd52860d54c5584a87364736f6c634300081b0033",
  "linkReferences": {},
  "deployedLinkReferences": {}
}