{
  "_format": "hh-sol-artifact-1",
  "contractName": "RealAssetsFacet",
  "sourceName": "contracts/lumia-diamond/facets/RealAssetsFacet.sol",
  "abi": [
    {
      "inputs": [],
      "name": "AccessControlBadConfirmation",
      "type": "error"
    },
    {
      "inputs": [
        {
          "internalType": "address",
          "name": "account",
          "type": "address"
        },
        {
          "internalType": "bytes32",
          "name": "neededRole",
          "type": "bytes32"
        }
      ],
      "name": "AccessControlUnauthorizedAccount",
      "type": "error"
    },
    {
      "inputs": [],
      "name": "InvalidInitialization",
      "type": "error"
    },
    {
      "inputs": [
        {
          "internalType": "address",
          "name": "from",
          "type": "address"
        }
      ],
      "name": "NotFromMailbox",
      "type": "error"
    },
    {
      "inputs": [],
      "name": "NotInitializing",
      "type": "error"
    },
    {
      "inputs": [],
      "name": "NotVaultToken",
      "type": "error"
    },
    {
      "inputs": [],
      "name": "OnlyDiamondInternal",
      "type": "error"
    },
    {
      "inputs": [],
      "name": "OnlyLumiaFactoryManager",
      "type": "error"
    },
    {
      "inputs": [],
      "name": "ReentrancyGuardReentrantCall",
      "type": "error"
    },
    {
      "inputs": [],
      "name": "RewardDonationZeroSupply",
      "type": "error"
    },
    {
      "inputs": [
        {
          "internalType": "address",
          "name": "strategy",
          "type": "address"
        }
      ],
      "name": "RouteDoesNotExist",
      "type": "error"
    },
    {
      "inputs": [
        {
          "internalType": "address",
          "name": "token",
          "type": "address"
        }
      ],
      "name": "SafeERC20FailedOperation",
      "type": "error"
    },
    {
      "inputs": [],
      "name": "ZeroAddress",
      "type": "error"
    },
    {
      "inputs": [],
      "name": "ZeroAmount",
      "type": "error"
    },
    {
      "anonymous": false,
      "inputs": [
        {
          "indexed": false,
          "internalType": "uint64",
          "name": "version",
          "type": "uint64"
        }
      ],
      "name": "Initialized",
      "type": "event"
    },
    {
      "anonymous": false,
      "inputs": [
        {
          "indexed": true,
          "internalType": "bytes32",
          "name": "role",
          "type": "bytes32"
        },
        {
          "indexed": true,
          "internalType": "bytes32",
          "name": "previousAdminRole",
          "type": "bytes32"
        },
        {
          "indexed": true,
          "internalType": "bytes32",
          "name": "newAdminRole",
          "type": "bytes32"
        }
      ],
      "name": "RoleAdminChanged",
      "type": "event"
    },
    {
      "anonymous": false,
      "inputs": [
        {
          "indexed": true,
          "internalType": "bytes32",
          "name": "role",
          "type": "bytes32"
        },
        {
          "indexed": true,
          "internalType": "address",
          "name": "account",
          "type": "address"
        },
        {
          "indexed": true,
          "internalType": "address",
          "name": "sender",
          "type": "address"
        }
      ],
      "name": "RoleGranted",
      "type": "event"
    },
    {
      "anonymous": false,
      "inputs": [
        {
          "indexed": true,
          "internalType": "bytes32",
          "name": "role",
          "type": "bytes32"
        },
        {
          "indexed": true,
          "internalType": "address",
          "name": "account",
          "type": "address"
        },
        {
          "indexed": true,
          "internalType": "address",
          "name": "sender",
          "type": "address"
        }
      ],
      "name": "RoleRevoked",
      "type": "event"
    },
    {
      "anonymous": false,
      "inputs": [
        {
          "indexed": true,
          "internalType": "address",
          "name": "strategy",
          "type": "address"
        },
        {
          "indexed": false,
          "internalType": "address",
          "name": "user",
          "type": "address"
        },
        {
          "indexed": false,
          "internalType": "uint256",
          "name": "stake",
          "type": "uint256"
        },
        {
          "indexed": false,
          "internalType": "uint256",
          "name": "shares",
          "type": "uint256"
        }
      ],
      "name": "RwaMint",
      "type": "event"
    },
    {
      "anonymous": false,
      "inputs": [
        {
          "indexed": true,
          "internalType": "address",
          "name": "strategy",
          "type": "address"
        },
        {
          "indexed": false,
          "internalType": "address",
          "name": "from",
          "type": "address"
        },
        {
          "indexed": false,
          "internalType": "address",
          "name": "to",
          "type": "address"
        },
        {
          "indexed": false,
          "internalType": "uint256",
          "name": "assets",
          "type": "uint256"
        },
        {
          "indexed": false,
          "internalType": "uint256",
          "name": "shares",
          "type": "uint256"
        }
      ],
      "name": "RwaRedeem",
      "type": "event"
    },
    {
      "anonymous": false,
      "inputs": [
        {
          "indexed": true,
          "internalType": "address",
          "name": "strategy",
          "type": "address"
        },
        {
          "indexed": false,
          "internalType": "uint256",
          "name": "stakeAdded",
          "type": "uint256"
        }
      ],
      "name": "RwaStakeReward",
      "type": "event"
    },
    {
      "inputs": [],
      "name": "DEFAULT_ADMIN_ROLE",
      "outputs": [
        {
          "internalType": "bytes32",
          "name": "",
          "type": "bytes32"
        }
      ],
      "stateMutability": "view",
      "type": "function"
    },
    {
      "inputs": [],
      "name": "LUMIA_FACTORY_MANAGER_ROLE",
      "outputs": [
        {
          "internalType": "bytes32",
          "name": "",
          "type": "bytes32"
        }
      ],
      "stateMutability": "view",
      "type": "function"
    },
    {
      "inputs": [
        {
          "internalType": "bytes32",
          "name": "role",
          "type": "bytes32"
        }
      ],
      "name": "getRoleAdmin",
      "outputs": [
        {
          "internalType": "bytes32",
          "name": "",
          "type": "bytes32"
        }
      ],
      "stateMutability": "view",
      "type": "function"
    },
    {
      "inputs": [
        {
          "internalType": "bytes32",
          "name": "role",
          "type": "bytes32"
        },
        {
          "internalType": "uint256",
          "name": "index",
          "type": "uint256"
        }
      ],
      "name": "getRoleMember",
      "outputs": [
        {
          "internalType": "address",
          "name": "",
          "type": "address"
        }
      ],
      "stateMutability": "view",
      "type": "function"
    },
    {
      "inputs": [
        {
          "internalType": "bytes32",
          "name": "role",
          "type": "bytes32"
        }
      ],
      "name": "getRoleMemberCount",
      "outputs": [
        {
          "internalType": "uint256",
          "name": "",
          "type": "uint256"
        }
      ],
      "stateMutability": "view",
      "type": "function"
    },
    {
      "inputs": [
        {
          "internalType": "bytes32",
          "name": "role",
          "type": "bytes32"
        }
      ],
      "name": "getRoleMembers",
      "outputs": [
        {
          "internalType": "address[]",
          "name": "",
          "type": "address[]"
        }
      ],
      "stateMutability": "view",
      "type": "function"
    },
    {
      "inputs": [
        {
          "internalType": "bytes32",
          "name": "role",
          "type": "bytes32"
        },
        {
          "internalType": "address",
          "name": "account",
          "type": "address"
        }
      ],
      "name": "grantRole",
      "outputs": [],
      "stateMutability": "nonpayable",
      "type": "function"
    },
    {
      "inputs": [
        {
          "internalType": "bytes32",
          "name": "role",
          "type": "bytes32"
        },
        {
          "internalType": "address",
          "name": "account",
          "type": "address"
        }
      ],
      "name": "hasRole",
      "outputs": [
        {
          "internalType": "bool",
          "name": "",
          "type": "bool"
        }
      ],
      "stateMutability": "view",
      "type": "function"
    },
    {
      "inputs": [
        {
          "internalType": "bytes",
          "name": "data",
          "type": "bytes"
        }
      ],
      "name": "mint",
      "outputs": [],
      "stateMutability": "nonpayable",
      "type": "function"
    },
    {
      "inputs": [
        {
          "internalType": "address",
          "name": "strategy",
          "type": "address"
        },
        {
          "internalType": "address",
          "name": "to",
          "type": "address"
        },
        {
          "internalType": "uint256",
          "name": "shares",
          "type": "uint256"
        }
      ],
      "name": "quoteRedeem",
      "outputs": [
        {
          "internalType": "uint256",
          "name": "",
          "type": "uint256"
        }
      ],
      "stateMutability": "view",
      "type": "function"
    },
    {
      "inputs": [
        {
          "internalType": "address",
          "name": "strategy",
          "type": "address"
        },
        {
          "internalType": "address",
          "name": "from",
          "type": "address"
        },
        {
          "internalType": "address",
          "name": "to",
          "type": "address"
        },
        {
          "internalType": "uint256",
          "name": "shares",
          "type": "uint256"
        }
      ],
      "name": "redeem",
      "outputs": [],
      "stateMutability": "payable",
      "type": "function"
    },
    {
      "inputs": [
        {
          "internalType": "bytes32",
          "name": "role",
          "type": "bytes32"
        },
        {
          "internalType": "address",
          "name": "callerConfirmation",
          "type": "address"
        }
      ],
      "name": "renounceRole",
      "outputs": [],
      "stateMutability": "nonpayable",
      "type": "function"
    },
    {
      "inputs": [
        {
          "internalType": "bytes32",
          "name": "role",
          "type": "bytes32"
        },
        {
          "internalType": "address",
          "name": "account",
          "type": "address"
        }
      ],
      "name": "revokeRole",
      "outputs": [],
      "stateMutability": "nonpayable",
      "type": "function"
    },
    {
      "inputs": [
        {
          "internalType": "bytes",
          "name": "data",
          "type": "bytes"
        }
      ],
      "name": "stakeReward",
      "outputs": [],
      "stateMutability": "nonpayable",
      "type": "function"
    },
    {
      "inputs": [
        {
          "internalType": "bytes4",
          "name": "interfaceId",
          "type": "bytes4"
        }
      ],
      "name": "supportsInterface",
      "outputs": [
        {
          "internalType": "bool",
          "name": "",
          "type": "bool"
        }
      ],
      "stateMutability": "view",
      "type": "function"
    }
  ],
  "bytecode": "0x6080604052348015600e575f5ffd5b506118458061001c5f395ff3fe6080604052600436106100e4575f3560e01c806391d1485411610087578063ba036b4011610057578063ba036b401461028f578063ca15c873146102a2578063d547741f146102c1578063f5ed8c71146102e0575f5ffd5b806391d1485414610212578063921e4c2414610231578063a217fddf14610250578063a3246ad314610263575f5ffd5b80632f2ff15d116100c25780632f2ff15d1461017c57806336568abe1461019d5780637ba0e2e7146101bc5780639010d07c146101db575f5ffd5b806301ffc9a7146100e8578063248a9ca31461011c578063252f3dbf14610149575b5f5ffd5b3480156100f3575f5ffd5b506101076101023660046114f4565b6102ff565b60405190151581526020015b60405180910390f35b348015610127575f5ffd5b5061013b61013636600461151b565b610329565b604051908152602001610113565b348015610154575f5ffd5b5061013b7f1a943f8dfd290b4a9a9d3eb8bcc83fa75fc54a99823be2ef5e377c5d8985ca0281565b348015610187575f5ffd5b5061019b61019636600461154d565b610349565b005b3480156101a8575f5ffd5b5061019b6101b736600461154d565b61036b565b3480156101c7575f5ffd5b5061019b6101d6366004611577565b6103a3565b3480156101e6575f5ffd5b506101fa6101f53660046115e5565b610586565b6040516001600160a01b039091168152602001610113565b34801561021d575f5ffd5b5061010761022c36600461154d565b6105b3565b34801561023c575f5ffd5b5061019b61024b366004611577565b6105e9565b34801561025b575f5ffd5b5061013b5f81565b34801561026e575f5ffd5b5061028261027d36600461151b565b6107b9565b6040516101139190611605565b61019b61029d366004611650565b6107e9565b3480156102ad575f5ffd5b5061013b6102bc36600461151b565b610b67565b3480156102cc575f5ffd5b5061019b6102db36600461154d565b610b8b565b3480156102eb575f5ffd5b5061013b6102fa366004611698565b610ba7565b5f6001600160e01b03198216635a05180f60e01b1480610323575061032382610d0b565b92915050565b5f9081525f5160206117d05f395f51905f52602052604090206001015490565b61035282610329565b61035b81610d3f565b6103658383610d4c565b50505050565b6001600160a01b03811633146103945760405163334bd91960e11b815260040160405180910390fd5b61039e8282610d8e565b505050565b3330146103c35760405163d248bf1560e01b815260040160405180910390fd5b6103cb610dc7565b5f6103d68383610dfe565b90505f6103e38484610e1e565b90505f6103f08585610e30565b90505f6103fb610e48565b90506104078185610e75565b6001600160a01b038481165f908152600f8301602052604090819020600181015491516340c10f1960e01b815230600482015260248101869052909291909116906340c10f19906044015f604051808303815f87803b158015610468575f5ffd5b505af115801561047a573d5f5f3e3d5ffd5b5050506002820154600183015461049f92506001600160a01b03908116911685610ec2565b6002810154604051636e553f6560e01b8152600481018590526001600160a01b0386811660248301525f921690636e553f65906044016020604051808303815f875af11580156104f1573d5f5f3e3d5ffd5b505050506040513d601f19601f8201168201806040525081019061051591906116d2565b604080516001600160a01b038881168252602082018890529181018390529192508716907f8f17b9179388c9a6b360aa3f405c12d517982f965c8f03883f159f16585bac089060600160405180910390a250505050505061058260015f5160206117f05f395f51905f5255565b5050565b5f8281525f5160206117b05f395f51905f526020819052604082206105ab9084610f49565b949350505050565b5f9182525f5160206117d05f395f51905f52602090815260408084206001600160a01b0393909316845291905290205460ff1690565b3330146106095760405163d248bf1560e01b815260040160405180910390fd5b610611610dc7565b5f61061c8383610dfe565b90505f6106298484610f54565b90505f610634610e48565b90506106408184610e75565b6001600160a01b038084165f908152600f830160209081526040808320600281015482516318160ddd60e01b81529251919516926318160ddd92600480820193918290030181865afa158015610698573d5f5f3e3d5ffd5b505050506040513d601f19601f820116820180604052508101906106bc91906116d2565b116106da5760405163eca52b1360e01b815260040160405180910390fd5b60018101546040516340c10f1960e01b8152306004820152602481018590526001600160a01b03909116906340c10f19906044015f604051808303815f87803b158015610725575f5ffd5b505af1158015610737573d5f5f3e3d5ffd5b5050506002820154600183015461075c92506001600160a01b03908116911685610f63565b836001600160a01b03167f94f76d5fae532943e4b294b59c13005d8e07723ac6df7c83c401db27c72c540e8460405161079791815260200190565b60405180910390a25050505061058260015f5160206117f05f395f51905f5255565b5f8181525f5160206117b05f395f51905f5260208190526040909120606091906107e290610fc2565b9392505050565b6107f1610dc7565b6001600160a01b0384161580159061081157506001600160a01b03831615155b801561082557506001600160a01b03821615155b6108425760405163d92e233d60e01b815260040160405180910390fd5b5f811161086257604051631f2a200560e01b815260040160405180910390fd5b5f61086b610e48565b90506108778186610e75565b6001600160a01b038581165f908152600f830160205260408082206002810154915163266d6a8360e11b81526004810187905290939190911690634cdad50690602401602060405180830381865afa1580156108d5573d5f5f3e3d5ffd5b505050506040513d601f19601f820116820180604052508101906108f991906116d2565b90505f811161091b57604051631f2a200560e01b815260040160405180910390fd5b60028201546040516303ba655960e01b8152600481018690523360248201523060448201526001600160a01b0388811660648301525f9216906303ba6559906084016020604051808303815f875af1158015610979573d5f5f3e3d5ffd5b505050506040513d601f19601f8201168201806040525081019061099d91906116d2565b90505f81116109bf57604051631f2a200560e01b815260040160405180910390fd5b6001830154600284015460405163079cc67960e41b81526001600160a01b039182166004820152602481018490529116906379cc6790906044015f604051808303815f87803b158015610a10575f5ffd5b505af1158015610a22573d5f5f3e3d5ffd5b505050505f610a32898888610ba7565b6040516305bc726160e21b81523360048201526024810182905290915030906316f1c9849034906044015f604051808303818588803b158015610a73575f5ffd5b505af1158015610a85573d5f5f3e3d5ffd5b5050604051635a66649160e11b81526001600160a01b03808e1660048301528b166024820152604481018690526064810185905230935063b4ccc922925060840190505f604051808303815f87803b158015610adf575f5ffd5b505af1158015610af1573d5f5f3e3d5ffd5b5050604080516001600160a01b038c811682528b81166020830152918101869052606081018a9052908c1692507fab7b2fcd67109fc2b9bd65e79aafb2733cbe7af728fcf6448c84cecde4fe44fa915060800160405180910390a2505050505061036560015f5160206117f05f395f51905f5255565b5f8181525f5160206117b05f395f51905f526020819052604082206107e290610fce565b610b9482610329565b610b9d81610d3f565b6103658383610d8e565b5f5f610bb1610e48565b6001600160a01b038681165f908152600f9290920160205260408083206002810154915163266d6a8360e11b815260048101889052909450911690634cdad50690602401602060405180830381865afa158015610c10573d5f5f3e3d5ffd5b505050506040513d601f19601f82011682018060405250810190610c3491906116d2565b90505f6040518060800160405280610c4a610fd7565b67ffffffffffffffff90811682526001600160a01b03808b166020808501919091528a8216604080860191909152606094850188905280516303fa1f1160e31b81528651909416600485015290850151821660248401528401511660448201529082015160648201529091503090631fd0f88890608401602060405180830381865afa158015610cdc573d5f5f3e3d5ffd5b505050506040513d601f19601f82011682018060405250810190610d0091906116d2565b979650505050505050565b5f6001600160e01b03198216637965db0b60e01b148061032357506301ffc9a760e01b6001600160e01b0319831614610323565b610d498133610ffb565b50565b5f5f5160206117b05f395f51905f5281610d668585611034565b905080156105ab575f858152602083905260409020610d8590856110d5565b50949350505050565b5f5f5160206117b05f395f51905f5281610da885856110e9565b905080156105ab575f858152602083905260409020610d859085611162565b5f5160206117f05f395f51905f52805460011901610df857604051633ee5aeb560e01b815260040160405180910390fd5b60029055565b5f6107e2610e106030601085876116e9565b610e1991611710565b611176565b5f6107e2610e106050603085876116e9565b5f610e3f6070605084866116e9565b6107e291611710565b5f8061032360017f2cd77f9c94fe319a7dd481b63cd8242cc742768694b511683687a8add87c34b0611741565b6001600160a01b0381165f908152600f83016020526040902054819060ff1661039e576040516303dd3e2360e41b81526001600160a01b0390911660048201526024015b60405180910390fd5b604051636eb1769f60e11b81523060048201526001600160a01b0383811660248301525f919085169063dd62ed3e90604401602060405180830381865afa158015610f0f573d5f5f3e3d5ffd5b505050506040513d601f19601f82011682018060405250810190610f3391906116d2565b90506103658484610f448585611754565b6111de565b5f6107e2838361126d565b5f610e3f6050603084866116e9565b6040516001600160a01b0383811660248301526044820183905261039e91859182169063a9059cbb906064015b604051602081830303815290604052915060e01b6020820180516001600160e01b038381831617835250505050611293565b60605f6107e2836112ff565b5f610323825490565b5f610fe0611358565b54610ff69067ffffffffffffffff166001611767565b905090565b61100582826105b3565b6105825760405163e2517d3f60e01b81526001600160a01b038216600482015260248101839052604401610eb9565b5f5f5160206117d05f395f51905f5261104d84846105b3565b6110cc575f848152602082815260408083206001600160a01b03871684529091529020805460ff191660011790556110823390565b6001600160a01b0316836001600160a01b0316857f2f8788117e7eff1d82e926ec794901d17c78024a50270940304540a733656f0d60405160405180910390a46001915050610323565b5f915050610323565b5f6107e2836001600160a01b038416611385565b5f5f5160206117d05f395f51905f5261110284846105b3565b156110cc575f848152602082815260408083206001600160a01b0387168085529252808320805460ff1916905551339287917ff6391f5c32d9c69d2a47ea670b442974b53935d1edc7fd64eb21e047a839171b9190a46001915050610323565b5f6107e2836001600160a01b0384166113d1565b5f6001600160a01b038211156111da5760405162461bcd60e51b8152602060048201526024808201527f5479706543617374733a2062797465733332546f41646472657373206f766572604482015263666c6f7760e01b6064820152608401610eb9565b5090565b604080516001600160a01b038416602482015260448082018490528251808303909101815260649091019091526020810180516001600160e01b031663095ea7b360e01b17905261122f84826114ab565b610365576040516001600160a01b0384811660248301525f604483015261126391869182169063095ea7b390606401610f90565b6103658482611293565b5f825f01828154811061128257611282611787565b905f5260205f200154905092915050565b5f5f60205f8451602086015f885af1806112b2576040513d5f823e3d81fd5b50505f513d915081156112c95780600114156112d6565b6001600160a01b0384163b155b1561036557604051635274afe760e01b81526001600160a01b0385166004820152602401610eb9565b6060815f0180548060200260200160405190810160405280929190818152602001828054801561134c57602002820191905f5260205f20905b815481526020019060010190808311611338575b50505050509050919050565b5f8061032360017f5bb7656ef24c73b7e8f5713e1e3451eff01777c4d0b1e46eb4b823c11d8aa151611741565b5f8181526001830160205260408120546113ca57508154600181810184555f848152602080822090930184905584548482528286019093526040902091909155610323565b505f610323565b5f81815260018301602052604081205480156110cc575f6113f3600183611741565b85549091505f9061140690600190611741565b9050808214611465575f865f01828154811061142457611424611787565b905f5260205f200154905080875f01848154811061144457611444611787565b5f918252602080832090910192909255918252600188019052604090208390555b85548690806114765761147661179b565b600190038181905f5260205f20015f90559055856001015f8681526020019081526020015f205f905560019350505050610323565b5f5f5f5f60205f8651602088015f8a5af192503d91505f5190508280156114ea575081156114dc57806001146114ea565b5f866001600160a01b03163b115b9695505050505050565b5f60208284031215611504575f5ffd5b81356001600160e01b0319811681146107e2575f5ffd5b5f6020828403121561152b575f5ffd5b5035919050565b80356001600160a01b0381168114611548575f5ffd5b919050565b5f5f6040838503121561155e575f5ffd5b8235915061156e60208401611532565b90509250929050565b5f5f60208385031215611588575f5ffd5b823567ffffffffffffffff81111561159e575f5ffd5b8301601f810185136115ae575f5ffd5b803567ffffffffffffffff8111156115c4575f5ffd5b8560208284010111156115d5575f5ffd5b6020919091019590945092505050565b5f5f604083850312156115f6575f5ffd5b50508035926020909101359150565b602080825282518282018190525f918401906040840190835b818110156116455783516001600160a01b031683526020938401939092019160010161161e565b509095945050505050565b5f5f5f5f60808587031215611663575f5ffd5b61166c85611532565b935061167a60208601611532565b925061168860408601611532565b9396929550929360600135925050565b5f5f5f606084860312156116aa575f5ffd5b6116b384611532565b92506116c160208501611532565b929592945050506040919091013590565b5f602082840312156116e2575f5ffd5b5051919050565b5f5f858511156116f7575f5ffd5b83861115611703575f5ffd5b5050820193919092039150565b80356020831015610323575f19602084900360031b1b1692915050565b634e487b7160e01b5f52601160045260245ffd5b818103818111156103235761032361172d565b808201808211156103235761032361172d565b67ffffffffffffffff81811683821601908111156103235761032361172d565b634e487b7160e01b5f52603260045260245ffd5b634e487b7160e01b5f52603160045260245ffdfec1f6fe24621ce81ec5827caf0253cadb74709b061630e6b55e8237170593200002dd7bc7dec4dceedda775e58dd541e08a116c6c53815c0bd028192f7b6268009b779b17422d0df92223018b32b4d1fa46e071723d6817e2486d003becc55f00a26469706673582212200a40a84323b299f25727d86890d286d1430971eb771b176892193a26222606e664736f6c634300081b0033",
  "linkReferences": {},
  "deployedLinkReferences": {}
}