{
  "_format": "hh-sol-artifact-1",
  "contractName": "HyperlaneHandlerFacet",
  "sourceName": "contracts/lumia-diamond/facets/HyperlaneHandlerFacet.sol",
  "abi": [
    {
      "inputs": [],
      "name": "AccessControlBadConfirmation",
      "type": "error"
    },
    {
      "inputs": [
        {
          "internalType": "address",
          "name": "account",
          "type": "address"
        },
        {
          "internalType": "bytes32",
          "name": "neededRole",
          "type": "bytes32"
        }
      ],
      "name": "AccessControlUnauthorizedAccount",
      "type": "error"
    },
    {
      "inputs": [
        {
          "internalType": "uint32",
          "name": "originDestination",
          "type": "uint32"
        }
      ],
      "name": "BadOriginDestination",
      "type": "error"
    },
    {
      "inputs": [],
      "name": "DispatchUnderpaid",
      "type": "error"
    },
    {
      "inputs": [
        {
          "internalType": "bytes32",
          "name": "msgId",
          "type": "bytes32"
        }
      ],
      "name": "HyperlaneReplay",
      "type": "error"
    },
    {
      "inputs": [],
      "name": "InsufficientValue",
      "type": "error"
    },
    {
      "inputs": [
        {
          "internalType": "address",
          "name": "hook",
          "type": "address"
        }
      ],
      "name": "InvalidHook",
      "type": "error"
    },
    {
      "inputs": [],
      "name": "InvalidInitialization",
      "type": "error"
    },
    {
      "inputs": [
        {
          "internalType": "address",
          "name": "badMailbox",
          "type": "address"
        }
      ],
      "name": "InvalidMailbox",
      "type": "error"
    },
    {
      "inputs": [
        {
          "internalType": "address",
          "name": "sender",
          "type": "address"
        }
      ],
      "name": "NotFromHyperStaking",
      "type": "error"
    },
    {
      "inputs": [
        {
          "internalType": "address",
          "name": "from",
          "type": "address"
        }
      ],
      "name": "NotFromMailbox",
      "type": "error"
    },
    {
      "inputs": [],
      "name": "NotInitializing",
      "type": "error"
    },
    {
      "inputs": [],
      "name": "OnlyDiamondInternal",
      "type": "error"
    },
    {
      "inputs": [],
      "name": "OnlyLumiaFactoryManager",
      "type": "error"
    },
    {
      "inputs": [],
      "name": "OriginUpdateFailed",
      "type": "error"
    },
    {
      "inputs": [],
      "name": "RefundFailed",
      "type": "error"
    },
    {
      "inputs": [],
      "name": "RouteAlreadyExist",
      "type": "error"
    },
    {
      "inputs": [
        {
          "internalType": "address",
          "name": "token",
          "type": "address"
        }
      ],
      "name": "SafeERC20FailedOperation",
      "type": "error"
    },
    {
      "inputs": [],
      "name": "TransferFailed",
      "type": "error"
    },
    {
      "inputs": [],
      "name": "UnsupportedMessage",
      "type": "error"
    },
    {
      "anonymous": false,
      "inputs": [
        {
          "indexed": false,
          "internalType": "address",
          "name": "originLockbox",
          "type": "address"
        },
        {
          "indexed": false,
          "internalType": "bool",
          "name": "authorized",
          "type": "bool"
        },
        {
          "indexed": false,
          "internalType": "uint32",
          "name": "originDestination",
          "type": "uint32"
        }
      ],
      "name": "AuthorizedOriginUpdated",
      "type": "event"
    },
    {
      "anonymous": false,
      "inputs": [
        {
          "indexed": false,
          "internalType": "address",
          "name": "hook",
          "type": "address"
        }
      ],
      "name": "HyperlaneHookUpdated",
      "type": "event"
    },
    {
      "anonymous": false,
      "inputs": [
        {
          "indexed": false,
          "internalType": "address",
          "name": "ism",
          "type": "address"
        }
      ],
      "name": "HyperlaneISMUpdated",
      "type": "event"
    },
    {
      "anonymous": false,
      "inputs": [
        {
          "indexed": false,
          "internalType": "uint64",
          "name": "version",
          "type": "uint64"
        }
      ],
      "name": "Initialized",
      "type": "event"
    },
    {
      "anonymous": false,
      "inputs": [
        {
          "indexed": false,
          "internalType": "address",
          "name": "oldMailbox",
          "type": "address"
        },
        {
          "indexed": false,
          "internalType": "address",
          "name": "newMailbox",
          "type": "address"
        }
      ],
      "name": "MailboxUpdated",
      "type": "event"
    },
    {
      "anonymous": false,
      "inputs": [
        {
          "indexed": true,
          "internalType": "uint32",
          "name": "origin",
          "type": "uint32"
        },
        {
          "indexed": true,
          "internalType": "bytes32",
          "name": "sender",
          "type": "bytes32"
        },
        {
          "indexed": false,
          "internalType": "uint256",
          "name": "value",
          "type": "uint256"
        },
        {
          "indexed": false,
          "internalType": "bytes",
          "name": "message",
          "type": "bytes"
        }
      ],
      "name": "ReceivedMessage",
      "type": "event"
    },
    {
      "anonymous": false,
      "inputs": [
        {
          "indexed": true,
          "internalType": "bytes32",
          "name": "role",
          "type": "bytes32"
        },
        {
          "indexed": true,
          "internalType": "bytes32",
          "name": "previousAdminRole",
          "type": "bytes32"
        },
        {
          "indexed": true,
          "internalType": "bytes32",
          "name": "newAdminRole",
          "type": "bytes32"
        }
      ],
      "name": "RoleAdminChanged",
      "type": "event"
    },
    {
      "anonymous": false,
      "inputs": [
        {
          "indexed": true,
          "internalType": "bytes32",
          "name": "role",
          "type": "bytes32"
        },
        {
          "indexed": true,
          "internalType": "address",
          "name": "account",
          "type": "address"
        },
        {
          "indexed": true,
          "internalType": "address",
          "name": "sender",
          "type": "address"
        }
      ],
      "name": "RoleGranted",
      "type": "event"
    },
    {
      "anonymous": false,
      "inputs": [
        {
          "indexed": true,
          "internalType": "bytes32",
          "name": "role",
          "type": "bytes32"
        },
        {
          "indexed": true,
          "internalType": "address",
          "name": "account",
          "type": "address"
        },
        {
          "indexed": true,
          "internalType": "address",
          "name": "sender",
          "type": "address"
        }
      ],
      "name": "RoleRevoked",
      "type": "event"
    },
    {
      "anonymous": false,
      "inputs": [
        {
          "indexed": true,
          "internalType": "address",
          "name": "originLockbox",
          "type": "address"
        },
        {
          "indexed": true,
          "internalType": "uint32",
          "name": "originDestination",
          "type": "uint32"
        },
        {
          "indexed": false,
          "internalType": "address",
          "name": "strategy",
          "type": "address"
        },
        {
          "indexed": false,
          "internalType": "address",
          "name": "assetToken",
          "type": "address"
        },
        {
          "indexed": true,
          "internalType": "address",
          "name": "vaultShares",
          "type": "address"
        }
      ],
      "name": "RouteRegistered",
      "type": "event"
    },
    {
      "inputs": [],
      "name": "DEFAULT_ADMIN_ROLE",
      "outputs": [
        {
          "internalType": "bytes32",
          "name": "",
          "type": "bytes32"
        }
      ],
      "stateMutability": "view",
      "type": "function"
    },
    {
      "inputs": [],
      "name": "LUMIA_FACTORY_MANAGER_ROLE",
      "outputs": [
        {
          "internalType": "bytes32",
          "name": "",
          "type": "bytes32"
        }
      ],
      "stateMutability": "view",
      "type": "function"
    },
    {
      "inputs": [
        {
          "internalType": "address",
          "name": "strategy",
          "type": "address"
        },
        {
          "internalType": "address",
          "name": "user",
          "type": "address"
        },
        {
          "internalType": "uint256",
          "name": "redeemAmount",
          "type": "uint256"
        },
        {
          "internalType": "uint256",
          "name": "dispatchFee",
          "type": "uint256"
        }
      ],
      "name": "bridgeStakeRedeem",
      "outputs": [],
      "stateMutability": "nonpayable",
      "type": "function"
    },
    {
      "inputs": [
        {
          "internalType": "address",
          "name": "from",
          "type": "address"
        },
        {
          "internalType": "uint256",
          "name": "dispatchFee",
          "type": "uint256"
        }
      ],
      "name": "collectDispatchFee",
      "outputs": [],
      "stateMutability": "payable",
      "type": "function"
    },
    {
      "inputs": [
        {
          "internalType": "address",
          "name": "originLockbox",
          "type": "address"
        }
      ],
      "name": "destination",
      "outputs": [
        {
          "internalType": "uint32",
          "name": "",
          "type": "uint32"
        }
      ],
      "stateMutability": "view",
      "type": "function"
    },
    {
      "inputs": [
        {
          "internalType": "bytes32",
          "name": "role",
          "type": "bytes32"
        }
      ],
      "name": "getRoleAdmin",
      "outputs": [
        {
          "internalType": "bytes32",
          "name": "",
          "type": "bytes32"
        }
      ],
      "stateMutability": "view",
      "type": "function"
    },
    {
      "inputs": [
        {
          "internalType": "bytes32",
          "name": "role",
          "type": "bytes32"
        },
        {
          "internalType": "uint256",
          "name": "index",
          "type": "uint256"
        }
      ],
      "name": "getRoleMember",
      "outputs": [
        {
          "internalType": "address",
          "name": "",
          "type": "address"
        }
      ],
      "stateMutability": "view",
      "type": "function"
    },
    {
      "inputs": [
        {
          "internalType": "bytes32",
          "name": "role",
          "type": "bytes32"
        }
      ],
      "name": "getRoleMemberCount",
      "outputs": [
        {
          "internalType": "uint256",
          "name": "",
          "type": "uint256"
        }
      ],
      "stateMutability": "view",
      "type": "function"
    },
    {
      "inputs": [
        {
          "internalType": "bytes32",
          "name": "role",
          "type": "bytes32"
        }
      ],
      "name": "getRoleMembers",
      "outputs": [
        {
          "internalType": "address[]",
          "name": "",
          "type": "address[]"
        }
      ],
      "stateMutability": "view",
      "type": "function"
    },
    {
      "inputs": [
        {
          "internalType": "address",
          "name": "strategy",
          "type": "address"
        }
      ],
      "name": "getRouteInfo",
      "outputs": [
        {
          "components": [
            {
              "internalType": "bool",
              "name": "exists",
              "type": "bool"
            },
            {
              "internalType": "uint32",
              "name": "originDestination",
              "type": "uint32"
            },
            {
              "internalType": "address",
              "name": "originLockbox",
              "type": "address"
            },
            {
              "internalType": "contract IERC20",
              "name": "assetToken",
              "type": "address"
            },
            {
              "internalType": "contract ILumiaVaultShares",
              "name": "vaultShares",
              "type": "address"
            }
          ],
          "internalType": "struct RouteInfo",
          "name": "",
          "type": "tuple"
        }
      ],
      "stateMutability": "view",
      "type": "function"
    },
    {
      "inputs": [
        {
          "internalType": "bytes32",
          "name": "role",
          "type": "bytes32"
        },
        {
          "internalType": "address",
          "name": "account",
          "type": "address"
        }
      ],
      "name": "grantRole",
      "outputs": [],
      "stateMutability": "nonpayable",
      "type": "function"
    },
    {
      "inputs": [
        {
          "internalType": "uint32",
          "name": "origin",
          "type": "uint32"
        },
        {
          "internalType": "bytes32",
          "name": "sender",
          "type": "bytes32"
        },
        {
          "internalType": "bytes",
          "name": "data",
          "type": "bytes"
        }
      ],
      "name": "handle",
      "outputs": [],
      "stateMutability": "payable",
      "type": "function"
    },
    {
      "inputs": [
        {
          "internalType": "bytes32",
          "name": "role",
          "type": "bytes32"
        },
        {
          "internalType": "address",
          "name": "account",
          "type": "address"
        }
      ],
      "name": "hasRole",
      "outputs": [
        {
          "internalType": "bool",
          "name": "",
          "type": "bool"
        }
      ],
      "stateMutability": "view",
      "type": "function"
    },
    {
      "inputs": [],
      "name": "hook",
      "outputs": [
        {
          "internalType": "contract IPostDispatchHook",
          "name": "",
          "type": "address"
        }
      ],
      "stateMutability": "view",
      "type": "function"
    },
    {
      "inputs": [],
      "name": "interchainSecurityModule",
      "outputs": [
        {
          "internalType": "contract IInterchainSecurityModule",
          "name": "",
          "type": "address"
        }
      ],
      "stateMutability": "view",
      "type": "function"
    },
    {
      "inputs": [],
      "name": "lastMessage",
      "outputs": [
        {
          "components": [
            {
              "internalType": "address",
              "name": "sender",
              "type": "address"
            },
            {
              "internalType": "bytes",
              "name": "data",
              "type": "bytes"
            }
          ],
          "internalType": "struct LastMessage",
          "name": "",
          "type": "tuple"
        }
      ],
      "stateMutability": "view",
      "type": "function"
    },
    {
      "inputs": [],
      "name": "mailbox",
      "outputs": [
        {
          "internalType": "contract IMailbox",
          "name": "",
          "type": "address"
        }
      ],
      "stateMutability": "view",
      "type": "function"
    },
    {
      "inputs": [
        {
          "internalType": "bytes32",
          "name": "role",
          "type": "bytes32"
        },
        {
          "internalType": "address",
          "name": "callerConfirmation",
          "type": "address"
        }
      ],
      "name": "renounceRole",
      "outputs": [],
      "stateMutability": "nonpayable",
      "type": "function"
    },
    {
      "inputs": [
        {
          "internalType": "bytes32",
          "name": "role",
          "type": "bytes32"
        },
        {
          "internalType": "address",
          "name": "account",
          "type": "address"
        }
      ],
      "name": "revokeRole",
      "outputs": [],
      "stateMutability": "nonpayable",
      "type": "function"
    },
    {
      "inputs": [
        {
          "internalType": "address",
          "name": "postDispatchHook",
          "type": "address"
        }
      ],
      "name": "setHook",
      "outputs": [],
      "stateMutability": "nonpayable",
      "type": "function"
    },
    {
      "inputs": [
        {
          "internalType": "contract IInterchainSecurityModule",
          "name": "ism",
          "type": "address"
        }
      ],
      "name": "setInterchainSecurityModule",
      "outputs": [],
      "stateMutability": "nonpayable",
      "type": "function"
    },
    {
      "inputs": [
        {
          "internalType": "address",
          "name": "newMailbox",
          "type": "address"
        }
      ],
      "name": "setMailbox",
      "outputs": [],
      "stateMutability": "nonpayable",
      "type": "function"
    },
    {
      "inputs": [
        {
          "internalType": "bytes4",
          "name": "interfaceId",
          "type": "bytes4"
        }
      ],
      "name": "supportsInterface",
      "outputs": [
        {
          "internalType": "bool",
          "name": "",
          "type": "bool"
        }
      ],
      "stateMutability": "view",
      "type": "function"
    },
    {
      "inputs": [
        {
          "internalType": "address",
          "name": "originLockbox",
          "type": "address"
        },
        {
          "internalType": "bool",
          "name": "authorized",
          "type": "bool"
        },
        {
          "internalType": "uint32",
          "name": "originDestination",
          "type": "uint32"
        }
      ],
      "name": "updateAuthorizedOrigin",
      "outputs": [],
      "stateMutability": "nonpayable",
      "type": "function"
    }
  ],
  "bytecode": "0x6080604052348015600e575f5ffd5b50614c2c8061001c5f395ff3fe608060405260043610610147575f3560e01c80638f0e2c1c116100b3578063b4ccc9221161006d578063b4ccc92214610400578063ca15c8731461041f578063d5438eae1461043e578063d547741f14610452578063de523cf314610471578063f3c61d6b14610485575f5ffd5b80638f0e2c1c146102f15780639010d07c1461031057806391d148541461032f5780639a0871721461034e578063a217fddf146103c1578063a3246ad3146103d4575f5ffd5b80632f3bd5cd116101045780632f3bd5cd1461021f578063329707101461025357806336568abe146102745780633dfd38731461029357806356d5d475146102b25780637f5a7c7b146102c5575f5ffd5b806301ffc9a71461014b5780630e72cc061461017f57806316f1c984146101a0578063248a9ca3146101b3578063252f3dbf146101e05780632f2ff15d14610200575b5f5ffd5b348015610156575f5ffd5b5061016a610165366004611c7d565b6104a4565b60405190151581526020015b60405180910390f35b34801561018a575f5ffd5b5061019e610199366004611cb8565b6104ce565b005b61019e6101ae366004611cd3565b610561565b3480156101be575f5ffd5b506101d26101cd366004611cfd565b6105c8565b604051908152602001610176565b3480156101eb575f5ffd5b506101d25f516020614b975f395f51905f5281565b34801561020b575f5ffd5b5061019e61021a366004611d14565b6105e8565b34801561022a575f5ffd5b5061023e610239366004611cb8565b61060a565b60405163ffffffff9091168152602001610176565b34801561025e575f5ffd5b5061026761063a565b6040516101769190611d70565b34801561027f575f5ffd5b5061019e61028e366004611d14565b61070f565b34801561029e575f5ffd5b5061019e6102ad366004611cb8565b610742565b61019e6102c0366004611db4565b61081e565b3480156102d0575f5ffd5b506102d9610ae4565b6040516001600160a01b039091168152602001610176565b3480156102fc575f5ffd5b5061019e61030b366004611e37565b610aff565b34801561031b575f5ffd5b506102d961032a366004611e7f565b610c6a565b34801561033a575f5ffd5b5061016a610349366004611d14565b610c97565b348015610359575f5ffd5b5061036d610368366004611cb8565b610ccd565b6040805182511515815260208084015163ffffffff1690820152828201516001600160a01b03908116928201929092526060808401518316908201526080928301519091169181019190915260a001610176565b3480156103cc575f5ffd5b506101d25f81565b3480156103df575f5ffd5b506103f36103ee366004611cfd565b610d74565b6040516101769190611e9f565b34801561040b575f5ffd5b5061019e61041a366004611eea565b610da4565b34801561042a575f5ffd5b506101d2610439366004611cfd565b610e86565b348015610449575f5ffd5b506102d9610eaa565b34801561045d575f5ffd5b5061019e61046c366004611d14565b610ec2565b34801561047c575f5ffd5b506102d9610ede565b348015610490575f5ffd5b5061019e61049f366004611cb8565b610ef9565b5f6001600160e01b03198216635a05180f60e01b14806104c857506104c882610fec565b92915050565b6104e55f516020614b975f395f51905f5233610c97565b6105025760405163301ed94360e11b815260040160405180910390fd5b8061050b611020565b60010180546001600160a01b0319166001600160a01b0392831617905560405190821681527f1f93f602e1d7121b6ebefa802d7486621567ceb3108ba167b8bbb9206e9196db906020015b60405180910390a150565b3330146105815760405163d248bf1560e01b815260040160405180910390fd5b80156105c457803410156105a85760405163cbc5b5dd60e01b815260040160405180910390fd5b60408051602081019091525f81526105c28184308561104d565b505b5050565b5f9081525f516020614bd75f395f51905f52602052604090206001015490565b6105f1826105c8565b6105fa816111a1565b61060483836111ae565b50505050565b5f610613611020565b6001600160a01b039092165f908152600e9290920160205250604090205463ffffffff1690565b604080518082019091525f815260606020820152610656611020565b604080518082019091526002820180546001600160a01b031682526003909201805491929160208401919061068a90611f2d565b80601f01602080910402602001604051908101604052809291908181526020018280546106b690611f2d565b80156107015780601f106106d857610100808354040283529160200191610701565b820191905f5260205f20905b8154815290600101906020018083116106e457829003601f168201915b505050505081525050905090565b6001600160a01b03811633146107385760405163334bd91960e11b815260040160405180910390fd5b6105c282826111f0565b6107595f516020614b975f395f51905f5233610c97565b6107765760405163301ed94360e11b815260040160405180910390fd5b6001600160a01b038116158061079557505f816001600160a01b03163b115b81906107c55760405163d60f216160e01b81526001600160a01b0390911660048201526024015b60405180910390fd5b50806107cf611020565b60100180546001600160a01b0319166001600160a01b0392831617905560405190821681527fbe12f496662bcc39501c02ebd68c2897078989e2f01e926cc3be9a32dc7fd9d990602001610556565b5f610827611020565b546001600160a01b031690503380821461086057604051635ec769f360e01b81526001600160a01b0390911660048201526024016107bc565b505f61086b85611229565b90505f610876611020565b9050610885600c820183611291565b82906108b05760405163f82475ed60e01b81526001600160a01b0390911660048201526024016107bc565b506001600160a01b0382165f908152600e82016020526040902054879063ffffffff8281169116146108fe5760405163ba6dd62b60e01b815263ffffffff90911660048201526024016107bc565b5061090b878787876112b2565b6040518060400160405280836001600160a01b0316815260200186868080601f0160208091040260200160405190810160405280939291908181526020018383808284375f92019190915250505091525080516002830180546001600160a01b0319166001600160a01b03909216919091178155602082015160038401906109939082611fbd565b50905050858763ffffffff167fa91b1f3644ffda4533c176bd3a66cdf2ddfda1ce3cb03f56610c865a559355d03488886040516109d2939291906120a0565b60405180910390a35f6109e586866112c6565b90505f8160038111156109fa576109fa6120c2565b03610a1357610a0b838988886112f1565b505050610add565b6001816003811115610a2757610a276120c2565b03610a8657604051637ba0e2e760e01b81523090637ba0e2e790610a5190899089906004016120d6565b5f604051808303815f87803b158015610a68575f5ffd5b505af1158015610a7a573d5f5f3e3d5ffd5b50505050505050610add565b6002816003811115610a9a57610a9a6120c2565b03610ac457604051632487930960e21b8152309063921e4c2490610a5190899089906004016120d6565b60405163ca2d578f60e01b815260040160405180910390fd5b5050505050565b5f610aed611020565b601001546001600160a01b0316919050565b610b165f516020614b975f395f51905f5233610c97565b610b335760405163301ed94360e11b815260040160405180910390fd5b5f610b3c611020565b90506001600160a01b038416610b655760405163b6014a2b60e01b815260040160405180910390fd5b8215610bc657610b78600c82018561159b565b610b955760405163b6014a2b60e01b815260040160405180910390fd5b6001600160a01b0384165f908152600e820160205260409020805463ffffffff191663ffffffff8416179055610c15565b610bd3600c8201856115af565b610bf05760405163b6014a2b60e01b815260040160405180910390fd5b6001600160a01b0384165f908152600e820160205260409020805463ffffffff191690555b604080516001600160a01b0386168152841515602082015263ffffffff84168183015290517fd892ab20b0d186dfbf04c9dba249d109aff7021f638ec00d576196f4d23a73b59181900360600190a150505050565b5f8281525f516020614bb75f395f51905f52602081905260408220610c8f90846115c3565b949350505050565b5f9182525f516020614bd75f395f51905f52602090815260408084206001600160a01b0393909316845291905290205460ff1690565b6040805160a0810182525f80825260208201819052918101829052606081018290526080810191909152610cff611020565b6001600160a01b039283165f908152600f919091016020908152604091829020825160a081018452815460ff81161515825263ffffffff610100820416938201939093526501000000000090920485169282019290925260018201548416606082015260029091015490921660808301525090565b5f8181525f516020614bb75f395f51905f526020819052604090912060609190610d9d906115ce565b9392505050565b333014610dc45760405163d248bf1560e01b815260040160405180910390fd5b5f6040518060800160405280610dd86115da565b67ffffffffffffffff90811682526001600160a01b038089166020808501919091528882166040808601919091526060948501899052805163f7935f3960e01b8152865190941660048501529085015182166024840152840151166044820152908201516064820152909150309063f7935f399084906084015f604051808303818588803b158015610e68575f5ffd5b505af1158015610e7a573d5f5f3e3d5ffd5b50505050505050505050565b5f8181525f516020614bb75f395f51905f52602081905260408220610d9d90611624565b5f610eb3611020565b546001600160a01b0316919050565b610ecb826105c8565b610ed4816111a1565b61060483836111f0565b5f610ee7611020565b600101546001600160a01b0316919050565b610f105f516020614b975f395f51905f5233610c97565b610f2d5760405163301ed94360e11b815260040160405180910390fd5b6001600160a01b03811615801590610f4e57505f816001600160a01b03163b115b8190610f79576040516356e5587960e01b81526001600160a01b0390911660048201526024016107bc565b505f610f83611020565b8054604080516001600160a01b03928316815291851660208301529192507fc9f808ed2d4877daa57900b86147cc4d4c05e37ac36bc6d417d387dfc3f3e6a7910160405180910390a180546001600160a01b0319166001600160a01b0392909216919091179055565b5f6001600160e01b03198216637965db0b60e01b14806104c857506301ffc9a760e01b6001600160e01b03198316146104c8565b5f806104c860017f2cd77f9c94fe319a7dd481b63cd8242cc742768694b511683687a8add87c34b06120fd565b83516001600160a01b031661118a578034101561107d5760405163044044a560e21b815260040160405180910390fd5b6001600160a01b03821630146110ff575f826001600160a01b0316826040515f6040518083038185875af1925050503d805f81146110d6576040519150601f19603f3d011682016040523d82523d5f602084013e6110db565b606091505b50509050806110fd576040516312171d8360e31b815260040160405180910390fd5b505b5f61110a82346120fd565b90508015611184575f846001600160a01b0316826040515f6040518083038185875af1925050503d805f811461115b576040519150601f19603f3d011682016040523d82523d5f602084013e611160565b606091505b505090508061118257604051633c31275160e21b815260040160405180910390fd5b505b50610604565b8351610604906001600160a01b031684848461162d565b6111ab8133611687565b50565b5f5f516020614bb75f395f51905f52816111c885856116c0565b90508015610c8f575f8581526020839052604090206111e7908561159b565b50949350505050565b5f5f516020614bb75f395f51905f528161120a8585611768565b90508015610c8f575f8581526020839052604090206111e790856115af565b5f6001600160a01b0382111561128d5760405162461bcd60e51b8152602060048201526024808201527f5479706543617374733a2062797465733332546f41646472657373206f766572604482015263666c6f7760e01b60648201526084016107bc565b5090565b6001600160a01b0381165f9081526001830160205260408120541515610d9d565b6106046112c1858585856117e1565b61182b565b5f6112d46008828486612110565b6112dd91612137565b60c01c6003811115610d9d57610d9d6120c2565b5f6112fc838361188c565b90505f61130984846118ac565b8080601f0160208091040260200160405190810160405280939291908181526020018383808284375f92018290525093945061134b92508791508690506118f5565b8080601f0160208091040260200160405190810160405280939291908181526020018383808284375f92018290525093945061138d9250889150879050611922565b90505f611398611020565b6001600160a01b0386165f908152600f82016020526040902080549192509060ff16156113d8576040516315831bc360e11b815260040160405180910390fd5b5f5f6113e688888888611944565b915091506040518060a001604052806001151581526020018c63ffffffff1681526020018d6001600160a01b03168152602001836001600160a01b03168152602001826001600160a01b031681525084600f015f8a6001600160a01b03166001600160a01b031681526020019081526020015f205f820151815f015f6101000a81548160ff0219169083151502179055506020820151815f0160016101000a81548163ffffffff021916908363ffffffff1602179055506040820151815f0160056101000a8154816001600160a01b0302191690836001600160a01b031602179055506060820151816001015f6101000a8154816001600160a01b0302191690836001600160a01b031602179055506080820151816002015f6101000a8154816001600160a01b0302191690836001600160a01b03160217905550905050806001600160a01b03168b63ffffffff168d6001600160a01b03167fe1a16e3fc0038293228026318190df7744711243a9fd989164050a4e5815783c8b866040516115859291906001600160a01b0392831681529116602082015260400190565b60405180910390a4505050505050505050505050565b5f610d9d836001600160a01b038416611a03565b5f610d9d836001600160a01b038416611a4f565b5f610d9d8383611b29565b60605f610d9d83611b4f565b5f6115e3611ba8565b80545f906115fa9067ffffffffffffffff1661216d565b91906101000a81548167ffffffffffffffff021916908367ffffffffffffffff1602179055905090565b5f6104c8825490565b604080516001600160a01b0385811660248301528416604482015260648082018490528251808303909101815260849091019091526020810180516001600160e01b03166323b872dd60e01b179052610604908590611bd5565b6116918282610c97565b6105c45760405163e2517d3f60e01b81526001600160a01b0382166004820152602481018390526044016107bc565b5f5f516020614bd75f395f51905f526116d98484610c97565b611758575f848152602082815260408083206001600160a01b03871684529091529020805460ff1916600117905561170e3390565b6001600160a01b0316836001600160a01b0316857f2f8788117e7eff1d82e926ec794901d17c78024a50270940304540a733656f0d60405160405180910390a460019150506104c8565b5f9150506104c8565b5092915050565b5f5f516020614bd75f395f51905f526117818484610c97565b15611758575f848152602082815260408083206001600160a01b0387168085529252808320805460ff1916905551339287917ff6391f5c32d9c69d2a47ea670b442974b53935d1edc7fd64eb21e047a839171b9190a460019150506104c8565b5f84846117ee85856112c6565b6117f88686611c41565b60405160200161180b9493929190612199565b604051602081830303815290604052805190602001209050949350505050565b5f611834611ba8565b5f838152600182016020526040902054909150829060ff161561186d57604051637696bdd560e11b81526004016107bc91815260200190565b505f91825260019081016020526040909120805460ff19169091179055565b5f610d9d61189e603060108587612110565b6118a7916121e8565b611229565b365f806118bd603160308688612110565b6118c691612205565b60f81c9050846031856118d9848361223b565b60ff16926118e993929190612110565b92509250509250929050565b365f80611906607260718688612110565b61190f91612205565b60f81c9050846072856118d9848361223b565b5f611931609360928486612110565b61193a91612205565b60f81c9392505050565b5f5f3085604051602001611958919061226b565b604051602081830303815290604052856040516020016119789190612289565b6040516020818303038152906040528560405161199490611c63565b6119a1949392919061229e565b604051809103905ff0801580156119ba573d5f5f3e3d5ffd5b5091503086838787876040516119cf90611c70565b6119de969594939291906122e8565b604051809103905ff0801580156119f7573d5f5f3e3d5ffd5b50905094509492505050565b5f818152600183016020526040812054611a4857508154600181810184555f8481526020808220909301849055845484825282860190935260409020919091556104c8565b505f6104c8565b5f8181526001830160205260408120548015611758575f611a716001836120fd565b85549091505f90611a84906001906120fd565b9050808214611ae3575f865f018281548110611aa257611aa2612344565b905f5260205f200154905080875f018481548110611ac257611ac2612344565b5f918252602080832090910192909255918252600188019052604090208390555b8554869080611af457611af4612358565b600190038181905f5260205f20015f90559055856001015f8681526020019081526020015f205f9055600193505050506104c8565b5f825f018281548110611b3e57611b3e612344565b905f5260205f200154905092915050565b6060815f01805480602002602001604051908101604052809291908181526020018280548015611b9c57602002820191905f5260205f20905b815481526020019060010190808311611b88575b50505050509050919050565b5f806104c860017f5bb7656ef24c73b7e8f5713e1e3451eff01777c4d0b1e46eb4b823c11d8aa1516120fd565b5f5f60205f8451602086015f885af180611bf4576040513d5f823e3d81fd5b50505f513d91508115611c0b578060011415611c18565b6001600160a01b0384163b155b1561060457604051635274afe760e01b81526001600160a01b03851660048201526024016107bc565b5f611c50601060088486612110565b611c5991612137565b60c01c9392505050565b610d208061236d83390190565b611b0a8061308d83390190565b5f60208284031215611c8d575f5ffd5b81356001600160e01b031981168114610d9d575f5ffd5b6001600160a01b03811681146111ab575f5ffd5b5f60208284031215611cc8575f5ffd5b8135610d9d81611ca4565b5f5f60408385031215611ce4575f5ffd5b8235611cef81611ca4565b946020939093013593505050565b5f60208284031215611d0d575f5ffd5b5035919050565b5f5f60408385031215611d25575f5ffd5b823591506020830135611d3781611ca4565b809150509250929050565b5f81518084528060208401602086015e5f602082860101526020601f19601f83011685010191505092915050565b602080825282516001600160a01b0316828201528201516040808301525f90610c8f6060840182611d42565b803563ffffffff81168114611daf575f5ffd5b919050565b5f5f5f5f60608587031215611dc7575f5ffd5b611dd085611d9c565b935060208501359250604085013567ffffffffffffffff811115611df2575f5ffd5b8501601f81018713611e02575f5ffd5b803567ffffffffffffffff811115611e18575f5ffd5b876020828401011115611e29575f5ffd5b949793965060200194505050565b5f5f5f60608486031215611e49575f5ffd5b8335611e5481611ca4565b925060208401358015158114611e68575f5ffd5b9150611e7660408501611d9c565b90509250925092565b5f5f60408385031215611e90575f5ffd5b50508035926020909101359150565b602080825282518282018190525f918401906040840190835b81811015611edf5783516001600160a01b0316835260209384019390920191600101611eb8565b509095945050505050565b5f5f5f5f60808587031215611efd575f5ffd5b8435611f0881611ca4565b93506020850135611f1881611ca4565b93969395505050506040820135916060013590565b600181811c90821680611f4157607f821691505b602082108103611f5f57634e487b7160e01b5f52602260045260245ffd5b50919050565b634e487b7160e01b5f52604160045260245ffd5b601f8211156105c257805f5260205f20601f840160051c81016020851015611f9e5750805b601f840160051c820191505b81811015610add575f8155600101611faa565b815167ffffffffffffffff811115611fd757611fd7611f65565b611feb81611fe58454611f2d565b84611f79565b6020601f82116001811461201d575f83156120065750848201515b5f19600385901b1c1916600184901b178455610add565b5f84815260208120601f198516915b8281101561204c578785015182556020948501946001909201910161202c565b508482101561206957868401515f19600387901b60f8161c191681555b50505050600190811b01905550565b81835281816020850137505f828201602090810191909152601f909101601f19169091010190565b838152604060208201525f6120b9604083018486612078565b95945050505050565b634e487b7160e01b5f52602160045260245ffd5b602081525f610c8f602083018486612078565b634e487b7160e01b5f52601160045260245ffd5b818103818111156104c8576104c86120e9565b5f5f8585111561211e575f5ffd5b8386111561212a575f5ffd5b5050820193919092039150565b80356001600160c01b03198116906008841015611761576001600160c01b031960089490940360031b84901b1690921692915050565b5f67ffffffffffffffff821667ffffffffffffffff8103612190576121906120e9565b60010192915050565b63ffffffff851681526020810184905260808101600484106121c957634e487b7160e01b5f52602160045260245ffd5b83604083015267ffffffffffffffff8316606083015295945050505050565b803560208310156104c8575f19602084900360031b1b1692915050565b80356001600160f81b03198116906001841015611761576001600160f81b031960019490940360031b84901b1690921692915050565b60ff81811683821601908111156104c8576104c86120e9565b5f81518060208401855e5f93019283525090919050565b690283934b731b4b830b6160b51b81525f610d9d600a830184612254565b600760fc1b81525f610d9d6001830184612254565b6001600160a01b03851681526080602082018190525f906122c190830186611d42565b82810360408401526122d38186611d42565b91505060ff8316606083015295945050505050565b6001600160a01b03878116825286811660208301528516604082015260c0606082018190525f9061231b90830186611d42565b828103608084015261232d8186611d42565b91505060ff831660a0830152979650505050505050565b634e487b7160e01b5f52603260045260245ffd5b634e487b7160e01b5f52603160045260245ffdfe60a060405234801561000f575f5ffd5b50604051610d20380380610d2083398101604081905261002e9161019d565b8282856001600160a01b03811661005e57604051631e4fbdf760e01b81525f600482015260240160405180910390fd5b610067816100b1565b50600461007483826102bb565b50600561008182826102bb565b50505060ff166080525050600680546001600160a01b0319166001600160a01b0392909216919091179055610375565b5f80546001600160a01b038381166001600160a01b0319831681178455604051919092169283917f8be0079c531659141344cd1fd0a4f28419497f9722a3daafe3b4186f6b6457e09190a35050565b634e487b7160e01b5f52604160045260245ffd5b5f82601f830112610123575f5ffd5b81516001600160401b0381111561013c5761013c610100565b604051601f8201601f19908116603f011681016001600160401b038111828210171561016a5761016a610100565b604052818152838201602001851015610181575f5ffd5b8160208501602083015e5f918101602001919091529392505050565b5f5f5f5f608085870312156101b0575f5ffd5b84516001600160a01b03811681146101c6575f5ffd5b60208601519094506001600160401b038111156101e1575f5ffd5b6101ed87828801610114565b604087015190945090506001600160401b0381111561020a575f5ffd5b61021687828801610114565b925050606085015160ff8116811461022c575f5ffd5b939692955090935050565b600181811c9082168061024b57607f821691505b60208210810361026957634e487b7160e01b5f52602260045260245ffd5b50919050565b601f8211156102b657805f5260205f20601f840160051c810160208510156102945750805b601f840160051c820191505b818110156102b3575f81556001016102a0565b50505b505050565b81516001600160401b038111156102d4576102d4610100565b6102e8816102e28454610237565b8461026f565b6020601f82116001811461031a575f83156103035750848201515b5f19600385901b1c1916600184901b1784556102b3565b5f84815260208120601f198516915b828110156103495787850151825560209485019460019092019101610329565b508482101561036657868401515f19600387901b60f8161c191681555b50505050600190811b01905550565b60805161099361038d5f395f61016c01526109935ff3fe608060405234801561000f575f5ffd5b50600436106100fb575f3560e01c806370a082311161009357806395d89b411161006357806395d89b411461023c578063a9059cbb14610244578063dd62ed3e14610257578063f2fde38b1461028f575f5ffd5b806370a08231146101e9578063715018a61461021157806379cc6790146102195780638da5cb5b1461022c575f5ffd5b8063313ce567116100ce578063313ce5671461016557806340c10f191461019657806342966c68146101ab5780636da8f3c5146101be575f5ffd5b806306fdde03146100ff578063095ea7b31461011d57806318160ddd1461014057806323b872dd14610152575b5f5ffd5b6101076102a2565b60405161011491906107ec565b60405180910390f35b61013061012b36600461083c565b610332565b6040519015158152602001610114565b6003545b604051908152602001610114565b610130610160366004610864565b61034b565b60405160ff7f0000000000000000000000000000000000000000000000000000000000000000168152602001610114565b6101a96101a436600461083c565b61036e565b005b6101a96101b936600461089e565b610384565b6006546101d1906001600160a01b031681565b6040516001600160a01b039091168152602001610114565b6101446101f73660046108b5565b6001600160a01b03165f9081526001602052604090205490565b6101a9610391565b6101a961022736600461083c565b6103b5565b5f546001600160a01b03166101d1565b6101076103ca565b61013061025236600461083c565b6103d9565b6101446102653660046108d5565b6001600160a01b039182165f90815260026020908152604080832093909416825291909152205490565b6101a961029d3660046108b5565b6103e6565b6060600480546102b190610906565b80601f01602080910402602001604051908101604052809291908181526020018280546102dd90610906565b80156103285780601f106102ff57610100808354040283529160200191610328565b820191905f5260205f20905b81548152906001019060200180831161030b57829003601f168201915b5050505050905090565b5f3361033f818585610425565b60019150505b92915050565b5f33610358858285610437565b6103638585856104b2565b506001949350505050565b61037661050f565b610380828261053d565b5050565b61038e3382610571565b50565b61039961050f565b6040516001623f026d60e01b0319815260040160405180910390fd5b6103c0823383610437565b6103808282610571565b6060600580546102b190610906565b5f3361033f8185856104b2565b6103ee61050f565b6001600160a01b03811661041c57604051631e4fbdf760e01b81525f60048201526024015b60405180910390fd5b61038e816105a5565b61043283838360016105f4565b505050565b6001600160a01b038381165f908152600260209081526040808320938616835292905220545f1981146104ac578181101561049e57604051637dc7a0d960e11b81526001600160a01b03841660048201526024810182905260448101839052606401610413565b6104ac84848484035f6105f4565b50505050565b6001600160a01b0383166104db57604051634b637e8f60e11b81525f6004820152602401610413565b6001600160a01b0382166105045760405163ec442f0560e01b81525f6004820152602401610413565b6104328383836106c6565b5f546001600160a01b0316331461053b5760405163118cdaa760e01b8152336004820152602401610413565b565b6001600160a01b0382166105665760405163ec442f0560e01b81525f6004820152602401610413565b6103805f83836106c6565b6001600160a01b03821661059a57604051634b637e8f60e11b81525f6004820152602401610413565b610380825f836106c6565b5f80546001600160a01b038381166001600160a01b0319831681178455604051919092169283917f8be0079c531659141344cd1fd0a4f28419497f9722a3daafe3b4186f6b6457e09190a35050565b6001600160a01b03841661061d5760405163e602df0560e01b81525f6004820152602401610413565b6001600160a01b03831661064657604051634a1406b160e11b81525f6004820152602401610413565b6001600160a01b038085165f90815260026020908152604080832093871683529290522082905580156104ac57826001600160a01b0316846001600160a01b03167f8c5be1e5ebec7d5bd14f71427d1e84f3dd0314c0f7b2291e5b200ac8c7c3b925846040516106b891815260200190565b60405180910390a350505050565b6001600160a01b0383166106f0578060035f8282546106e5919061093e565b909155506107609050565b6001600160a01b0383165f90815260016020526040902054818110156107425760405163391434e360e21b81526001600160a01b03851660048201526024810182905260448101839052606401610413565b6001600160a01b0384165f9081526001602052604090209082900390555b6001600160a01b03821661077c5760038054829003905561079a565b6001600160a01b0382165f9081526001602052604090208054820190555b816001600160a01b0316836001600160a01b03167fddf252ad1be2c89b69c2b068fc378daa952ba7f163c4a11628f55a4df523b3ef836040516107df91815260200190565b60405180910390a3505050565b602081525f82518060208401528060208501604085015e5f604082850101526040601f19601f83011684010191505092915050565b80356001600160a01b0381168114610837575f5ffd5b919050565b5f5f6040838503121561084d575f5ffd5b61085683610821565b946020939093013593505050565b5f5f5f60608486031215610876575f5ffd5b61087f84610821565b925061088d60208501610821565b929592945050506040919091013590565b5f602082840312156108ae575f5ffd5b5035919050565b5f602082840312156108c5575f5ffd5b6108ce82610821565b9392505050565b5f5f604083850312156108e6575f5ffd5b6108ef83610821565b91506108fd60208401610821565b90509250929050565b600181811c9082168061091a57607f821691505b60208210810361093857634e487b7160e01b5f52602260045260245ffd5b50919050565b8082018082111561034557634e487b7160e01b5f52601160045260245ffdfea2646970667358221220a07d44da66e4430ab3704d095668375fb547f313c23ab38fcf57e255f8e7420564736f6c634300081b0033610100604052348015610010575f5ffd5b50604051611b0a380380611b0a83398101604081905261002f91610314565b85848484600361003f838261044e565b50600461004c828261044e565b5050505f5f6100608361012060201b60201c565b9150915081610070576012610072565b805b60ff1660a05250506001600160a01b0390811660805281166100ad57604051631e4fbdf760e01b81525f600482015260240160405180910390fd5b6100b6816101f6565b506001600160a01b0384166100de5760405163d92e233d60e01b815260040160405180910390fd5b6001600160a01b0385166101055760405163d92e233d60e01b815260040160405180910390fd5b60ff1660c0525050506001600160a01b031660e05250610535565b60408051600481526024810182526020810180516001600160e01b031663313ce56760e01b17905290515f918291829182916001600160a01b0387169161016691610508565b5f60405180830381855afa9150503d805f811461019e576040519150601f19603f3d011682016040523d82523d5f602084013e6101a3565b606091505b50915091508180156101b757506020815110155b156101ea575f818060200190518101906101d1919061051e565b905060ff81116101e8576001969095509350505050565b505b505f9485945092505050565b600680546001600160a01b031916905561020f81610212565b50565b600580546001600160a01b038381166001600160a01b0319831681179093556040519116919082907f8be0079c531659141344cd1fd0a4f28419497f9722a3daafe3b4186f6b6457e0905f90a35050565b6001600160a01b038116811461020f575f5ffd5b634e487b7160e01b5f52604160045260245ffd5b5f82601f83011261029a575f5ffd5b81516001600160401b038111156102b3576102b3610277565b604051601f8201601f19908116603f011681016001600160401b03811182821017156102e1576102e1610277565b6040528181528382016020018510156102f8575f5ffd5b8160208501602083015e5f918101602001919091529392505050565b5f5f5f5f5f5f60c08789031215610329575f5ffd5b865161033481610263565b602088015190965061034581610263565b604088015190955061035681610263565b60608801519094506001600160401b03811115610371575f5ffd5b61037d89828a0161028b565b608089015190945090506001600160401b0381111561039a575f5ffd5b6103a689828a0161028b565b92505060a087015160ff811681146103bc575f5ffd5b809150509295509295509295565b600181811c908216806103de57607f821691505b6020821081036103fc57634e487b7160e01b5f52602260045260245ffd5b50919050565b601f82111561044957805f5260205f20601f840160051c810160208510156104275750805b601f840160051c820191505b81811015610446575f8155600101610433565b50505b505050565b81516001600160401b0381111561046757610467610277565b61047b8161047584546103ca565b84610402565b6020601f8211600181146104ad575f83156104965750848201515b5f19600385901b1c1916600184901b178455610446565b5f84815260208120601f198516915b828110156104dc57878501518255602094850194600190920191016104bc565b50848210156104f957868401515f19600387901b60f8161c191681555b50505050600190811b01905550565b5f82518060208501845e5f920191825250919050565b5f6020828403121561052e575f5ffd5b5051919050565b60805160a05160c05160e05161159061057a5f395f61028401525f6102d801525f50505f8181610304015281816104ad0152818161087f0152610e2801526115905ff3fe608060405234801561000f575f5ffd5b50600436106101e7575f3560e01c806379ba509711610109578063c63d75b61161009e578063dd62ed3e1161006e578063dd62ed3e1461043a578063e30c397814610472578063ef8b30f714610401578063f2fde38b14610483575f5ffd5b8063c63d75b614610328578063c6e6f59214610401578063ce96cb7714610414578063d905777e14610427575f5ffd5b8063a9059cbb116100d9578063a9059cbb146103b5578063b3d7f6b9146103c8578063b460af94146103db578063ba087652146103ee575f5ffd5b806379ba5097146103815780638da5cb5b1461038957806394bf804d1461039a57806395d89b41146103ad575f5ffd5b806323b872dd1161017f5780634cdad5061161014f5780634cdad5061461022e5780636e553f651461033c57806370a082311461034f578063715018a614610377575f5ffd5b806323b872dd146102be578063313ce567146102d157806338d52e0f14610302578063402d267d14610328575f5ffd5b8063095ea7b3116101ba578063095ea7b3146102415780630a28a4771461026457806318160ddd14610277578063185025ef1461027f575f5ffd5b806301e1d114146101eb57806303ba65591461020657806306fdde031461021957806307a2d13a1461022e575b5f5ffd5b6101f3610496565b6040519081526020015b60405180910390f35b6101f36102143660046111e1565b610523565b61022161058b565b6040516101fd919061122b565b6101f361023c366004611260565b61061b565b61025461024f366004611277565b61062c565b60405190151581526020016101fd565b6101f3610272366004611260565b610643565b6002546101f3565b6102a67f000000000000000000000000000000000000000000000000000000000000000081565b6040516001600160a01b0390911681526020016101fd565b6102546102cc36600461129f565b61064f565b60405160ff7f00000000000000000000000000000000000000000000000000000000000000001681526020016101fd565b7f00000000000000000000000000000000000000000000000000000000000000006102a6565b6101f36103363660046112d9565b505f1990565b6101f361034a3660046112f2565b610674565b6101f361035d3660046112d9565b6001600160a01b03165f9081526020819052604090205490565b61037f610687565b005b61037f6106ab565b6005546001600160a01b03166102a6565b6101f36103a83660046112f2565b6106ef565b610221610702565b6102546103c3366004611277565b610711565b6101f36103d6366004611260565b61071e565b6101f36103e936600461131c565b61072a565b6101f36103fc36600461131c565b610746565b6101f361040f366004611260565b61075a565b6101f36104223660046112d9565b610765565b6101f36104353660046112d9565b610787565b6101f3610448366004611355565b6001600160a01b039182165f90815260016020908152604080832093909416825291909152205490565b6006546001600160a01b03166102a6565b61037f6104913660046112d9565b6107a4565b6040516370a0823160e01b81523060048201525f907f00000000000000000000000000000000000000000000000000000000000000006001600160a01b0316906370a0823190602401602060405180830381865afa1580156104fa573d5f5f3e3d5ffd5b505050506040513d601f19601f8201168201806040525081019061051e919061137d565b905090565b5f61052c610815565b5f61053683610787565b90508086111561056857828682604051632e52afbb60e21b815260040161055f93929190611394565b60405180910390fd5b5f6105728761061b565b9050610581868686848b610844565b9695505050505050565b60606003805461059a906113b5565b80601f01602080910402602001604051908101604052809291908181526020018280546105c6906113b5565b80156106115780601f106105e857610100808354040283529160200191610611565b820191905f5260205f20905b8154815290600101906020018083116105f457829003601f168201915b5050505050905090565b5f610626825f61090d565b92915050565b5f33610639818585610945565b5060019392505050565b5f610626826001610957565b5f3361065c858285610986565b6106678585856109ee565b60019150505b9392505050565b5f61067d610815565b61066d8383610a4b565b61068f610815565b6040516001623f026d60e01b0319815260040160405180910390fd5b60065433906001600160a01b031681146106e35760405163118cdaa760e01b81526001600160a01b038216600482015260240161055f565b6106ec81610a66565b50565b5f6106f8610815565b61066d8383610a7f565b60606004805461059a906113b5565b5f336106398185856109ee565b5f61062682600161090d565b5f610733610815565b61073e848484610a9a565b949350505050565b5f61074f610815565b61073e848484610af0565b5f610626825f610957565b6001600160a01b0381165f90815260208190526040812054610626905f61090d565b6001600160a01b0381165f90815260208190526040812054610626565b6107ac610815565b600680546001600160a01b0383166001600160a01b031990911681179091556107dd6005546001600160a01b031690565b6001600160a01b03167f38d16b8cac22d99fc7c124b9cd0de2d3fa1faef420bfe791d8c362d765e2270060405160405180910390a350565b6005546001600160a01b031633146108425760405163118cdaa760e01b815233600482015260240161055f565b565b826001600160a01b0316856001600160a01b03161461086857610868838683610986565b6108728382610b3d565b6108a66001600160a01b037f0000000000000000000000000000000000000000000000000000000000000000168584610b75565b826001600160a01b0316846001600160a01b0316866001600160a01b03167ffbde797d201c681b91056529119e0b02407c7bb96a4a2c75c01fc9667232c8db85856040516108fe929190918252602082015260400190565b60405180910390a45050505050565b5f61066d610919610496565b610924906001611401565b61092f5f600a6114f7565b60025461093c9190611401565b85919085610bfc565b6109528383836001610c3e565b505050565b5f61066d61096682600a6114f7565b6002546109739190611401565b61097b610496565b61093c906001611401565b6001600160a01b038381165f908152600160209081526040808320938616835292905220545f1981146109e857818110156109da57828183604051637dc7a0d960e11b815260040161055f93929190611394565b6109e884848484035f610c3e565b50505050565b6001600160a01b038316610a1757604051634b637e8f60e11b81525f600482015260240161055f565b6001600160a01b038216610a405760405163ec442f0560e01b81525f600482015260240161055f565b610952838383610d10565b5f5f195f610a588561075a565b905061073e33858784610e23565b600680546001600160a01b03191690556106ec81610ea7565b5f5f195f610a8c8561071e565b905061073e33858388610e23565b5f5f610aa583610765565b905080851115610ace57828582604051633fa733bb60e21b815260040161055f93929190611394565b5f610ad886610643565b9050610ae73386868985610844565b95945050505050565b5f5f610afb83610787565b905080851115610b2457828582604051632e52afbb60e21b815260040161055f93929190611394565b5f610b2e8661061b565b9050610ae7338686848a610844565b6001600160a01b038216610b6657604051634b637e8f60e11b81525f600482015260240161055f565b610b71825f83610d10565b5050565b604051636eb1769f60e11b81523060048201526001600160a01b0383811660248301525f919085169063dd62ed3e90604401602060405180830381865afa158015610bc2573d5f5f3e3d5ffd5b505050506040513d601f19601f82011682018060405250810190610be6919061137d565b90506109e88484610bf78585611401565b610ef8565b5f610c29610c0983610fb5565b8015610c2457505f8480610c1f57610c1f611505565b868809115b151590565b610c34868686610fe1565b610ae79190611401565b6001600160a01b038416610c675760405163e602df0560e01b81525f600482015260240161055f565b6001600160a01b038316610c9057604051634a1406b160e11b81525f600482015260240161055f565b6001600160a01b038085165f90815260016020908152604080832093871683529290522082905580156109e857826001600160a01b0316846001600160a01b03167f8c5be1e5ebec7d5bd14f71427d1e84f3dd0314c0f7b2291e5b200ac8c7c3b92584604051610d0291815260200190565b60405180910390a350505050565b6001600160a01b038316610d3a578060025f828254610d2f9190611401565b90915550610d979050565b6001600160a01b0383165f9081526020819052604090205481811015610d795783818360405163391434e360e21b815260040161055f93929190611394565b6001600160a01b0384165f9081526020819052604090209082900390555b6001600160a01b038216610db357600280548290039055610dd1565b6001600160a01b0382165f9081526020819052604090208054820190555b816001600160a01b0316836001600160a01b03167fddf252ad1be2c89b69c2b068fc378daa952ba7f163c4a11628f55a4df523b3ef83604051610e1691815260200190565b60405180910390a3505050565b610e4f7f0000000000000000000000000000000000000000000000000000000000000000853085611097565b610e5983826110d0565b826001600160a01b0316846001600160a01b03167fdcbc1c05240f31ff3ad067ef1ee35ce4997762752e3a095284754544f4c709d78484604051610d02929190918252602082015260400190565b600580546001600160a01b038381166001600160a01b0319831681179093556040519116919082907f8be0079c531659141344cd1fd0a4f28419497f9722a3daafe3b4186f6b6457e0905f90a35050565b604080516001600160a01b038416602482015260448082018490528251808303909101815260649091019091526020810180516001600160e01b031663095ea7b360e01b179052610f498482611104565b6109e8576040516001600160a01b0384811660248301525f6044830152610fab91869182169063095ea7b3906064015b604051602081830303815290604052915060e01b6020820180516001600160e01b038381831617835250505050611149565b6109e88482611149565b5f6002826003811115610fca57610fca611519565b610fd4919061152d565b60ff166001149050919050565b5f838302815f1985870982811083820303915050805f036110155783828161100b5761100b611505565b049250505061066d565b80841161102c5761102c60038515026011186111b5565b5f848688095f868103871696879004966002600389028118808a02820302808a02820302808a02820302808a02820302808a02820302808a02909103029181900381900460010186841190950394909402919094039290920491909117919091029150509392505050565b6040516001600160a01b0384811660248301528381166044830152606482018390526109e89186918216906323b872dd90608401610f79565b6001600160a01b0382166110f95760405163ec442f0560e01b81525f600482015260240161055f565b610b715f8383610d10565b5f5f5f5f60205f8651602088015f8a5af192503d91505f519050828015610581575081156111355780600114610581565b50505050506001600160a01b03163b151590565b5f5f60205f8451602086015f885af180611168576040513d5f823e3d81fd5b50505f513d9150811561117f57806001141561118c565b6001600160a01b0384163b155b156109e857604051635274afe760e01b81526001600160a01b038516600482015260240161055f565b634e487b715f52806020526024601cfd5b80356001600160a01b03811681146111dc575f5ffd5b919050565b5f5f5f5f608085870312156111f4575f5ffd5b84359350611204602086016111c6565b9250611212604086016111c6565b9150611220606086016111c6565b905092959194509250565b602081525f82518060208401528060208501604085015e5f604082850101526040601f19601f83011684010191505092915050565b5f60208284031215611270575f5ffd5b5035919050565b5f5f60408385031215611288575f5ffd5b611291836111c6565b946020939093013593505050565b5f5f5f606084860312156112b1575f5ffd5b6112ba846111c6565b92506112c8602085016111c6565b929592945050506040919091013590565b5f602082840312156112e9575f5ffd5b61066d826111c6565b5f5f60408385031215611303575f5ffd5b82359150611313602084016111c6565b90509250929050565b5f5f5f6060848603121561132e575f5ffd5b8335925061133e602085016111c6565b915061134c604085016111c6565b90509250925092565b5f5f60408385031215611366575f5ffd5b61136f836111c6565b9150611313602084016111c6565b5f6020828403121561138d575f5ffd5b5051919050565b6001600160a01b039390931683526020830191909152604082015260600190565b600181811c908216806113c957607f821691505b6020821081036113e757634e487b7160e01b5f52602260045260245ffd5b50919050565b634e487b7160e01b5f52601160045260245ffd5b80820180821115610626576106266113ed565b6001815b600184111561144f57808504811115611433576114336113ed565b600184161561144157908102905b60019390931c928002611418565b935093915050565b5f8261146557506001610626565b8161147157505f610626565b81600181146114875760028114611491576114ad565b6001915050610626565b60ff8411156114a2576114a26113ed565b50506001821b610626565b5060208310610133831016604e8410600b84101617156114d0575081810a610626565b6114dc5f198484611414565b805f19048211156114ef576114ef6113ed565b029392505050565b5f61066d60ff841683611457565b634e487b7160e01b5f52601260045260245ffd5b634e487b7160e01b5f52602160045260245ffd5b5f60ff83168061154b57634e487b7160e01b5f52601260045260245ffd5b8060ff8416069150509291505056fea2646970667358221220f98f4362881f1192ec0bbb1e6ecb58e419620e669299e6c79ef814cbf4e5ffe764736f6c634300081b00331a943f8dfd290b4a9a9d3eb8bcc83fa75fc54a99823be2ef5e377c5d8985ca02c1f6fe24621ce81ec5827caf0253cadb74709b061630e6b55e8237170593200002dd7bc7dec4dceedda775e58dd541e08a116c6c53815c0bd028192f7b626800a2646970667358221220eea19c2a63028f8066b22e5e6558cfc4cfbbf5bad674270b38925fe07360f9f064736f6c634300081b0033",
  "linkReferences": {},
  "deployedLinkReferences": {}
}