{
  "_format": "hh-sol-artifact-1",
  "contractName": "LumiaDiamondAcl",
  "sourceName": "contracts/lumia-diamond/LumiaDiamondAcl.sol",
  "abi": [
    {
      "inputs": [],
      "name": "AccessControlBadConfirmation",
      "type": "error"
    },
    {
      "inputs": [
        {
          "internalType": "address",
          "name": "account",
          "type": "address"
        },
        {
          "internalType": "bytes32",
          "name": "neededRole",
          "type": "bytes32"
        }
      ],
      "name": "AccessControlUnauthorizedAccount",
      "type": "error"
    },
    {
      "inputs": [],
      "name": "InvalidInitialization",
      "type": "error"
    },
    {
      "inputs": [
        {
          "internalType": "address",
          "name": "from",
          "type": "address"
        }
      ],
      "name": "NotFromMailbox",
      "type": "error"
    },
    {
      "inputs": [],
      "name": "NotInitializing",
      "type": "error"
    },
    {
      "inputs": [],
      "name": "OnlyDiamondInternal",
      "type": "error"
    },
    {
      "inputs": [],
      "name": "OnlyLumiaFactoryManager",
      "type": "error"
    },
    {
      "anonymous": false,
      "inputs": [
        {
          "indexed": false,
          "internalType": "uint64",
          "name": "version",
          "type": "uint64"
        }
      ],
      "name": "Initialized",
      "type": "event"
    },
    {
      "anonymous": false,
      "inputs": [
        {
          "indexed": true,
          "internalType": "bytes32",
          "name": "role",
          "type": "bytes32"
        },
        {
          "indexed": true,
          "internalType": "bytes32",
          "name": "previousAdminRole",
          "type": "bytes32"
        },
        {
          "indexed": true,
          "internalType": "bytes32",
          "name": "newAdminRole",
          "type": "bytes32"
        }
      ],
      "name": "RoleAdminChanged",
      "type": "event"
    },
    {
      "anonymous": false,
      "inputs": [
        {
          "indexed": true,
          "internalType": "bytes32",
          "name": "role",
          "type": "bytes32"
        },
        {
          "indexed": true,
          "internalType": "address",
          "name": "account",
          "type": "address"
        },
        {
          "indexed": true,
          "internalType": "address",
          "name": "sender",
          "type": "address"
        }
      ],
      "name": "RoleGranted",
      "type": "event"
    },
    {
      "anonymous": false,
      "inputs": [
        {
          "indexed": true,
          "internalType": "bytes32",
          "name": "role",
          "type": "bytes32"
        },
        {
          "indexed": true,
          "internalType": "address",
          "name": "account",
          "type": "address"
        },
        {
          "indexed": true,
          "internalType": "address",
          "name": "sender",
          "type": "address"
        }
      ],
      "name": "RoleRevoked",
      "type": "event"
    },
    {
      "inputs": [],
      "name": "DEFAULT_ADMIN_ROLE",
      "outputs": [
        {
          "internalType": "bytes32",
          "name": "",
          "type": "bytes32"
        }
      ],
      "stateMutability": "view",
      "type": "function"
    },
    {
      "inputs": [],
      "name": "LUMIA_FACTORY_MANAGER_ROLE",
      "outputs": [
        {
          "internalType": "bytes32",
          "name": "",
          "type": "bytes32"
        }
      ],
      "stateMutability": "view",
      "type": "function"
    },
    {
      "inputs": [
        {
          "internalType": "bytes32",
          "name": "role",
          "type": "bytes32"
        }
      ],
      "name": "getRoleAdmin",
      "outputs": [
        {
          "internalType": "bytes32",
          "name": "",
          "type": "bytes32"
        }
      ],
      "stateMutability": "view",
      "type": "function"
    },
    {
      "inputs": [
        {
          "internalType": "bytes32",
          "name": "role",
          "type": "bytes32"
        },
        {
          "internalType": "uint256",
          "name": "index",
          "type": "uint256"
        }
      ],
      "name": "getRoleMember",
      "outputs": [
        {
          "internalType": "address",
          "name": "",
          "type": "address"
        }
      ],
      "stateMutability": "view",
      "type": "function"
    },
    {
      "inputs": [
        {
          "internalType": "bytes32",
          "name": "role",
          "type": "bytes32"
        }
      ],
      "name": "getRoleMemberCount",
      "outputs": [
        {
          "internalType": "uint256",
          "name": "",
          "type": "uint256"
        }
      ],
      "stateMutability": "view",
      "type": "function"
    },
    {
      "inputs": [
        {
          "internalType": "bytes32",
          "name": "role",
          "type": "bytes32"
        }
      ],
      "name": "getRoleMembers",
      "outputs": [
        {
          "internalType": "address[]",
          "name": "",
          "type": "address[]"
        }
      ],
      "stateMutability": "view",
      "type": "function"
    },
    {
      "inputs": [
        {
          "internalType": "bytes32",
          "name": "role",
          "type": "bytes32"
        },
        {
          "internalType": "address",
          "name": "account",
          "type": "address"
        }
      ],
      "name": "grantRole",
      "outputs": [],
      "stateMutability": "nonpayable",
      "type": "function"
    },
    {
      "inputs": [
        {
          "internalType": "bytes32",
          "name": "role",
          "type": "bytes32"
        },
        {
          "internalType": "address",
          "name": "account",
          "type": "address"
        }
      ],
      "name": "hasRole",
      "outputs": [
        {
          "internalType": "bool",
          "name": "",
          "type": "bool"
        }
      ],
      "stateMutability": "view",
      "type": "function"
    },
    {
      "inputs": [
        {
          "internalType": "bytes32",
          "name": "role",
          "type": "bytes32"
        },
        {
          "internalType": "address",
          "name": "callerConfirmation",
          "type": "address"
        }
      ],
      "name": "renounceRole",
      "outputs": [],
      "stateMutability": "nonpayable",
      "type": "function"
    },
    {
      "inputs": [
        {
          "internalType": "bytes32",
          "name": "role",
          "type": "bytes32"
        },
        {
          "internalType": "address",
          "name": "account",
          "type": "address"
        }
      ],
      "name": "revokeRole",
      "outputs": [],
      "stateMutability": "nonpayable",
      "type": "function"
    },
    {
      "inputs": [
        {
          "internalType": "bytes4",
          "name": "interfaceId",
          "type": "bytes4"
        }
      ],
      "name": "supportsInterface",
      "outputs": [
        {
          "internalType": "bool",
          "name": "",
          "type": "bool"
        }
      ],
      "stateMutability": "view",
      "type": "function"
    }
  ],
  "bytecode": "0x6080604052348015600e575f5ffd5b506108e78061001c5f395ff3fe608060405234801561000f575f5ffd5b50600436106100a6575f3560e01c80639010d07c1161006e5780639010d07c1461014257806391d148541461016d578063a217fddf14610180578063a3246ad314610187578063ca15c873146101a7578063d547741f146101ba575f5ffd5b806301ffc9a7146100aa578063248a9ca3146100d2578063252f3dbf146100f35780632f2ff15d1461011a57806336568abe1461012f575b5f5ffd5b6100bd6100b8366004610748565b6101cd565b60405190151581526020015b60405180910390f35b6100e56100e036600461076f565b6101f7565b6040519081526020016100c9565b6100e57f1a943f8dfd290b4a9a9d3eb8bcc83fa75fc54a99823be2ef5e377c5d8985ca0281565b61012d610128366004610786565b610217565b005b61012d61013d366004610786565b610239565b6101556101503660046107bf565b610271565b6040516001600160a01b0390911681526020016100c9565b6100bd61017b366004610786565b61029e565b6100e55f81565b61019a61019536600461076f565b6102d4565b6040516100c991906107df565b6100e56101b536600461076f565b610304565b61012d6101c8366004610786565b610328565b5f6001600160e01b03198216635a05180f60e01b14806101f157506101f182610344565b92915050565b5f9081525f5160206108925f395f51905f52602052604090206001015490565b610220826101f7565b61022981610378565b6102338383610385565b50505050565b6001600160a01b03811633146102625760405163334bd91960e11b815260040160405180910390fd5b61026c82826103c7565b505050565b5f8281525f5160206108725f395f51905f526020819052604082206102969084610400565b949350505050565b5f9182525f5160206108925f395f51905f52602090815260408084206001600160a01b0393909316845291905290205460ff1690565b5f8181525f5160206108725f395f51905f5260208190526040909120606091906102fd9061040b565b9392505050565b5f8181525f5160206108725f395f51905f526020819052604082206102fd90610417565b610331826101f7565b61033a81610378565b61023383836103c7565b5f6001600160e01b03198216637965db0b60e01b14806101f157506301ffc9a760e01b6001600160e01b03198316146101f1565b6103828133610420565b50565b5f5f5160206108725f395f51905f528161039f8585610461565b90508015610296575f8581526020839052604090206103be9085610502565b50949350505050565b5f5f5160206108725f395f51905f52816103e18585610516565b90508015610296575f8581526020839052604090206103be908561058f565b5f6102fd83836105a3565b60605f6102fd836105c9565b5f6101f1825490565b61042a828261029e565b61045d5760405163e2517d3f60e01b81526001600160a01b03821660048201526024810183905260440160405180910390fd5b5050565b5f5f5160206108925f395f51905f5261047a848461029e565b6104f9575f848152602082815260408083206001600160a01b03871684529091529020805460ff191660011790556104af3390565b6001600160a01b0316836001600160a01b0316857f2f8788117e7eff1d82e926ec794901d17c78024a50270940304540a733656f0d60405160405180910390a460019150506101f1565b5f9150506101f1565b5f6102fd836001600160a01b038416610622565b5f5f5160206108925f395f51905f5261052f848461029e565b156104f9575f848152602082815260408083206001600160a01b0387168085529252808320805460ff1916905551339287917ff6391f5c32d9c69d2a47ea670b442974b53935d1edc7fd64eb21e047a839171b9190a460019150506101f1565b5f6102fd836001600160a01b03841661066e565b5f825f0182815481106105b8576105b861082a565b905f5260205f200154905092915050565b6060815f0180548060200260200160405190810160405280929190818152602001828054801561061657602002820191905f5260205f20905b815481526020019060010190808311610602575b50505050509050919050565b5f81815260018301602052604081205461066757508154600181810184555f8481526020808220909301849055845484825282860190935260409020919091556101f1565b505f6101f1565b5f81815260018301602052604081205480156104f9575f61069060018361083e565b85549091505f906106a39060019061083e565b9050808214610702575f865f0182815481106106c1576106c161082a565b905f5260205f200154905080875f0184815481106106e1576106e161082a565b5f918252602080832090910192909255918252600188019052604090208390555b85548690806107135761071361085d565b600190038181905f5260205f20015f90559055856001015f8681526020019081526020015f205f9055600193505050506101f1565b5f60208284031215610758575f5ffd5b81356001600160e01b0319811681146102fd575f5ffd5b5f6020828403121561077f575f5ffd5b5035919050565b5f5f60408385031215610797575f5ffd5b8235915060208301356001600160a01b03811681146107b4575f5ffd5b809150509250929050565b5f5f604083850312156107d0575f5ffd5b50508035926020909101359150565b602080825282518282018190525f918401906040840190835b8181101561081f5783516001600160a01b03168352602093840193909201916001016107f8565b509095945050505050565b634e487b7160e01b5f52603260045260245ffd5b818103818111156101f157634e487b7160e01b5f52601160045260245ffd5b634e487b7160e01b5f52603160045260245ffdfec1f6fe24621ce81ec5827caf0253cadb74709b061630e6b55e8237170593200002dd7bc7dec4dceedda775e58dd541e08a116c6c53815c0bd028192f7b626800a2646970667358221220c1f8d2f1353cd817a56f66aca73eb65f09cd2db151b8945a6221f0d2cd37443364736f6c634300081b0033",
  "linkReferences": {},
  "deployedLinkReferences": {}
}