{
  "_format": "hh-sol-artifact-1",
  "contractName": "LockboxFacet",
  "sourceName": "contracts/hyperstaking/facets/LockboxFacet.sol",
  "abi": [
    {
      "inputs": [],
      "name": "AccessControlBadConfirmation",
      "type": "error"
    },
    {
      "inputs": [
        {
          "internalType": "address",
          "name": "account",
          "type": "address"
        },
        {
          "internalType": "bytes32",
          "name": "neededRole",
          "type": "bytes32"
        }
      ],
      "name": "AccessControlUnauthorizedAccount",
      "type": "error"
    },
    {
      "inputs": [
        {
          "internalType": "uint32",
          "name": "lumiaDestination",
          "type": "uint32"
        }
      ],
      "name": "BadLumiaDestination",
      "type": "error"
    },
    {
      "inputs": [
        {
          "internalType": "uint32",
          "name": "originDestination",
          "type": "uint32"
        }
      ],
      "name": "BadOriginDestination",
      "type": "error"
    },
    {
      "inputs": [],
      "name": "DispatchUnderpaid",
      "type": "error"
    },
    {
      "inputs": [
        {
          "internalType": "bytes32",
          "name": "msgId",
          "type": "bytes32"
        }
      ],
      "name": "HyperlaneReplay",
      "type": "error"
    },
    {
      "inputs": [],
      "name": "InsufficientValue",
      "type": "error"
    },
    {
      "inputs": [
        {
          "internalType": "address",
          "name": "hook",
          "type": "address"
        }
      ],
      "name": "InvalidHook",
      "type": "error"
    },
    {
      "inputs": [],
      "name": "InvalidInitialization",
      "type": "error"
    },
    {
      "inputs": [
        {
          "internalType": "address",
          "name": "badLumiaFactory",
          "type": "address"
        }
      ],
      "name": "InvalidLumiaFactory",
      "type": "error"
    },
    {
      "inputs": [
        {
          "internalType": "address",
          "name": "badMailbox",
          "type": "address"
        }
      ],
      "name": "InvalidMailbox",
      "type": "error"
    },
    {
      "inputs": [
        {
          "internalType": "address",
          "name": "badVaultToken",
          "type": "address"
        }
      ],
      "name": "InvalidVaultToken",
      "type": "error"
    },
    {
      "inputs": [
        {
          "internalType": "address",
          "name": "",
          "type": "address"
        }
      ],
      "name": "NotAuthorized",
      "type": "error"
    },
    {
      "inputs": [
        {
          "internalType": "address",
          "name": "sender",
          "type": "address"
        }
      ],
      "name": "NotFromLumiaFactory",
      "type": "error"
    },
    {
      "inputs": [
        {
          "internalType": "address",
          "name": "from",
          "type": "address"
        }
      ],
      "name": "NotFromMailbox",
      "type": "error"
    },
    {
      "inputs": [],
      "name": "NotInitializing",
      "type": "error"
    },
    {
      "inputs": [],
      "name": "OnlyDiamondInternal",
      "type": "error"
    },
    {
      "inputs": [],
      "name": "OnlyStakingManager",
      "type": "error"
    },
    {
      "inputs": [],
      "name": "OnlyStrategyManager",
      "type": "error"
    },
    {
      "inputs": [],
      "name": "OnlyStrategyUpgrader",
      "type": "error"
    },
    {
      "inputs": [],
      "name": "OnlyVaultManager",
      "type": "error"
    },
    {
      "inputs": [
        {
          "internalType": "address",
          "name": "",
          "type": "address"
        },
        {
          "internalType": "uint256",
          "name": "applyAfter",
          "type": "uint256"
        }
      ],
      "name": "PendingChangeFailed",
      "type": "error"
    },
    {
      "inputs": [],
      "name": "RefundFailed",
      "type": "error"
    },
    {
      "inputs": [
        {
          "internalType": "address",
          "name": "token",
          "type": "address"
        }
      ],
      "name": "SafeERC20FailedOperation",
      "type": "error"
    },
    {
      "inputs": [],
      "name": "TransferFailed",
      "type": "error"
    },
    {
      "inputs": [],
      "name": "UnsupportedMessage",
      "type": "error"
    },
    {
      "anonymous": false,
      "inputs": [
        {
          "indexed": true,
          "internalType": "uint32",
          "name": "oldDestination",
          "type": "uint32"
        },
        {
          "indexed": true,
          "internalType": "uint32",
          "name": "newDestination",
          "type": "uint32"
        }
      ],
      "name": "DestinationUpdated",
      "type": "event"
    },
    {
      "anonymous": false,
      "inputs": [
        {
          "indexed": false,
          "internalType": "address",
          "name": "hook",
          "type": "address"
        }
      ],
      "name": "HyperlaneHookUpdated",
      "type": "event"
    },
    {
      "anonymous": false,
      "inputs": [
        {
          "indexed": false,
          "internalType": "address",
          "name": "ism",
          "type": "address"
        }
      ],
      "name": "HyperlaneISMUpdated",
      "type": "event"
    },
    {
      "anonymous": false,
      "inputs": [
        {
          "indexed": false,
          "internalType": "uint64",
          "name": "version",
          "type": "uint64"
        }
      ],
      "name": "Initialized",
      "type": "event"
    },
    {
      "anonymous": false,
      "inputs": [
        {
          "indexed": false,
          "internalType": "address",
          "name": "newLumiaFactory",
          "type": "address"
        },
        {
          "indexed": false,
          "internalType": "uint256",
          "name": "applyAfter",
          "type": "uint256"
        }
      ],
      "name": "LumiaFactoryChangeProposed",
      "type": "event"
    },
    {
      "anonymous": false,
      "inputs": [
        {
          "indexed": true,
          "internalType": "address",
          "name": "oldLumiaFactory",
          "type": "address"
        },
        {
          "indexed": true,
          "internalType": "address",
          "name": "newLumiaFactory",
          "type": "address"
        }
      ],
      "name": "LumiaFactoryUpdated",
      "type": "event"
    },
    {
      "anonymous": false,
      "inputs": [
        {
          "indexed": false,
          "internalType": "address",
          "name": "newMailbox",
          "type": "address"
        },
        {
          "indexed": false,
          "internalType": "uint256",
          "name": "applyAfter",
          "type": "uint256"
        }
      ],
      "name": "MailboxChangeProposed",
      "type": "event"
    },
    {
      "anonymous": false,
      "inputs": [
        {
          "indexed": true,
          "internalType": "address",
          "name": "oldMailbox",
          "type": "address"
        },
        {
          "indexed": true,
          "internalType": "address",
          "name": "newMailbox",
          "type": "address"
        }
      ],
      "name": "MailboxUpdated",
      "type": "event"
    },
    {
      "anonymous": false,
      "inputs": [
        {
          "indexed": true,
          "internalType": "uint32",
          "name": "origin",
          "type": "uint32"
        },
        {
          "indexed": true,
          "internalType": "bytes32",
          "name": "sender",
          "type": "bytes32"
        },
        {
          "indexed": false,
          "internalType": "uint256",
          "name": "value",
          "type": "uint256"
        },
        {
          "indexed": false,
          "internalType": "bytes",
          "name": "message",
          "type": "bytes"
        }
      ],
      "name": "ReceivedMessage",
      "type": "event"
    },
    {
      "anonymous": false,
      "inputs": [
        {
          "indexed": true,
          "internalType": "bytes32",
          "name": "role",
          "type": "bytes32"
        },
        {
          "indexed": true,
          "internalType": "bytes32",
          "name": "previousAdminRole",
          "type": "bytes32"
        },
        {
          "indexed": true,
          "internalType": "bytes32",
          "name": "newAdminRole",
          "type": "bytes32"
        }
      ],
      "name": "RoleAdminChanged",
      "type": "event"
    },
    {
      "anonymous": false,
      "inputs": [
        {
          "indexed": true,
          "internalType": "bytes32",
          "name": "role",
          "type": "bytes32"
        },
        {
          "indexed": true,
          "internalType": "address",
          "name": "account",
          "type": "address"
        },
        {
          "indexed": true,
          "internalType": "address",
          "name": "sender",
          "type": "address"
        }
      ],
      "name": "RoleGranted",
      "type": "event"
    },
    {
      "anonymous": false,
      "inputs": [
        {
          "indexed": true,
          "internalType": "bytes32",
          "name": "role",
          "type": "bytes32"
        },
        {
          "indexed": true,
          "internalType": "address",
          "name": "account",
          "type": "address"
        },
        {
          "indexed": true,
          "internalType": "address",
          "name": "sender",
          "type": "address"
        }
      ],
      "name": "RoleRevoked",
      "type": "event"
    },
    {
      "anonymous": false,
      "inputs": [
        {
          "indexed": true,
          "internalType": "address",
          "name": "strategy",
          "type": "address"
        },
        {
          "indexed": true,
          "internalType": "address",
          "name": "user",
          "type": "address"
        },
        {
          "indexed": false,
          "internalType": "uint256",
          "name": "amount",
          "type": "uint256"
        },
        {
          "indexed": false,
          "internalType": "uint256",
          "name": "id",
          "type": "uint256"
        }
      ],
      "name": "StakeRedeemFailed",
      "type": "event"
    },
    {
      "anonymous": false,
      "inputs": [
        {
          "indexed": true,
          "internalType": "address",
          "name": "strategy",
          "type": "address"
        },
        {
          "indexed": true,
          "internalType": "address",
          "name": "user",
          "type": "address"
        },
        {
          "indexed": false,
          "internalType": "uint256",
          "name": "amount",
          "type": "uint256"
        },
        {
          "indexed": false,
          "internalType": "uint256",
          "name": "id",
          "type": "uint256"
        }
      ],
      "name": "StakeRedeemReexecuted",
      "type": "event"
    },
    {
      "inputs": [],
      "name": "DEFAULT_ADMIN_ROLE",
      "outputs": [
        {
          "internalType": "bytes32",
          "name": "",
          "type": "bytes32"
        }
      ],
      "stateMutability": "view",
      "type": "function"
    },
    {
      "inputs": [],
      "name": "STAKING_MANAGER_ROLE",
      "outputs": [
        {
          "internalType": "bytes32",
          "name": "",
          "type": "bytes32"
        }
      ],
      "stateMutability": "pure",
      "type": "function"
    },
    {
      "inputs": [],
      "name": "STRATEGY_MANAGER_ROLE",
      "outputs": [
        {
          "internalType": "bytes32",
          "name": "",
          "type": "bytes32"
        }
      ],
      "stateMutability": "pure",
      "type": "function"
    },
    {
      "inputs": [],
      "name": "STRATEGY_UPGRADER_ROLE",
      "outputs": [
        {
          "internalType": "bytes32",
          "name": "",
          "type": "bytes32"
        }
      ],
      "stateMutability": "pure",
      "type": "function"
    },
    {
      "inputs": [],
      "name": "VAULT_MANAGER_ROLE",
      "outputs": [
        {
          "internalType": "bytes32",
          "name": "",
          "type": "bytes32"
        }
      ],
      "stateMutability": "pure",
      "type": "function"
    },
    {
      "inputs": [],
      "name": "applyLumiaFactory",
      "outputs": [],
      "stateMutability": "nonpayable",
      "type": "function"
    },
    {
      "inputs": [],
      "name": "applyMailbox",
      "outputs": [],
      "stateMutability": "nonpayable",
      "type": "function"
    },
    {
      "inputs": [
        {
          "internalType": "address",
          "name": "strategy",
          "type": "address"
        },
        {
          "internalType": "address",
          "name": "user",
          "type": "address"
        },
        {
          "internalType": "uint256",
          "name": "stake",
          "type": "uint256"
        }
      ],
      "name": "bridgeStakeInfo",
      "outputs": [],
      "stateMutability": "nonpayable",
      "type": "function"
    },
    {
      "inputs": [
        {
          "internalType": "address",
          "name": "strategy",
          "type": "address"
        },
        {
          "internalType": "uint256",
          "name": "stakeAdded",
          "type": "uint256"
        }
      ],
      "name": "bridgeStakeReward",
      "outputs": [],
      "stateMutability": "nonpayable",
      "type": "function"
    },
    {
      "inputs": [
        {
          "internalType": "address",
          "name": "from",
          "type": "address"
        },
        {
          "internalType": "uint256",
          "name": "dispatchFee",
          "type": "uint256"
        }
      ],
      "name": "collectDispatchFee",
      "outputs": [],
      "stateMutability": "payable",
      "type": "function"
    },
    {
      "inputs": [],
      "name": "getFailedRedeemCount",
      "outputs": [
        {
          "internalType": "uint256",
          "name": "",
          "type": "uint256"
        }
      ],
      "stateMutability": "view",
      "type": "function"
    },
    {
      "inputs": [
        {
          "internalType": "uint256[]",
          "name": "ids",
          "type": "uint256[]"
        }
      ],
      "name": "getFailedRedeems",
      "outputs": [
        {
          "components": [
            {
              "internalType": "address",
              "name": "strategy",
              "type": "address"
            },
            {
              "internalType": "address",
              "name": "user",
              "type": "address"
            },
            {
              "internalType": "uint256",
              "name": "amount",
              "type": "uint256"
            }
          ],
          "internalType": "struct FailedRedeem[]",
          "name": "",
          "type": "tuple[]"
        }
      ],
      "stateMutability": "view",
      "type": "function"
    },
    {
      "inputs": [
        {
          "internalType": "bytes32",
          "name": "role",
          "type": "bytes32"
        }
      ],
      "name": "getRoleAdmin",
      "outputs": [
        {
          "internalType": "bytes32",
          "name": "",
          "type": "bytes32"
        }
      ],
      "stateMutability": "view",
      "type": "function"
    },
    {
      "inputs": [
        {
          "internalType": "bytes32",
          "name": "role",
          "type": "bytes32"
        },
        {
          "internalType": "uint256",
          "name": "index",
          "type": "uint256"
        }
      ],
      "name": "getRoleMember",
      "outputs": [
        {
          "internalType": "address",
          "name": "",
          "type": "address"
        }
      ],
      "stateMutability": "view",
      "type": "function"
    },
    {
      "inputs": [
        {
          "internalType": "bytes32",
          "name": "role",
          "type": "bytes32"
        }
      ],
      "name": "getRoleMemberCount",
      "outputs": [
        {
          "internalType": "uint256",
          "name": "",
          "type": "uint256"
        }
      ],
      "stateMutability": "view",
      "type": "function"
    },
    {
      "inputs": [
        {
          "internalType": "bytes32",
          "name": "role",
          "type": "bytes32"
        }
      ],
      "name": "getRoleMembers",
      "outputs": [
        {
          "internalType": "address[]",
          "name": "",
          "type": "address[]"
        }
      ],
      "stateMutability": "view",
      "type": "function"
    },
    {
      "inputs": [
        {
          "internalType": "address",
          "name": "user",
          "type": "address"
        }
      ],
      "name": "getUserFailedRedeemIds",
      "outputs": [
        {
          "internalType": "uint256[]",
          "name": "",
          "type": "uint256[]"
        }
      ],
      "stateMutability": "view",
      "type": "function"
    },
    {
      "inputs": [
        {
          "internalType": "bytes32",
          "name": "role",
          "type": "bytes32"
        },
        {
          "internalType": "address",
          "name": "account",
          "type": "address"
        }
      ],
      "name": "grantRole",
      "outputs": [],
      "stateMutability": "nonpayable",
      "type": "function"
    },
    {
      "inputs": [
        {
          "internalType": "uint32",
          "name": "origin",
          "type": "uint32"
        },
        {
          "internalType": "bytes32",
          "name": "sender",
          "type": "bytes32"
        },
        {
          "internalType": "bytes",
          "name": "data",
          "type": "bytes"
        }
      ],
      "name": "handle",
      "outputs": [],
      "stateMutability": "payable",
      "type": "function"
    },
    {
      "inputs": [
        {
          "internalType": "bytes32",
          "name": "role",
          "type": "bytes32"
        },
        {
          "internalType": "address",
          "name": "account",
          "type": "address"
        }
      ],
      "name": "hasRole",
      "outputs": [
        {
          "internalType": "bool",
          "name": "",
          "type": "bool"
        }
      ],
      "stateMutability": "view",
      "type": "function"
    },
    {
      "inputs": [
        {
          "internalType": "address",
          "name": "account",
          "type": "address"
        }
      ],
      "name": "hasStrategyManagerRole",
      "outputs": [
        {
          "internalType": "bool",
          "name": "",
          "type": "bool"
        }
      ],
      "stateMutability": "view",
      "type": "function"
    },
    {
      "inputs": [
        {
          "internalType": "address",
          "name": "account",
          "type": "address"
        }
      ],
      "name": "hasStrategyUpgraderRole",
      "outputs": [
        {
          "internalType": "bool",
          "name": "",
          "type": "bool"
        }
      ],
      "stateMutability": "view",
      "type": "function"
    },
    {
      "inputs": [],
      "name": "hook",
      "outputs": [
        {
          "internalType": "contract IPostDispatchHook",
          "name": "",
          "type": "address"
        }
      ],
      "stateMutability": "view",
      "type": "function"
    },
    {
      "inputs": [],
      "name": "interchainSecurityModule",
      "outputs": [
        {
          "internalType": "contract IInterchainSecurityModule",
          "name": "",
          "type": "address"
        }
      ],
      "stateMutability": "view",
      "type": "function"
    },
    {
      "inputs": [],
      "name": "lockboxData",
      "outputs": [
        {
          "components": [
            {
              "internalType": "contract IMailbox",
              "name": "mailbox",
              "type": "address"
            },
            {
              "internalType": "contract IInterchainSecurityModule",
              "name": "ism",
              "type": "address"
            },
            {
              "internalType": "contract IPostDispatchHook",
              "name": "postDispatchHook",
              "type": "address"
            },
            {
              "internalType": "uint32",
              "name": "destination",
              "type": "uint32"
            },
            {
              "internalType": "address",
              "name": "lumiaFactory",
              "type": "address"
            },
            {
              "components": [
                {
                  "internalType": "address",
                  "name": "sender",
                  "type": "address"
                },
                {
                  "internalType": "bytes",
                  "name": "data",
                  "type": "bytes"
                }
              ],
              "internalType": "struct HyperlaneMessage",
              "name": "lastMessage",
              "type": "tuple"
            }
          ],
          "internalType": "struct LockboxData",
          "name": "",
          "type": "tuple"
        }
      ],
      "stateMutability": "view",
      "type": "function"
    },
    {
      "inputs": [
        {
          "internalType": "address",
          "name": "newFactory",
          "type": "address"
        }
      ],
      "name": "proposeLumiaFactory",
      "outputs": [],
      "stateMutability": "nonpayable",
      "type": "function"
    },
    {
      "inputs": [
        {
          "internalType": "address",
          "name": "newMailbox",
          "type": "address"
        }
      ],
      "name": "proposeMailbox",
      "outputs": [],
      "stateMutability": "nonpayable",
      "type": "function"
    },
    {
      "inputs": [
        {
          "internalType": "uint256",
          "name": "id",
          "type": "uint256"
        }
      ],
      "name": "reexecuteFailedRedeem",
      "outputs": [],
      "stateMutability": "nonpayable",
      "type": "function"
    },
    {
      "inputs": [
        {
          "internalType": "bytes32",
          "name": "role",
          "type": "bytes32"
        },
        {
          "internalType": "address",
          "name": "callerConfirmation",
          "type": "address"
        }
      ],
      "name": "renounceRole",
      "outputs": [],
      "stateMutability": "nonpayable",
      "type": "function"
    },
    {
      "inputs": [
        {
          "internalType": "bytes32",
          "name": "role",
          "type": "bytes32"
        },
        {
          "internalType": "address",
          "name": "account",
          "type": "address"
        }
      ],
      "name": "revokeRole",
      "outputs": [],
      "stateMutability": "nonpayable",
      "type": "function"
    },
    {
      "inputs": [
        {
          "internalType": "uint32",
          "name": "destination",
          "type": "uint32"
        }
      ],
      "name": "setDestination",
      "outputs": [],
      "stateMutability": "nonpayable",
      "type": "function"
    },
    {
      "inputs": [
        {
          "internalType": "address",
          "name": "postDispatchHook",
          "type": "address"
        }
      ],
      "name": "setHook",
      "outputs": [],
      "stateMutability": "nonpayable",
      "type": "function"
    },
    {
      "inputs": [
        {
          "internalType": "contract IInterchainSecurityModule",
          "name": "ism",
          "type": "address"
        }
      ],
      "name": "setInterchainSecurityModule",
      "outputs": [],
      "stateMutability": "nonpayable",
      "type": "function"
    },
    {
      "inputs": [
        {
          "internalType": "bytes4",
          "name": "interfaceId",
          "type": "bytes4"
        }
      ],
      "name": "supportsInterface",
      "outputs": [
        {
          "internalType": "bool",
          "name": "",
          "type": "bool"
        }
      ],
      "stateMutability": "view",
      "type": "function"
    }
  ],
  "bytecode": "0x6080604052348015600e575f5ffd5b50612aa88061001c5f395ff3fe6080604052600436106101f1575f3560e01c806359f82f9111610108578063a3246ad31161009d578063d547741f1161006d578063d547741f146105c5578063de523cf3146105e4578063f818ae4b146105f8578063f923b20714610617578063fd245b4c14610638575f5ffd5b8063a3246ad314610534578063abcbe0b214610560578063adeb582d14610592578063ca15c873146105a6575f5ffd5b8063832a9f88116100d8578063832a9f88146104c45780639010d07c146104e357806391d1485414610502578063a217fddf14610521575f5ffd5b806359f82f91146104285780635e5a24a41461045a5780636230469d146104795780637f5a7c7b14610498575f5ffd5b80632e57ed27116101895780633dfd3873116101595780633dfd3873146103af5780634c227854146103ce5780634c7ea628146103e2578063505f158a146103f657806356d5d47514610415575f5ffd5b80632e57ed27146103205780632f2ff15d1461033f57806336568abe1461035e5780633937c0b31461037d575f5ffd5b806320cefed2116101c457806320cefed21461028957806323d99956146102a8578063248a9ca3146102d45780632dc5607014610301575f5ffd5b806301ffc9a7146101f55780630e72cc06146102295780631528ec0e1461024a57806316f1c98414610276575b5f5ffd5b348015610200575f5ffd5b5061021461020f3660046122ce565b610657565b60405190151581526020015b60405180910390f35b348015610234575f5ffd5b50610248610243366004612309565b610681565b005b348015610255575f5ffd5b50610269610264366004612324565b610715565b6040516102209190612393565b6102486102843660046123fc565b610824565b348015610294575f5ffd5b506102486102a3366004612426565b61088b565b3480156102b3575f5ffd5b506102c76102c2366004612309565b610a84565b604051610220919061243d565b3480156102df575f5ffd5b506102f36102ee366004612426565b610ab0565b604051908152602001610220565b34801561030c575f5ffd5b5061024861031b366004612474565b610ad0565b34801561032b575f5ffd5b5061024861033a3660046123fc565b610bff565b34801561034a575f5ffd5b506102486103593660046124b2565b610d51565b348015610369575f5ffd5b506102486103783660046124b2565b610d73565b348015610388575f5ffd5b507fa6b5d83d32632203555cb9b2c2f68a8d94da48cadd9266ac0d17babedb52ea5b6102f3565b3480156103ba575f5ffd5b506102486103c9366004612309565b610da6565b3480156103d9575f5ffd5b50610248610e7c565b3480156103ed575f5ffd5b50610248610fa9565b348015610401575f5ffd5b50610214610410366004612309565b6110d0565b6102486104233660046124f8565b6110fc565b348015610433575f5ffd5b507fb6b8360f529bf65be805a119c79f97914e5e29532dc734732a563b5bc869148c6102f3565b348015610465575f5ffd5b505f516020612a335f395f51905f526102f3565b348015610484575f5ffd5b50610248610493366004612579565b611313565b3480156104a3575f5ffd5b506104ac6113bd565b6040516001600160a01b039091168152602001610220565b3480156104cf575f5ffd5b506102486104de366004612309565b6113d8565b3480156104ee575f5ffd5b506104ac6104fd366004612592565b6114e4565b34801561050d575f5ffd5b5061021461051c3660046124b2565b611511565b34801561052c575f5ffd5b506102f35f81565b34801561053f575f5ffd5b5061055361054e366004612426565b611547565b60405161022091906125b2565b34801561056b575f5ffd5b507f4170d100a3a3728ae51207936ee755ecaa64a7f6e9383c642ab204a136f90b1b6102f3565b34801561059d575f5ffd5b506102f3611577565b3480156105b1575f5ffd5b506102f36105c0366004612426565b611589565b3480156105d0575f5ffd5b506102486105df3660046124b2565b6115ad565b3480156105ef575f5ffd5b506104ac6115c9565b348015610603575f5ffd5b50610248610612366004612309565b6115e4565b348015610622575f5ffd5b5061062b611700565b604051610220919061263c565b348015610643575f5ffd5b50610214610652366004612309565b61185f565b5f6001600160e01b03198216635a05180f60e01b148061067b575061067b82611889565b92915050565b6106995f516020612a335f395f51905f525b33611511565b6106b65760405163612bde3d60e01b815260040160405180910390fd5b806106bf6118bd565b60060180546001600160a01b0319166001600160a01b0392831617905560405190821681527f1f93f602e1d7121b6ebefa802d7486621567ceb3108ba167b8bbb9206e9196db906020015b60405180910390a150565b60605f6107206118bd565b601a019050825f816001600160401b0381111561073f5761073f6126b7565b60405190808252806020026020018201604052801561078857816020015b604080516060810182525f80825260208083018290529282015282525f1990920191018161075d5790505b5090505f5b8281101561081a57836001015f8888848181106107ac576107ac6126cb565b602090810292909201358352508181019290925260409081015f20815160608101835281546001600160a01b0390811682526001830154169381019390935260020154908201528251839083908110610807576108076126cb565b602090810291909101015260010161078d565b5095945050505050565b3330146108445760405163d248bf1560e01b815260040160405180910390fd5b8015610887578034101561086b5760405163cbc5b5dd60e01b815260040160405180910390fd5b60408051602081019091525f8152610885818430856118ea565b505b5050565b5f6108946118bd565b5f838152601b82016020908152604091829020825160608101845281546001600160a01b039081168252600183015416928101929092526002015491810191909152601a90910191506108f35f516020612a335f395f51905f52610693565b80610913575080602001516001600160a01b0316336001600160a01b0316145b339061094357604051634a0bfec160e01b81526001600160a01b0390911660048201526024015b60405180910390fd5b505f83815260018084016020908152604080842080546001600160a01b0319908116825593810180549094169093556002928301849055848201516001600160a01b031684529185019052902061099a9084611a3e565b5080516020820151604080840151905163a40e960360e01b81526001600160a01b0393841660048201529290911660248301526044820152309063a40e9603906064016020604051808303815f875af11580156109f9573d5f5f3e3d5ffd5b505050506040513d601f19601f82011682018060405250810190610a1d91906126df565b5080602001516001600160a01b0316815f01516001600160a01b03167fd70621f08a7adbb33e84106017ff61188b3a4c26d62ca02826d9fdb97b2c5f80836040015186604051610a77929190918252602082015260400190565b60405180910390a3505050565b606061067b610a916118bd565b6001600160a01b0384165f908152601c90910160205260409020611a49565b5f9081525f516020612a535f395f51905f52602052604090206001015490565b333014610af05760405163d248bf1560e01b815260040160405180910390fd5b5f6040518060800160405280610b04611a55565b6001600160401b03168152602001856001600160a01b03168152602001846001600160a01b031681526020018381525090505f306001600160a01b03166353295e18836040518263ffffffff1660e01b8152600401610b6391906126f6565b602060405180830381865afa158015610b7e573d5f5f3e3d5ffd5b505050506040513d601f19601f82011682018060405250810190610ba291906126df565b6040516357d6001d60e01b815290915030906357d6001d908390610bca9086906004016126f6565b5f604051808303818588803b158015610be1575f5ffd5b505af1158015610bf3573d5f5f3e3d5ffd5b50505050505050505050565b333014610c1f5760405163d248bf1560e01b815260040160405180910390fd5b5f6040518060600160405280610c33611a55565b6001600160401b0390811682526001600160a01b03868116602080850191909152604093840187905283516329293b1160e01b8152855190931660048401528401511660248201529082015160448201529091505f9030906329293b1190606401602060405180830381865afa158015610caf573d5f5f3e3d5ffd5b505050506040513d601f19601f82011682018060405250810190610cd391906126df565b6040805163a8505e4160e01b815284516001600160401b0316600482015260208501516001600160a01b03166024820152908401516044820152909150309063a8505e419083906064015f604051808303818588803b158015610d34575f5ffd5b505af1158015610d46573d5f5f3e3d5ffd5b505050505050505050565b610d5a82610ab0565b610d6381611a9c565b610d6d8383611aa9565b50505050565b6001600160a01b0381163314610d9c5760405163334bd91960e11b815260040160405180910390fd5b6108858282611aeb565b610dbc5f516020612a335f395f51905f52610693565b610dd95760405163612bde3d60e01b815260040160405180910390fd5b6001600160a01b0381161580610df857505f816001600160a01b03163b115b8190610e235760405163d60f216160e01b81526001600160a01b03909116600482015260240161093a565b5080610e2d6118bd565b60070180546001600160a01b0319166001600160a01b0392831617905560405190821681527fbe12f496662bcc39501c02ebd68c2897078989e2f01e926cc3be9a32dc7fd9d99060200161070a565b610e925f516020612a335f395f51905f52610693565b610eaf5760405163612bde3d60e01b815260040160405180910390fd5b5f610eb86118bd565b60180180549091506001600160a01b031615801590610edb575080600101544210155b815460018301546001600160a01b0390911691610f1c57604051633cdacd8160e01b81526001600160a01b039092166004830152602482015260440161093a565b50505f610f276118bd565b60088101805484546001600160a01b039081166001600160a01b03198316179092558454604051600590940194509082169291169082907fd664da3b7b2956ef992cec5a95d8bd25fdae3e8cf7513067aa73a233a0ae826c905f90a3610f8b6118bd565b6018810180546001600160a01b03191690555f601990910155505050565b610fbf5f516020612a335f395f51905f52610693565b610fdc5760405163612bde3d60e01b815260040160405180910390fd5b5f610fe56118bd565b60160180549091506001600160a01b031615801590611008575080600101544210155b815460018301546001600160a01b039091169161104957604051633cdacd8160e01b81526001600160a01b039092166004830152602482015260440161093a565b50505f6110546118bd565b600501805483546001600160a01b031982166001600160a01b0391821617835584546040519394509181169291169082907fc9f808ed2d4877daa57900b86147cc4d4c05e37ac36bc6d417d387dfc3f3e6a7905f90a36110b26118bd565b6016810180546001600160a01b03191690555f601790910155505050565b5f61067b7f4170d100a3a3728ae51207936ee755ecaa64a7f6e9383c642ab204a136f90b1b5b83611511565b5f6111056118bd565b600501805490915033906001600160a01b0316811461114357604051635ec769f360e01b81526001600160a01b03909116600482015260240161093a565b505f61114e85611b24565b90505f6111596118bd565b6008810154600591909101915082906001600160a01b0382811691161461119f57604051632a5ad25f60e01b81526001600160a01b03909116600482015260240161093a565b506002810154879063ffffffff828116600160a01b90920416146111df5760405163ba6dd62b60e01b815263ffffffff909116600482015260240161093a565b506111ec87878787611b8c565b6040518060400160405280836001600160a01b0316815260200186868080601f0160208091040260200160405190810160405280939291908181526020018383808284375f92019190915250505091525080516004830180546001600160a01b0319166001600160a01b039092169190911781556020820151600584019061127490826127b7565b50905050858763ffffffff167fa91b1f3644ffda4533c176bd3a66cdf2ddfda1ce3cb03f56610c865a559355d03488886040516112b393929190612871565b60405180910390a35f6112c68686611ba0565b905060038160038111156112dc576112dc6128a6565b036112f3576112eb8686611bcb565b50505061130c565b60405163ca2d578f60e01b815260040160405180910390fd5b5050505050565b6113295f516020612a335f395f51905f52610693565b6113465760405163612bde3d60e01b815260040160405180910390fd5b5f61134f6118bd565b60078101546040516005909201925063ffffffff84811692600160a01b90920416907f95f43a8ae98f1becaf690d2158400146a371dbebafd5277c1aabc7ed50b92b5d905f90a3600201805463ffffffff909216600160a01b0263ffffffff60a01b19909216919091179055565b5f6113c66118bd565b600701546001600160a01b0316919050565b6113ee5f516020612a335f395f51905f52610693565b61140b5760405163612bde3d60e01b815260040160405180910390fd5b806001600160a01b03811661143f576040516312c2271d60e01b81526001600160a01b03909116600482015260240161093a565b505f6040518060400160405280836001600160a01b031681526020015f4261146791906128ce565b90529050806114746118bd565b81516018820180546001600160a01b0319166001600160a01b0392831617905560209283015160199092019190915582820151604080519286168352928201527f190ffc786a4c763408c10b840a70786eb8920d4842d1bcb29e71f3d4417daaf991015b60405180910390a15050565b5f8281525f516020612a135f395f51905f526020819052604082206115099084611c7f565b949350505050565b5f9182525f516020612a535f395f51905f52602090815260408084206001600160a01b0393909316845291905290205460ff1690565b5f8181525f516020612a135f395f51905f52602081905260409091206060919061157090611a49565b9392505050565b5f6115806118bd565b601a0154919050565b5f8181525f516020612a135f395f51905f5260208190526040822061157090611c8a565b6115b682610ab0565b6115bf81611a9c565b610d6d8383611aeb565b5f6115d26118bd565b600601546001600160a01b0316919050565b6115fa5f516020612a335f395f51905f52610693565b6116175760405163612bde3d60e01b815260040160405180910390fd5b6001600160a01b0381161580159061163857505f816001600160a01b03163b115b8190611663576040516356e5587960e01b81526001600160a01b03909116600482015260240161093a565b505f6040518060400160405280836001600160a01b031681526020015f4261168b91906128ce565b90529050806116986118bd565b81516016820180546001600160a01b0319166001600160a01b0392831617905560209283015160179092019190915582820151604080519286168352928201527f175c88cabef74ede3e3ae63f83946f4ffcc88355e7699d5ec39384c1de7c202491016114d8565b6117456040805160c0810182525f808252602080830182905282840182905260608084018390526080840183905284518086019095529184528301529060a082015290565b61174d6118bd565b6040805160c0810182526005830180546001600160a01b03908116835260068501548116602080850191909152600786015480831685870152600160a01b900463ffffffff16606085015260088601548216608085015284518086019095526009860180549092168552600a90950180549395929460a08701949093840191906117d69061273b565b80601f01602080910402602001604051908101604052809291908181526020018280546118029061273b565b801561184d5780601f106118245761010080835404028352916020019161184d565b820191905f5260205f20905b81548152906001019060200180831161183057829003601f168201915b50505050508152505081525050905090565b5f61067b7fb6b8360f529bf65be805a119c79f97914e5e29532dc734732a563b5bc869148c6110f6565b5f6001600160e01b03198216637965db0b60e01b148061067b57506301ffc9a760e01b6001600160e01b031983161461067b565b5f8061067b60017fbdce9fce78852f4396d00427ddc098ac2e3263701a971553200759a6322f44656128e1565b83516001600160a01b0316611a27578034101561191a5760405163044044a560e21b815260040160405180910390fd5b6001600160a01b038216301461199c575f826001600160a01b0316826040515f6040518083038185875af1925050503d805f8114611973576040519150601f19603f3d011682016040523d82523d5f602084013e611978565b606091505b505090508061199a576040516312171d8360e31b815260040160405180910390fd5b505b5f6119a782346128e1565b90508015611a21575f846001600160a01b0316826040515f6040518083038185875af1925050503d805f81146119f8576040519150601f19603f3d011682016040523d82523d5f602084013e6119fd565b606091505b5050905080611a1f57604051633c31275160e21b815260040160405180910390fd5b505b50610d6d565b8351610d6d906001600160a01b0316848484611c93565b5f6115708383611ced565b60605f61157083611dd7565b5f611a5e611e30565b80545f90611a74906001600160401b03166128f4565b91906101000a8154816001600160401b0302191690836001600160401b031602179055905090565b611aa68133611e5d565b50565b5f5f516020612a135f395f51905f5281611ac38585611e96565b90508015611509575f858152602083905260409020611ae29085611f2e565b50949350505050565b5f5f516020612a135f395f51905f5281611b058585611f42565b90508015611509575f858152602083905260409020611ae29085611fbb565b5f6001600160a01b03821115611b885760405162461bcd60e51b8152602060048201526024808201527f5479706543617374733a2062797465733332546f41646472657373206f766572604482015263666c6f7760e01b606482015260840161093a565b5090565b610d6d611b9b85858585611fcf565b612019565b5f611bae600882848661291e565b611bb791612945565b60c01c6003811115611570576115706128a6565b5f611bd6838361207a565b90505f611be3848461209a565b90505f611bf085856120ac565b60405163a40e960360e01b81526001600160a01b0380861660048301528416602482015260448101829052909150309063a40e9603906064016020604051808303815f875af1925050508015611c63575060408051601f3d908101601f19168201909252611c60918101906126df565b60015b611c7757611c728383836120c4565b61130c565b505050505050565b5f61157083836121c3565b5f61067b825490565b604080516001600160a01b0385811660248301528416604482015260648082018490528251808303909101815260849091019091526020810180516001600160e01b03166323b872dd60e01b179052610d6d9085906121e9565b5f8181526001830160205260408120548015611dc7575f611d0f6001836128e1565b85549091505f90611d22906001906128e1565b9050808214611d81575f865f018281548110611d4057611d406126cb565b905f5260205f200154905080875f018481548110611d6057611d606126cb565b5f918252602080832090910192909255918252600188019052604090208390555b8554869080611d9257611d9261297b565b600190038181905f5260205f20015f90559055856001015f8681526020019081526020015f205f90556001935050505061067b565b5f91505061067b565b5092915050565b6060815f01805480602002602001604051908101604052809291908181526020018280548015611e2457602002820191905f5260205f20905b815481526020019060010190808311611e10575b50505050509050919050565b5f8061067b60017f5bb7656ef24c73b7e8f5713e1e3451eff01777c4d0b1e46eb4b823c11d8aa1516128e1565b611e678282611511565b6108875760405163e2517d3f60e01b81526001600160a01b03821660048201526024810183905260440161093a565b5f5f516020612a535f395f51905f52611eaf8484611511565b611dc7575f848152602082815260408083206001600160a01b03871684529091529020805460ff19166001179055611ee43390565b6001600160a01b0316836001600160a01b0316857f2f8788117e7eff1d82e926ec794901d17c78024a50270940304540a733656f0d60405160405180910390a4600191505061067b565b5f611570836001600160a01b038416612255565b5f5f516020612a535f395f51905f52611f5b8484611511565b15611dc7575f848152602082815260408083206001600160a01b0387168085529252808320805460ff1916905551339287917ff6391f5c32d9c69d2a47ea670b442974b53935d1edc7fd64eb21e047a839171b9190a4600191505061067b565b5f611570836001600160a01b038416611ced565b5f8484611fdc8585611ba0565b611fe686866122a1565b604051602001611ff9949392919061298f565b604051602081830303815290604052805190602001209050949350505050565b5f612022611e30565b5f838152600182016020526040902054909150829060ff161561205b57604051637696bdd560e11b815260040161093a91815260200190565b505f91825260019081016020526040909120805460ff19169091179055565b5f61157061208c60306010858761291e565b612095916129dd565b611b24565b5f61157061208c60506030858761291e565b5f6120bb60706050848661291e565b611570916129dd565b5f6120cd6118bd565b601a0180549091505f9082826120e2836129fa565b90915550604080516060810182526001600160a01b03808916825287811660208084018281528486018a81525f8881526001808c018552888220975188549088166001600160a01b0319918216178955935190880180549190971693169290921790945592516002948501559082529186019091522090915061216590826122c3565b50836001600160a01b0316856001600160a01b03167f6140aaf595f3e08df693488da134afe1c69c3052943d9beb033534942f2bdfc885846040516121b4929190918252602082015260400190565b60405180910390a35050505050565b5f825f0182815481106121d8576121d86126cb565b905f5260205f200154905092915050565b5f5f60205f8451602086015f885af180612208576040513d5f823e3d81fd5b50505f513d9150811561221f57806001141561222c565b6001600160a01b0384163b155b15610d6d57604051635274afe760e01b81526001600160a01b038516600482015260240161093a565b5f81815260018301602052604081205461229a57508154600181810184555f84815260208082209093018490558454848252828601909352604090209190915561067b565b505f61067b565b5f6122b060106008848661291e565b6122b991612945565b60c01c9392505050565b5f6115708383612255565b5f602082840312156122de575f5ffd5b81356001600160e01b031981168114611570575f5ffd5b6001600160a01b0381168114611aa6575f5ffd5b5f60208284031215612319575f5ffd5b8135611570816122f5565b5f5f60208385031215612335575f5ffd5b82356001600160401b0381111561234a575f5ffd5b8301601f8101851361235a575f5ffd5b80356001600160401b0381111561236f575f5ffd5b8560208260051b8401011115612383575f5ffd5b6020919091019590945092505050565b602080825282518282018190525f918401906040840190835b818110156123f157835180516001600160a01b0390811685526020808301519091168186015260409182015191850191909152909301926060909201916001016123ac565b509095945050505050565b5f5f6040838503121561240d575f5ffd5b8235612418816122f5565b946020939093013593505050565b5f60208284031215612436575f5ffd5b5035919050565b602080825282518282018190525f918401906040840190835b818110156123f1578351835260209384019390920191600101612456565b5f5f5f60608486031215612486575f5ffd5b8335612491816122f5565b925060208401356124a1816122f5565b929592945050506040919091013590565b5f5f604083850312156124c3575f5ffd5b8235915060208301356124d5816122f5565b809150509250929050565b803563ffffffff811681146124f3575f5ffd5b919050565b5f5f5f5f6060858703121561250b575f5ffd5b612514856124e0565b93506020850135925060408501356001600160401b03811115612535575f5ffd5b8501601f81018713612545575f5ffd5b80356001600160401b0381111561255a575f5ffd5b87602082840101111561256b575f5ffd5b949793965060200194505050565b5f60208284031215612589575f5ffd5b611570826124e0565b5f5f604083850312156125a3575f5ffd5b50508035926020909101359150565b602080825282518282018190525f918401906040840190835b818110156123f15783516001600160a01b03168352602093840193909201916001016125cb565b60018060a01b0381511682525f60208201516040602085015280518060408601528060208301606087015e5f606082870101526060601f19601f8301168601019250505092915050565b6020815260018060a01b03825116602082015260018060a01b03602083015116604082015260018060a01b03604083015116606082015263ffffffff60608301511660808201525f608083015161269e60a08401826001600160a01b03169052565b5060a083015160c08084015261150960e08401826125f2565b634e487b7160e01b5f52604160045260245ffd5b634e487b7160e01b5f52603260045260245ffd5b5f602082840312156126ef575f5ffd5b5051919050565b81516001600160401b031681526020808301516001600160a01b0390811691830191909152604080840151909116908201526060918201519181019190915260800190565b600181811c9082168061274f57607f821691505b60208210810361276d57634e487b7160e01b5f52602260045260245ffd5b50919050565b601f82111561088557805f5260205f20601f840160051c810160208510156127985750805b601f840160051c820191505b8181101561130c575f81556001016127a4565b81516001600160401b038111156127d0576127d06126b7565b6127e4816127de845461273b565b84612773565b6020601f821160018114612816575f83156127ff5750848201515b5f19600385901b1c1916600184901b17845561130c565b5f84815260208120601f198516915b828110156128455787850151825560209485019460019092019101612825565b508482101561286257868401515f19600387901b60f8161c191681555b50505050600190811b01905550565b83815260406020820152816040820152818360608301375f818301606090810191909152601f909201601f1916010192915050565b634e487b7160e01b5f52602160045260245ffd5b634e487b7160e01b5f52601160045260245ffd5b8082018082111561067b5761067b6128ba565b8181038181111561067b5761067b6128ba565b5f6001600160401b0382166001600160401b038103612915576129156128ba565b60010192915050565b5f5f8585111561292c575f5ffd5b83861115612938575f5ffd5b5050820193919092039150565b80356001600160c01b03198116906008841015611dd0576001600160c01b031960089490940360031b84901b1690921692915050565b634e487b7160e01b5f52603160045260245ffd5b63ffffffff851681526020810184905260808101600484106129bf57634e487b7160e01b5f52602160045260245ffd5b8360408301526001600160401b038316606083015295945050505050565b8035602083101561067b575f19602084900360031b1b1692915050565b5f60018201612a0b57612a0b6128ba565b506001019056fec1f6fe24621ce81ec5827caf0253cadb74709b061630e6b55e82371705932000d1473398bb66596de5d1ea1fc8e303ff2ac23265adc9144b1b52065dc4f0934b02dd7bc7dec4dceedda775e58dd541e08a116c6c53815c0bd028192f7b626800a264697066735822122027e0aeff0868557a98811bb0ca98d535278a2940184e4fe90d3367dad1f1259e64736f6c634300081b0033",
  "linkReferences": {},
  "deployedLinkReferences": {}
}