{
  "_format": "hh-sol-artifact-1",
  "contractName": "HyperFactoryFacet",
  "sourceName": "contracts/hyperstaking/facets/HyperFactoryFacet.sol",
  "abi": [
    {
      "inputs": [],
      "name": "AccessControlBadConfirmation",
      "type": "error"
    },
    {
      "inputs": [
        {
          "internalType": "address",
          "name": "account",
          "type": "address"
        },
        {
          "internalType": "bytes32",
          "name": "neededRole",
          "type": "bytes32"
        }
      ],
      "name": "AccessControlUnauthorizedAccount",
      "type": "error"
    },
    {
      "inputs": [],
      "name": "InvalidInitialization",
      "type": "error"
    },
    {
      "inputs": [],
      "name": "NotInitializing",
      "type": "error"
    },
    {
      "inputs": [],
      "name": "OnlyDiamondInternal",
      "type": "error"
    },
    {
      "inputs": [],
      "name": "OnlyStakingManager",
      "type": "error"
    },
    {
      "inputs": [
        {
          "internalType": "address",
          "name": "caller",
          "type": "address"
        },
        {
          "internalType": "address",
          "name": "strategy",
          "type": "address"
        }
      ],
      "name": "OnlyStrategyCaller",
      "type": "error"
    },
    {
      "inputs": [],
      "name": "OnlyStrategyManager",
      "type": "error"
    },
    {
      "inputs": [],
      "name": "OnlyStrategyUpgrader",
      "type": "error"
    },
    {
      "inputs": [],
      "name": "OnlyVaultManager",
      "type": "error"
    },
    {
      "inputs": [],
      "name": "ReentrancyGuardReentrantCall",
      "type": "error"
    },
    {
      "inputs": [],
      "name": "VaultAlreadyExist",
      "type": "error"
    },
    {
      "inputs": [
        {
          "internalType": "address",
          "name": "strategy",
          "type": "address"
        }
      ],
      "name": "VaultDisabled",
      "type": "error"
    },
    {
      "inputs": [
        {
          "internalType": "address",
          "name": "strategy",
          "type": "address"
        }
      ],
      "name": "VaultDoesNotExist",
      "type": "error"
    },
    {
      "inputs": [],
      "name": "ZeroAddress",
      "type": "error"
    },
    {
      "anonymous": false,
      "inputs": [
        {
          "indexed": false,
          "internalType": "uint64",
          "name": "version",
          "type": "uint64"
        }
      ],
      "name": "Initialized",
      "type": "event"
    },
    {
      "anonymous": false,
      "inputs": [
        {
          "indexed": true,
          "internalType": "bytes32",
          "name": "role",
          "type": "bytes32"
        },
        {
          "indexed": true,
          "internalType": "bytes32",
          "name": "previousAdminRole",
          "type": "bytes32"
        },
        {
          "indexed": true,
          "internalType": "bytes32",
          "name": "newAdminRole",
          "type": "bytes32"
        }
      ],
      "name": "RoleAdminChanged",
      "type": "event"
    },
    {
      "anonymous": false,
      "inputs": [
        {
          "indexed": true,
          "internalType": "bytes32",
          "name": "role",
          "type": "bytes32"
        },
        {
          "indexed": true,
          "internalType": "address",
          "name": "account",
          "type": "address"
        },
        {
          "indexed": true,
          "internalType": "address",
          "name": "sender",
          "type": "address"
        }
      ],
      "name": "RoleGranted",
      "type": "event"
    },
    {
      "anonymous": false,
      "inputs": [
        {
          "indexed": true,
          "internalType": "bytes32",
          "name": "role",
          "type": "bytes32"
        },
        {
          "indexed": true,
          "internalType": "address",
          "name": "account",
          "type": "address"
        },
        {
          "indexed": true,
          "internalType": "address",
          "name": "sender",
          "type": "address"
        }
      ],
      "name": "RoleRevoked",
      "type": "event"
    },
    {
      "anonymous": false,
      "inputs": [
        {
          "indexed": true,
          "internalType": "address",
          "name": "from",
          "type": "address"
        },
        {
          "indexed": false,
          "internalType": "address",
          "name": "strategy",
          "type": "address"
        },
        {
          "indexed": true,
          "internalType": "address",
          "name": "stakeCurrency",
          "type": "address"
        },
        {
          "indexed": true,
          "internalType": "address",
          "name": "revenueAsset",
          "type": "address"
        },
        {
          "indexed": false,
          "internalType": "string",
          "name": "vaultTokenName",
          "type": "string"
        },
        {
          "indexed": false,
          "internalType": "string",
          "name": "vaultTokenSymbol",
          "type": "string"
        },
        {
          "indexed": false,
          "internalType": "uint8",
          "name": "decimals",
          "type": "uint8"
        }
      ],
      "name": "VaultCreate",
      "type": "event"
    },
    {
      "anonymous": false,
      "inputs": [
        {
          "indexed": true,
          "internalType": "address",
          "name": "strategy",
          "type": "address"
        },
        {
          "indexed": false,
          "internalType": "bool",
          "name": "enabled",
          "type": "bool"
        }
      ],
      "name": "VaultEnabledSet",
      "type": "event"
    },
    {
      "anonymous": false,
      "inputs": [
        {
          "indexed": true,
          "internalType": "address",
          "name": "strategy",
          "type": "address"
        },
        {
          "indexed": true,
          "internalType": "address",
          "name": "oldStakeCurrency",
          "type": "address"
        },
        {
          "indexed": true,
          "internalType": "address",
          "name": "newStakeCurrency",
          "type": "address"
        }
      ],
      "name": "VaultStakeCurrencyUpdated",
      "type": "event"
    },
    {
      "inputs": [],
      "name": "DEFAULT_ADMIN_ROLE",
      "outputs": [
        {
          "internalType": "bytes32",
          "name": "",
          "type": "bytes32"
        }
      ],
      "stateMutability": "view",
      "type": "function"
    },
    {
      "inputs": [],
      "name": "STAKING_MANAGER_ROLE",
      "outputs": [
        {
          "internalType": "bytes32",
          "name": "",
          "type": "bytes32"
        }
      ],
      "stateMutability": "pure",
      "type": "function"
    },
    {
      "inputs": [],
      "name": "STRATEGY_MANAGER_ROLE",
      "outputs": [
        {
          "internalType": "bytes32",
          "name": "",
          "type": "bytes32"
        }
      ],
      "stateMutability": "pure",
      "type": "function"
    },
    {
      "inputs": [],
      "name": "STRATEGY_UPGRADER_ROLE",
      "outputs": [
        {
          "internalType": "bytes32",
          "name": "",
          "type": "bytes32"
        }
      ],
      "stateMutability": "pure",
      "type": "function"
    },
    {
      "inputs": [],
      "name": "VAULT_MANAGER_ROLE",
      "outputs": [
        {
          "internalType": "bytes32",
          "name": "",
          "type": "bytes32"
        }
      ],
      "stateMutability": "pure",
      "type": "function"
    },
    {
      "inputs": [
        {
          "internalType": "address",
          "name": "strategy",
          "type": "address"
        },
        {
          "internalType": "string",
          "name": "vaultTokenName",
          "type": "string"
        },
        {
          "internalType": "string",
          "name": "vaultTokenSymbol",
          "type": "string"
        }
      ],
      "name": "addStrategy",
      "outputs": [],
      "stateMutability": "payable",
      "type": "function"
    },
    {
      "inputs": [
        {
          "internalType": "bytes32",
          "name": "role",
          "type": "bytes32"
        }
      ],
      "name": "getRoleAdmin",
      "outputs": [
        {
          "internalType": "bytes32",
          "name": "",
          "type": "bytes32"
        }
      ],
      "stateMutability": "view",
      "type": "function"
    },
    {
      "inputs": [
        {
          "internalType": "bytes32",
          "name": "role",
          "type": "bytes32"
        },
        {
          "internalType": "uint256",
          "name": "index",
          "type": "uint256"
        }
      ],
      "name": "getRoleMember",
      "outputs": [
        {
          "internalType": "address",
          "name": "",
          "type": "address"
        }
      ],
      "stateMutability": "view",
      "type": "function"
    },
    {
      "inputs": [
        {
          "internalType": "bytes32",
          "name": "role",
          "type": "bytes32"
        }
      ],
      "name": "getRoleMemberCount",
      "outputs": [
        {
          "internalType": "uint256",
          "name": "",
          "type": "uint256"
        }
      ],
      "stateMutability": "view",
      "type": "function"
    },
    {
      "inputs": [
        {
          "internalType": "bytes32",
          "name": "role",
          "type": "bytes32"
        }
      ],
      "name": "getRoleMembers",
      "outputs": [
        {
          "internalType": "address[]",
          "name": "",
          "type": "address[]"
        }
      ],
      "stateMutability": "view",
      "type": "function"
    },
    {
      "inputs": [
        {
          "internalType": "bytes32",
          "name": "role",
          "type": "bytes32"
        },
        {
          "internalType": "address",
          "name": "account",
          "type": "address"
        }
      ],
      "name": "grantRole",
      "outputs": [],
      "stateMutability": "nonpayable",
      "type": "function"
    },
    {
      "inputs": [
        {
          "internalType": "bytes32",
          "name": "role",
          "type": "bytes32"
        },
        {
          "internalType": "address",
          "name": "account",
          "type": "address"
        }
      ],
      "name": "hasRole",
      "outputs": [
        {
          "internalType": "bool",
          "name": "",
          "type": "bool"
        }
      ],
      "stateMutability": "view",
      "type": "function"
    },
    {
      "inputs": [
        {
          "internalType": "address",
          "name": "account",
          "type": "address"
        }
      ],
      "name": "hasStrategyManagerRole",
      "outputs": [
        {
          "internalType": "bool",
          "name": "",
          "type": "bool"
        }
      ],
      "stateMutability": "view",
      "type": "function"
    },
    {
      "inputs": [
        {
          "internalType": "address",
          "name": "account",
          "type": "address"
        }
      ],
      "name": "hasStrategyUpgraderRole",
      "outputs": [
        {
          "internalType": "bool",
          "name": "",
          "type": "bool"
        }
      ],
      "stateMutability": "view",
      "type": "function"
    },
    {
      "inputs": [
        {
          "internalType": "address",
          "name": "strategy",
          "type": "address"
        },
        {
          "internalType": "string",
          "name": "vaultTokenName",
          "type": "string"
        },
        {
          "internalType": "string",
          "name": "vaultTokenSymbol",
          "type": "string"
        }
      ],
      "name": "quoteAddStrategy",
      "outputs": [
        {
          "internalType": "uint256",
          "name": "",
          "type": "uint256"
        }
      ],
      "stateMutability": "view",
      "type": "function"
    },
    {
      "inputs": [
        {
          "internalType": "bytes32",
          "name": "role",
          "type": "bytes32"
        },
        {
          "internalType": "address",
          "name": "callerConfirmation",
          "type": "address"
        }
      ],
      "name": "renounceRole",
      "outputs": [],
      "stateMutability": "nonpayable",
      "type": "function"
    },
    {
      "inputs": [
        {
          "internalType": "bytes32",
          "name": "role",
          "type": "bytes32"
        },
        {
          "internalType": "address",
          "name": "account",
          "type": "address"
        }
      ],
      "name": "revokeRole",
      "outputs": [],
      "stateMutability": "nonpayable",
      "type": "function"
    },
    {
      "inputs": [
        {
          "internalType": "address",
          "name": "strategy",
          "type": "address"
        },
        {
          "internalType": "bool",
          "name": "enabled",
          "type": "bool"
        }
      ],
      "name": "setStrategyEnabled",
      "outputs": [],
      "stateMutability": "nonpayable",
      "type": "function"
    },
    {
      "inputs": [
        {
          "internalType": "bytes4",
          "name": "interfaceId",
          "type": "bytes4"
        }
      ],
      "name": "supportsInterface",
      "outputs": [
        {
          "internalType": "bool",
          "name": "",
          "type": "bool"
        }
      ],
      "stateMutability": "view",
      "type": "function"
    },
    {
      "inputs": [
        {
          "internalType": "address",
          "name": "strategy",
          "type": "address"
        },
        {
          "components": [
            {
              "internalType": "address",
              "name": "token",
              "type": "address"
            }
          ],
          "internalType": "struct Currency",
          "name": "newCurrency",
          "type": "tuple"
        }
      ],
      "name": "updateVaultStakeCurrency",
      "outputs": [],
      "stateMutability": "nonpayable",
      "type": "function"
    },
    {
      "inputs": [
        {
          "internalType": "address",
          "name": "strategy",
          "type": "address"
        }
      ],
      "name": "vaultInfo",
      "outputs": [
        {
          "components": [
            {
              "internalType": "bool",
              "name": "enabled",
              "type": "bool"
            },
            {
              "internalType": "address",
              "name": "strategy",
              "type": "address"
            },
            {
              "components": [
                {
                  "internalType": "address",
                  "name": "token",
                  "type": "address"
                }
              ],
              "internalType": "struct Currency",
              "name": "stakeCurrency",
              "type": "tuple"
            },
            {
              "internalType": "contract IERC20Metadata",
              "name": "revenueAsset",
              "type": "address"
            },
            {
              "internalType": "address",
              "name": "feeRecipient",
              "type": "address"
            },
            {
              "internalType": "uint256",
              "name": "feeRate",
              "type": "uint256"
            },
            {
              "internalType": "uint256",
              "name": "bridgeSafetyMargin",
              "type": "uint256"
            }
          ],
          "internalType": "struct VaultInfo",
          "name": "",
          "type": "tuple"
        }
      ],
      "stateMutability": "view",
      "type": "function"
    }
  ],
  "bytecode": "0x6080604052348015600e575f5ffd5b50611b088061001c5f395ff3fe608060405260043610610125575f3560e01c80639010d07c116100a8578063abcbe0b21161006d578063abcbe0b2146103ce578063aef9e0da14610400578063ca15c8731461041f578063ca88054e1461043e578063d547741f1461045d578063fd245b4c1461047c575f5ffd5b80639010d07c146102b15780639164359a146102e857806391d1485414610370578063a217fddf1461038f578063a3246ad3146103a2575f5ffd5b80633937c0b3116100ee5780633937c0b3146101e9578063505f158a1461021b57806359f82f911461023a5780635e5a24a41461026c57806373e0da051461029e575f5ffd5b8062c2ece51461012957806301ffc9a71461015b578063248a9ca31461018a5780632f2ff15d146101a957806336568abe146101ca575b5f5ffd5b348015610134575f5ffd5b50610148610143366004611657565b61049b565b6040519081526020015b60405180910390f35b348015610166575f5ffd5b5061017a6101753660046116cb565b6105db565b6040519015158152602001610152565b348015610195575f5ffd5b506101486101a43660046116f2565b610605565b3480156101b4575f5ffd5b506101c86101c3366004611709565b610625565b005b3480156101d5575f5ffd5b506101c86101e4366004611709565b610647565b3480156101f4575f5ffd5b507fa6b5d83d32632203555cb9b2c2f68a8d94da48cadd9266ac0d17babedb52ea5b610148565b348015610226575f5ffd5b5061017a610235366004611737565b61067f565b348015610245575f5ffd5b507fb6b8360f529bf65be805a119c79f97914e5e29532dc734732a563b5bc869148c610148565b348015610277575f5ffd5b507fd1473398bb66596de5d1ea1fc8e303ff2ac23265adc9144b1b52065dc4f0934b610148565b6101c86102ac366004611657565b6106ab565b3480156102bc575f5ffd5b506102d06102cb366004611752565b6108fb565b6040516001600160a01b039091168152602001610152565b3480156102f3575f5ffd5b50610307610302366004611737565b610928565b60405161015291908151151581526020808301516001600160a01b0390811691830191909152604080840151518216908301526060808401518216908301526080808401519091169082015260a0808301519082015260c0918201519181019190915260e00190565b34801561037b575f5ffd5b5061017a61038a366004611709565b6109fb565b34801561039a575f5ffd5b506101485f81565b3480156103ad575f5ffd5b506103c16103bc3660046116f2565b610a31565b6040516101529190611772565b3480156103d9575f5ffd5b507f4170d100a3a3728ae51207936ee755ecaa64a7f6e9383c642ab204a136f90b1b610148565b34801561040b575f5ffd5b506101c861041a3660046117bd565b610a61565b34801561042a575f5ffd5b506101486104393660046116f2565b610bc3565b348015610449575f5ffd5b506101c86104583660046117fb565b610be7565b348015610468575f5ffd5b506101c8610477366004611709565b610ce8565b348015610487575f5ffd5b5061017a610496366004611737565b610d04565b5f5f846001600160a01b031663190cfb0c6040518163ffffffff1660e01b8152600401602060405180830381865afa1580156104d9573d5f5f3e3d5ffd5b505050506040513d601f19601f820116820180604052508101906104fd919061182b565b90505f61050982610d2e565b90505f6040518060c0016040528061051f610daa565b6001600160401b03168152602001886001600160a01b031681526020018781526020018681526020018360ff16815260200160405180602001604052805f8152508152509050306001600160a01b031663ec8441dc826040518263ffffffff1660e01b815260040161059191906118a4565b602060405180830381865afa1580156105ac573d5f5f3e3d5ffd5b505050506040513d601f19601f820116820180604052508101906105d09190611935565b979650505050505050565b5f6001600160e01b03198216635a05180f60e01b14806105ff57506105ff82610dcd565b92915050565b5f9081525f516020611ab35f395f51905f52602052604090206001015490565b61062e82610605565b61063781610e01565b6106418383610e0e565b50505050565b6001600160a01b03811633146106705760405163334bd91960e11b815260040160405180910390fd5b61067a8282610e50565b505050565b5f6105ff7f4170d100a3a3728ae51207936ee755ecaa64a7f6e9383c642ab204a136f90b1b5b836109fb565b6106d67fd1473398bb66596de5d1ea1fc8e303ff2ac23265adc9144b1b52065dc4f0934b5b336109fb565b6106f35760405163612bde3d60e01b815260040160405180910390fd5b6106fb610e89565b6001600160a01b0383166107225760405163d92e233d60e01b815260040160405180910390fd5b5f836001600160a01b031663190cfb0c6040518163ffffffff1660e01b8152600401602060405180830381865afa15801561075f573d5f5f3e3d5ffd5b505050506040513d601f19601f82011682018060405250810190610783919061182b565b90505f846001600160a01b03166366b8d7796040518163ffffffff1660e01b8152600401602060405180830381865afa1580156107c2573d5f5f3e3d5ffd5b505050506040513d601f19601f820116820180604052508101906107e6919061194c565b90506107f3858383610ed3565b5f6107fd83610d2e565b90505f61080b87878761049b565b6040516305bc726160e21b81523360048201526024810182905290915030906316f1c9849034906044015f604051808303818588803b15801561084c575f5ffd5b505af115801561085e573d5f5f3e3d5ffd5b50505050506108708787878585611104565b826001600160a01b0316845f01516001600160a01b0316336001600160a01b03167f667992399e511b23f08ddd82644d524aa2ec688137801352ab44d0404acea6bf8a8a8a886040516108c69493929190611967565b60405180910390a45050505061067a60017f9b779b17422d0df92223018b32b4d1fa46e071723d6817e2486d003becc55f0055565b5f8281525f516020611a935f395f51905f5260208190526040822061092090846111c1565b949350505050565b6109716040805160e0810182525f808252602080830182905283519081018452908152909182019081525f60208201819052604082018190526060820181905260809091015290565b5f61097a6111cc565b6001600160a01b039384165f9081526020918252604090819020815160e081018352815460ff8116151582526101009004871681850152825193840183526001820154871684529182019290925260028201548516606082015260038201549094166080850152600481015460a08501526005015460c08401525090919050565b5f9182525f516020611ab35f395f51905f52602090815260408084206001600160a01b0393909316845291905290205460ff1690565b5f8181525f516020611a935f395f51905f526020819052604090912060609190610a5a906111f9565b9392505050565b33826001600160a01b0381168214610aa45760405163e93dfc4560e01b81526001600160a01b039283166004820152911660248201526044015b60405180910390fd5b50505f610aaf6111cc565b6001600160a01b038085165f90815260209290925260409091208054909250849161010090910416610b005760405163d6e0102560e01b81526001600160a01b039091166004820152602401610a9b565b508054839060ff16610b3157604051631ba84b4360e01b81526001600160a01b039091166004820152602401610a9b565b5060018101546001600160a01b03165f610b4e6020850185611737565b9050806001600160a01b0316826001600160a01b031603610b70575050505050565b8360018401610b7f82826119b1565b50506040516001600160a01b0380831691848216918816907fdaf2fa9a0a1aa448d7e13c6ae227568d9dd0c91f1ca24596e5b8d51f5edad2fc905f90a45050505050565b5f8181525f516020611a935f395f51905f52602081905260408220610a5a90611205565b610c107fd1473398bb66596de5d1ea1fc8e303ff2ac23265adc9144b1b52065dc4f0934b6106d0565b610c2d5760405163612bde3d60e01b815260040160405180910390fd5b5f610c366111cc565b6001600160a01b038085165f90815260209290925260409091208054909250849161010090910416610c875760405163d6e0102560e01b81526001600160a01b039091166004820152602401610a9b565b50805460ff1615158215151461067a57805460ff191682151590811782556040519081526001600160a01b038416907ff20a78d1fea215478d89296aec0b6898309712e18861f47688dda625e3de6b619060200160405180910390a2505050565b610cf182610605565b610cfa81610e01565b6106418383610e50565b5f6105ff7fb6b8360f529bf65be805a119c79f97914e5e29532dc734732a563b5bc869148c6106a5565b80515f906001600160a01b0316610d4757506012919050565b815f01516001600160a01b031663313ce5676040518163ffffffff1660e01b8152600401602060405180830381865afa158015610d86573d5f5f3e3d5ffd5b505050506040513d601f19601f820116820180604052508101906105ff91906119da565b5f610db361120e565b54610dc8906001600160401b03166001611a0e565b905090565b5f6001600160e01b03198216637965db0b60e01b14806105ff57506301ffc9a760e01b6001600160e01b03198316146105ff565b610e0b813361123b565b50565b5f5f516020611a935f395f51905f5281610e288585611278565b90508015610920575f858152602083905260409020610e479085611319565b50949350505050565b5f5f516020611a935f395f51905f5281610e6a858561132d565b90508015610920575f858152602083905260409020610e4790856113a6565b7f9b779b17422d0df92223018b32b4d1fa46e071723d6817e2486d003becc55f00805460011901610ecd57604051633ee5aeb560e01b815260040160405180910390fd5b60029055565b5f610edc6111cc565b6001600160a01b038581165f908152602083905260409020549192506101009091041615610f1d5760405163dd5f5b4360e01b815260040160405180910390fd5b6040518060e00160405280600115158152602001856001600160a01b03168152602001848152602001836001600160a01b031681526020015f6001600160a01b031681526020015f81526020015f815250815f015f866001600160a01b03166001600160a01b031681526020019081526020015f205f820151815f015f6101000a81548160ff0219169083151502179055506020820151815f0160016101000a8154816001600160a01b0302191690836001600160a01b031602179055506040820151816001015f820151815f015f6101000a8154816001600160a01b0302191690836001600160a01b0316021790555050506060820151816002015f6101000a8154816001600160a01b0302191690836001600160a01b031602179055506080820151816003015f6101000a8154816001600160a01b0302191690836001600160a01b0316021790555060a0820151816004015560c082015181600501559050506040518060a001604052805f81526020015f81526020015f81526020015f81526020015f815250816001015f866001600160a01b03166001600160a01b031681526020019081526020015f205f820151815f01556020820151816001015560408201518160020155606082015181600301556080820151816004015590505050505050565b5f6040518060c001604052806111186113ba565b6001600160401b03168152602001876001600160a01b031681526020018681526020018581526020018460ff16815260200160405180602001604052805f8152508152509050306001600160a01b031663ce09fc0583836040518363ffffffff1660e01b815260040161118b91906118a4565b5f604051808303818588803b1580156111a2575f5ffd5b505af11580156111b4573d5f5f3e3d5ffd5b5050505050505050505050565b5f610a5a8383611401565b5f806105ff60017fbdce9fce78852f4396d00427ddc098ac2e3263701a971553200759a6322f4465611a2d565b60605f610a5a83611427565b5f6105ff825490565b5f806105ff60017f5bb7656ef24c73b7e8f5713e1e3451eff01777c4d0b1e46eb4b823c11d8aa151611a2d565b61124582826109fb565b6112745760405163e2517d3f60e01b81526001600160a01b038216600482015260248101839052604401610a9b565b5050565b5f5f516020611ab35f395f51905f5261129184846109fb565b611310575f848152602082815260408083206001600160a01b03871684529091529020805460ff191660011790556112c63390565b6001600160a01b0316836001600160a01b0316857f2f8788117e7eff1d82e926ec794901d17c78024a50270940304540a733656f0d60405160405180910390a460019150506105ff565b5f9150506105ff565b5f610a5a836001600160a01b038416611480565b5f5f516020611ab35f395f51905f5261134684846109fb565b15611310575f848152602082815260408083206001600160a01b0387168085529252808320805460ff1916905551339287917ff6391f5c32d9c69d2a47ea670b442974b53935d1edc7fd64eb21e047a839171b9190a460019150506105ff565b5f610a5a836001600160a01b0384166114cc565b5f6113c361120e565b80545f906113d9906001600160401b0316611a40565b91906101000a8154816001600160401b0302191690836001600160401b031602179055905090565b5f825f01828154811061141657611416611a6a565b905f5260205f200154905092915050565b6060815f0180548060200260200160405190810160405280929190818152602001828054801561147457602002820191905f5260205f20905b815481526020019060010190808311611460575b50505050509050919050565b5f8181526001830160205260408120546114c557508154600181810184555f8481526020808220909301849055845484825282860190935260409020919091556105ff565b505f6105ff565b5f8181526001830160205260408120548015611310575f6114ee600183611a2d565b85549091505f9061150190600190611a2d565b9050808214611560575f865f01828154811061151f5761151f611a6a565b905f5260205f200154905080875f01848154811061153f5761153f611a6a565b5f918252602080832090910192909255918252600188019052604090208390555b855486908061157157611571611a7e565b600190038181905f5260205f20015f90559055856001015f8681526020019081526020015f205f9055600193505050506105ff565b6001600160a01b0381168114610e0b575f5ffd5b634e487b7160e01b5f52604160045260245ffd5b5f82601f8301126115dd575f5ffd5b81356001600160401b038111156115f6576115f66115ba565b604051601f8201601f19908116603f011681016001600160401b0381118282101715611624576116246115ba565b60405281815283820160200185101561163b575f5ffd5b816020850160208301375f918101602001919091529392505050565b5f5f5f60608486031215611669575f5ffd5b8335611674816115a6565b925060208401356001600160401b0381111561168e575f5ffd5b61169a868287016115ce565b92505060408401356001600160401b038111156116b5575f5ffd5b6116c1868287016115ce565b9150509250925092565b5f602082840312156116db575f5ffd5b81356001600160e01b031981168114610a5a575f5ffd5b5f60208284031215611702575f5ffd5b5035919050565b5f5f6040838503121561171a575f5ffd5b82359150602083013561172c816115a6565b809150509250929050565b5f60208284031215611747575f5ffd5b8135610a5a816115a6565b5f5f60408385031215611763575f5ffd5b50508035926020909101359150565b602080825282518282018190525f918401906040840190835b818110156117b25783516001600160a01b031683526020938401939092019160010161178b565b509095945050505050565b5f5f82840360408112156117cf575f5ffd5b83356117da816115a6565b92506020601f19820112156117ed575f5ffd5b506020830190509250929050565b5f5f6040838503121561180c575f5ffd5b8235611817816115a6565b91506020830135801515811461172c575f5ffd5b5f602082840312801561183c575f5ffd5b50604051602081016001600160401b038111828210171561185f5761185f6115ba565b604052825161186d816115a6565b81529392505050565b5f81518084528060208401602086015e5f602082860101526020601f19601f83011685010191505092915050565b602081526001600160401b03825116602082015260018060a01b0360208301511660408201525f604083015160c060608401526118e460e0840182611876565b90506060840151601f198483030160808501526119018282611876565b91505060ff60808501511660a084015260a0840151601f198483030160c085015261192c8282611876565b95945050505050565b5f60208284031215611945575f5ffd5b5051919050565b5f6020828403121561195c575f5ffd5b8151610a5a816115a6565b6001600160a01b03851681526080602082018190525f9061198a90830186611876565b828103604084015261199c8186611876565b91505060ff8316606083015295945050505050565b81356119bc816115a6565b81546001600160a01b0319166001600160a01b039190911617905550565b5f602082840312156119ea575f5ffd5b815160ff81168114610a5a575f5ffd5b634e487b7160e01b5f52601160045260245ffd5b6001600160401b0381811683821601908111156105ff576105ff6119fa565b818103818111156105ff576105ff6119fa565b5f6001600160401b0382166001600160401b038103611a6157611a616119fa565b60010192915050565b634e487b7160e01b5f52603260045260245ffd5b634e487b7160e01b5f52603160045260245ffdfec1f6fe24621ce81ec5827caf0253cadb74709b061630e6b55e8237170593200002dd7bc7dec4dceedda775e58dd541e08a116c6c53815c0bd028192f7b626800a2646970667358221220751dfcf82e0e82176de8a9543183b5e6f96def86ee2cbf3bc6a94e6fb676df8964736f6c634300081b0033",
  "linkReferences": {},
  "deployedLinkReferences": {}
}