{
  "_format": "hh-sol-artifact-1",
  "contractName": "StakeRewardRoute",
  "sourceName": "contracts/hyperstaking/facets/routes/StakeRewardRoute.sol",
  "abi": [
    {
      "inputs": [],
      "name": "AccessControlBadConfirmation",
      "type": "error"
    },
    {
      "inputs": [
        {
          "internalType": "address",
          "name": "account",
          "type": "address"
        },
        {
          "internalType": "bytes32",
          "name": "neededRole",
          "type": "bytes32"
        }
      ],
      "name": "AccessControlUnauthorizedAccount",
      "type": "error"
    },
    {
      "inputs": [],
      "name": "DestinationUnset",
      "type": "error"
    },
    {
      "inputs": [],
      "name": "InvalidInitialization",
      "type": "error"
    },
    {
      "inputs": [],
      "name": "NotInitializing",
      "type": "error"
    },
    {
      "inputs": [],
      "name": "OnlyDiamondInternal",
      "type": "error"
    },
    {
      "inputs": [],
      "name": "OnlyStakingManager",
      "type": "error"
    },
    {
      "inputs": [],
      "name": "OnlyStrategyManager",
      "type": "error"
    },
    {
      "inputs": [],
      "name": "OnlyStrategyUpgrader",
      "type": "error"
    },
    {
      "inputs": [],
      "name": "OnlyVaultManager",
      "type": "error"
    },
    {
      "inputs": [],
      "name": "RecipientUnset",
      "type": "error"
    },
    {
      "anonymous": false,
      "inputs": [
        {
          "indexed": false,
          "internalType": "uint64",
          "name": "version",
          "type": "uint64"
        }
      ],
      "name": "Initialized",
      "type": "event"
    },
    {
      "anonymous": false,
      "inputs": [
        {
          "indexed": true,
          "internalType": "bytes32",
          "name": "role",
          "type": "bytes32"
        },
        {
          "indexed": true,
          "internalType": "bytes32",
          "name": "previousAdminRole",
          "type": "bytes32"
        },
        {
          "indexed": true,
          "internalType": "bytes32",
          "name": "newAdminRole",
          "type": "bytes32"
        }
      ],
      "name": "RoleAdminChanged",
      "type": "event"
    },
    {
      "anonymous": false,
      "inputs": [
        {
          "indexed": true,
          "internalType": "bytes32",
          "name": "role",
          "type": "bytes32"
        },
        {
          "indexed": true,
          "internalType": "address",
          "name": "account",
          "type": "address"
        },
        {
          "indexed": true,
          "internalType": "address",
          "name": "sender",
          "type": "address"
        }
      ],
      "name": "RoleGranted",
      "type": "event"
    },
    {
      "anonymous": false,
      "inputs": [
        {
          "indexed": true,
          "internalType": "bytes32",
          "name": "role",
          "type": "bytes32"
        },
        {
          "indexed": true,
          "internalType": "address",
          "name": "account",
          "type": "address"
        },
        {
          "indexed": true,
          "internalType": "address",
          "name": "sender",
          "type": "address"
        }
      ],
      "name": "RoleRevoked",
      "type": "event"
    },
    {
      "anonymous": false,
      "inputs": [
        {
          "indexed": true,
          "internalType": "address",
          "name": "mailbox",
          "type": "address"
        },
        {
          "indexed": false,
          "internalType": "address",
          "name": "lumiaFactory",
          "type": "address"
        },
        {
          "indexed": false,
          "internalType": "uint64",
          "name": "nonce",
          "type": "uint64"
        },
        {
          "indexed": true,
          "internalType": "address",
          "name": "strategy",
          "type": "address"
        },
        {
          "indexed": false,
          "internalType": "uint256",
          "name": "stake",
          "type": "uint256"
        }
      ],
      "name": "StakeRewardDispatched",
      "type": "event"
    },
    {
      "inputs": [],
      "name": "DEFAULT_ADMIN_ROLE",
      "outputs": [
        {
          "internalType": "bytes32",
          "name": "",
          "type": "bytes32"
        }
      ],
      "stateMutability": "view",
      "type": "function"
    },
    {
      "inputs": [],
      "name": "STAKING_MANAGER_ROLE",
      "outputs": [
        {
          "internalType": "bytes32",
          "name": "",
          "type": "bytes32"
        }
      ],
      "stateMutability": "pure",
      "type": "function"
    },
    {
      "inputs": [],
      "name": "STRATEGY_MANAGER_ROLE",
      "outputs": [
        {
          "internalType": "bytes32",
          "name": "",
          "type": "bytes32"
        }
      ],
      "stateMutability": "pure",
      "type": "function"
    },
    {
      "inputs": [],
      "name": "STRATEGY_UPGRADER_ROLE",
      "outputs": [
        {
          "internalType": "bytes32",
          "name": "",
          "type": "bytes32"
        }
      ],
      "stateMutability": "pure",
      "type": "function"
    },
    {
      "inputs": [],
      "name": "VAULT_MANAGER_ROLE",
      "outputs": [
        {
          "internalType": "bytes32",
          "name": "",
          "type": "bytes32"
        }
      ],
      "stateMutability": "pure",
      "type": "function"
    },
    {
      "inputs": [
        {
          "components": [
            {
              "internalType": "uint64",
              "name": "nonce",
              "type": "uint64"
            },
            {
              "internalType": "address",
              "name": "strategy",
              "type": "address"
            },
            {
              "internalType": "uint256",
              "name": "stakeAdded",
              "type": "uint256"
            }
          ],
          "internalType": "struct StakeRewardData",
          "name": "data",
          "type": "tuple"
        }
      ],
      "name": "generateStakeRewardBody",
      "outputs": [
        {
          "internalType": "bytes",
          "name": "body",
          "type": "bytes"
        }
      ],
      "stateMutability": "pure",
      "type": "function"
    },
    {
      "inputs": [
        {
          "internalType": "bytes32",
          "name": "role",
          "type": "bytes32"
        }
      ],
      "name": "getRoleAdmin",
      "outputs": [
        {
          "internalType": "bytes32",
          "name": "",
          "type": "bytes32"
        }
      ],
      "stateMutability": "view",
      "type": "function"
    },
    {
      "inputs": [
        {
          "internalType": "bytes32",
          "name": "role",
          "type": "bytes32"
        },
        {
          "internalType": "uint256",
          "name": "index",
          "type": "uint256"
        }
      ],
      "name": "getRoleMember",
      "outputs": [
        {
          "internalType": "address",
          "name": "",
          "type": "address"
        }
      ],
      "stateMutability": "view",
      "type": "function"
    },
    {
      "inputs": [
        {
          "internalType": "bytes32",
          "name": "role",
          "type": "bytes32"
        }
      ],
      "name": "getRoleMemberCount",
      "outputs": [
        {
          "internalType": "uint256",
          "name": "",
          "type": "uint256"
        }
      ],
      "stateMutability": "view",
      "type": "function"
    },
    {
      "inputs": [
        {
          "internalType": "bytes32",
          "name": "role",
          "type": "bytes32"
        }
      ],
      "name": "getRoleMembers",
      "outputs": [
        {
          "internalType": "address[]",
          "name": "",
          "type": "address[]"
        }
      ],
      "stateMutability": "view",
      "type": "function"
    },
    {
      "inputs": [
        {
          "internalType": "bytes32",
          "name": "role",
          "type": "bytes32"
        },
        {
          "internalType": "address",
          "name": "account",
          "type": "address"
        }
      ],
      "name": "grantRole",
      "outputs": [],
      "stateMutability": "nonpayable",
      "type": "function"
    },
    {
      "inputs": [
        {
          "internalType": "bytes32",
          "name": "role",
          "type": "bytes32"
        },
        {
          "internalType": "address",
          "name": "account",
          "type": "address"
        }
      ],
      "name": "hasRole",
      "outputs": [
        {
          "internalType": "bool",
          "name": "",
          "type": "bool"
        }
      ],
      "stateMutability": "view",
      "type": "function"
    },
    {
      "inputs": [
        {
          "internalType": "address",
          "name": "account",
          "type": "address"
        }
      ],
      "name": "hasStrategyManagerRole",
      "outputs": [
        {
          "internalType": "bool",
          "name": "",
          "type": "bool"
        }
      ],
      "stateMutability": "view",
      "type": "function"
    },
    {
      "inputs": [
        {
          "internalType": "address",
          "name": "account",
          "type": "address"
        }
      ],
      "name": "hasStrategyUpgraderRole",
      "outputs": [
        {
          "internalType": "bool",
          "name": "",
          "type": "bool"
        }
      ],
      "stateMutability": "view",
      "type": "function"
    },
    {
      "inputs": [
        {
          "components": [
            {
              "internalType": "uint64",
              "name": "nonce",
              "type": "uint64"
            },
            {
              "internalType": "address",
              "name": "strategy",
              "type": "address"
            },
            {
              "internalType": "uint256",
              "name": "stakeAdded",
              "type": "uint256"
            }
          ],
          "internalType": "struct StakeRewardData",
          "name": "data",
          "type": "tuple"
        }
      ],
      "name": "quoteDispatchStakeReward",
      "outputs": [
        {
          "internalType": "uint256",
          "name": "",
          "type": "uint256"
        }
      ],
      "stateMutability": "view",
      "type": "function"
    },
    {
      "inputs": [
        {
          "internalType": "bytes32",
          "name": "role",
          "type": "bytes32"
        },
        {
          "internalType": "address",
          "name": "callerConfirmation",
          "type": "address"
        }
      ],
      "name": "renounceRole",
      "outputs": [],
      "stateMutability": "nonpayable",
      "type": "function"
    },
    {
      "inputs": [
        {
          "internalType": "bytes32",
          "name": "role",
          "type": "bytes32"
        },
        {
          "internalType": "address",
          "name": "account",
          "type": "address"
        }
      ],
      "name": "revokeRole",
      "outputs": [],
      "stateMutability": "nonpayable",
      "type": "function"
    },
    {
      "inputs": [
        {
          "components": [
            {
              "internalType": "uint64",
              "name": "nonce",
              "type": "uint64"
            },
            {
              "internalType": "address",
              "name": "strategy",
              "type": "address"
            },
            {
              "internalType": "uint256",
              "name": "stakeAdded",
              "type": "uint256"
            }
          ],
          "internalType": "struct StakeRewardData",
          "name": "data",
          "type": "tuple"
        }
      ],
      "name": "stakeRewardDispatch",
      "outputs": [],
      "stateMutability": "payable",
      "type": "function"
    },
    {
      "inputs": [
        {
          "internalType": "bytes4",
          "name": "interfaceId",
          "type": "bytes4"
        }
      ],
      "name": "supportsInterface",
      "outputs": [
        {
          "internalType": "bool",
          "name": "",
          "type": "bool"
        }
      ],
      "stateMutability": "view",
      "type": "function"
    }
  ],
  "bytecode": "0x6080604052348015600e575f5ffd5b50610f768061001c5f395ff3fe608060405260043610610110575f3560e01c80639010d07c1161009d578063abcbe0b211610062578063abcbe0b214610331578063ca15c87314610363578063d547741f14610382578063e9109ed7146103a1578063fd245b4c146103cd575f5ffd5b80639010d07c1461028957806391d14854146102c0578063a217fddf146102df578063a3246ad3146102f2578063a8505e411461031e575f5ffd5b806336568abe116100e357806336568abe146101b55780633937c0b3146101d4578063505f158a1461020657806359f82f91146102255780635e5a24a414610257575f5ffd5b806301ffc9a714610114578063248a9ca31461014857806329293b11146101755780632f2ff15d14610194575b5f5ffd5b34801561011f575f5ffd5b5061013361012e366004610cad565b6103ec565b60405190151581526020015b60405180910390f35b348015610153575f5ffd5b50610167610162366004610cd4565b610416565b60405190815260200161013f565b348015610180575f5ffd5b5061016761018f366004610d06565b610436565b34801561019f575f5ffd5b506101b36101ae366004610d87565b6104e3565b005b3480156101c0575f5ffd5b506101b36101cf366004610d87565b610505565b3480156101df575f5ffd5b507fa6b5d83d32632203555cb9b2c2f68a8d94da48cadd9266ac0d17babedb52ea5b610167565b348015610211575f5ffd5b50610133610220366004610db1565b61053d565b348015610230575f5ffd5b507fb6b8360f529bf65be805a119c79f97914e5e29532dc734732a563b5bc869148c610167565b348015610262575f5ffd5b507fd1473398bb66596de5d1ea1fc8e303ff2ac23265adc9144b1b52065dc4f0934b610167565b348015610294575f5ffd5b506102a86102a3366004610dca565b610569565b6040516001600160a01b03909116815260200161013f565b3480156102cb575f5ffd5b506101336102da366004610d87565b610596565b3480156102ea575f5ffd5b506101675f81565b3480156102fd575f5ffd5b5061031161030c366004610cd4565b6105cc565b60405161013f9190610dea565b6101b361032c366004610d06565b6105f5565b34801561033c575f5ffd5b507f4170d100a3a3728ae51207936ee755ecaa64a7f6e9383c642ab204a136f90b1b610167565b34801561036e575f5ffd5b5061016761037d366004610cd4565b6107a0565b34801561038d575f5ffd5b506101b361039c366004610d87565b6107c4565b3480156103ac575f5ffd5b506103c06103bb366004610d06565b6107e0565b60405161013f9190610e63565b3480156103d8575f5ffd5b506101336103e7366004610db1565b6107eb565b5f6001600160e01b03198216635a05180f60e01b1480610410575061041082610815565b92915050565b5f9081525f516020610f215f395f51905f52602052604090206001015490565b5f5f610440610849565b60058101805460078301546008909301549193506001600160a01b0390811692639c42bd1892600160a01b90910463ffffffff16911661047f876107e0565b6040518463ffffffff1660e01b815260040161049d93929190610e75565b602060405180830381865afa1580156104b8573d5f5f3e3d5ffd5b505050506040513d601f19601f820116820180604052508101906104dc9190610ea2565b9392505050565b6104ec82610416565b6104f581610876565b6104ff8383610883565b50505050565b6001600160a01b038116331461052e5760405163334bd91960e11b815260040160405180910390fd5b61053882826108c5565b505050565b5f6104107f4170d100a3a3728ae51207936ee755ecaa64a7f6e9383c642ab204a136f90b1b5b83610596565b5f8281525f516020610f015f395f51905f5260208190526040822061058e90846108fe565b949350505050565b5f9182525f516020610f215f395f51905f52602090815260408084206001600160a01b0393909316845291905290205460ff1690565b5f8181525f516020610f015f395f51905f5260208190526040909120606091906104dc90610909565b3330146106155760405163d248bf1560e01b815260040160405180910390fd5b5f61061e610849565b6008810154600590910191506001600160a01b0316610650576040516394d1b98f60e01b815260040160405180910390fd5b6002810154600160a01b900463ffffffff165f0361068157604051632490a0bf60e11b815260040160405180910390fd5b5f61068b836107e0565b60038301549091505f906001600160a01b03168354600285015460405163fa31de0160e01b81529293506001600160a01b039091169163fa31de019134916106e791600160a01b900463ffffffff169086908890600401610e75565b60206040518083038185885af1158015610703573d5f5f3e3d5ffd5b50505050506040513d601f19601f820116820180604052508101906107289190610ea2565b506020848101518454600386015487516040808a015181516001600160a01b03948516815267ffffffffffffffff90931696830196909652810194909452918216929116907faffa586a3600a371151d8f059e1b8efd2eb5e19375b2bf8346c4384ce7f5cd6d9060600160405180910390a350505050565b5f8181525f516020610f015f395f51905f526020819052604082206104dc90610915565b6107cd82610416565b6107d681610876565b6104ff83836108c5565b60606104108261091e565b5f6104107fb6b8360f529bf65be805a119c79f97914e5e29532dc734732a563b5bc869148c610563565b5f6001600160e01b03198216637965db0b60e01b148061041057506301ffc9a760e01b6001600160e01b0319831614610410565b5f8061041060017fbdce9fce78852f4396d00427ddc098ac2e3263701a971553200759a6322f4465610eb9565b6108808133610985565b50565b5f5f516020610f015f395f51905f528161089d85856109c6565b9050801561058e575f8581526020839052604090206108bc9085610a67565b50949350505050565b5f5f516020610f015f395f51905f52816108df8585610a7b565b9050801561058e575f8581526020839052604090206108bc9085610af4565b5f6104dc8383610b08565b60605f6104dc83610b2e565b5f610410825490565b6060600260c01b825f015160c01b61094084602001516001600160a01b031690565b60408086015190516001600160c01b03199485166020820152939092166028840152603083015260508201526070016040516020818303038152906040529050919050565b61098f8282610596565b6109c25760405163e2517d3f60e01b81526001600160a01b03821660048201526024810183905260440160405180910390fd5b5050565b5f5f516020610f215f395f51905f526109df8484610596565b610a5e575f848152602082815260408083206001600160a01b03871684529091529020805460ff19166001179055610a143390565b6001600160a01b0316836001600160a01b0316857f2f8788117e7eff1d82e926ec794901d17c78024a50270940304540a733656f0d60405160405180910390a46001915050610410565b5f915050610410565b5f6104dc836001600160a01b038416610b87565b5f5f516020610f215f395f51905f52610a948484610596565b15610a5e575f848152602082815260408083206001600160a01b0387168085529252808320805460ff1916905551339287917ff6391f5c32d9c69d2a47ea670b442974b53935d1edc7fd64eb21e047a839171b9190a46001915050610410565b5f6104dc836001600160a01b038416610bd3565b5f825f018281548110610b1d57610b1d610ed8565b905f5260205f200154905092915050565b6060815f01805480602002602001604051908101604052809291908181526020018280548015610b7b57602002820191905f5260205f20905b815481526020019060010190808311610b67575b50505050509050919050565b5f818152600183016020526040812054610bcc57508154600181810184555f848152602080822090930184905584548482528286019093526040902091909155610410565b505f610410565b5f8181526001830160205260408120548015610a5e575f610bf5600183610eb9565b85549091505f90610c0890600190610eb9565b9050808214610c67575f865f018281548110610c2657610c26610ed8565b905f5260205f200154905080875f018481548110610c4657610c46610ed8565b5f918252602080832090910192909255918252600188019052604090208390555b8554869080610c7857610c78610eec565b600190038181905f5260205f20015f90559055856001015f8681526020019081526020015f205f905560019350505050610410565b5f60208284031215610cbd575f5ffd5b81356001600160e01b0319811681146104dc575f5ffd5b5f60208284031215610ce4575f5ffd5b5035919050565b80356001600160a01b0381168114610d01575f5ffd5b919050565b5f6060828403128015610d17575f5ffd5b506040516060810167ffffffffffffffff81118282101715610d4757634e487b7160e01b5f52604160045260245ffd5b604052823567ffffffffffffffff81168114610d61575f5ffd5b8152610d6f60208401610ceb565b60208201526040928301359281019290925250919050565b5f5f60408385031215610d98575f5ffd5b82359150610da860208401610ceb565b90509250929050565b5f60208284031215610dc1575f5ffd5b6104dc82610ceb565b5f5f60408385031215610ddb575f5ffd5b50508035926020909101359150565b602080825282518282018190525f918401906040840190835b81811015610e2a5783516001600160a01b0316835260209384019390920191600101610e03565b509095945050505050565b5f81518084528060208401602086015e5f602082860101526020601f19601f83011685010191505092915050565b602081525f6104dc6020830184610e35565b63ffffffff84168152826020820152606060408201525f610e996060830184610e35565b95945050505050565b5f60208284031215610eb2575f5ffd5b5051919050565b8181038181111561041057634e487b7160e01b5f52601160045260245ffd5b634e487b7160e01b5f52603260045260245ffd5b634e487b7160e01b5f52603160045260245ffdfec1f6fe24621ce81ec5827caf0253cadb74709b061630e6b55e8237170593200002dd7bc7dec4dceedda775e58dd541e08a116c6c53815c0bd028192f7b626800a2646970667358221220acf8e9b46082bade65f39383106aba59df20ddab52f3abc87b17a493f785a48864736f6c634300081b0033",
  "linkReferences": {},
  "deployedLinkReferences": {}
}