{
  "_format": "hh-sol-artifact-1",
  "contractName": "HyperStakingAcl",
  "sourceName": "contracts/hyperstaking/HyperStakingAcl.sol",
  "abi": [
    {
      "inputs": [],
      "name": "AccessControlBadConfirmation",
      "type": "error"
    },
    {
      "inputs": [
        {
          "internalType": "address",
          "name": "account",
          "type": "address"
        },
        {
          "internalType": "bytes32",
          "name": "neededRole",
          "type": "bytes32"
        }
      ],
      "name": "AccessControlUnauthorizedAccount",
      "type": "error"
    },
    {
      "inputs": [],
      "name": "InvalidInitialization",
      "type": "error"
    },
    {
      "inputs": [],
      "name": "NotInitializing",
      "type": "error"
    },
    {
      "inputs": [],
      "name": "OnlyDiamondInternal",
      "type": "error"
    },
    {
      "inputs": [],
      "name": "OnlyStakingManager",
      "type": "error"
    },
    {
      "inputs": [],
      "name": "OnlyStrategyManager",
      "type": "error"
    },
    {
      "inputs": [],
      "name": "OnlyStrategyUpgrader",
      "type": "error"
    },
    {
      "inputs": [],
      "name": "OnlyVaultManager",
      "type": "error"
    },
    {
      "anonymous": false,
      "inputs": [
        {
          "indexed": false,
          "internalType": "uint64",
          "name": "version",
          "type": "uint64"
        }
      ],
      "name": "Initialized",
      "type": "event"
    },
    {
      "anonymous": false,
      "inputs": [
        {
          "indexed": true,
          "internalType": "bytes32",
          "name": "role",
          "type": "bytes32"
        },
        {
          "indexed": true,
          "internalType": "bytes32",
          "name": "previousAdminRole",
          "type": "bytes32"
        },
        {
          "indexed": true,
          "internalType": "bytes32",
          "name": "newAdminRole",
          "type": "bytes32"
        }
      ],
      "name": "RoleAdminChanged",
      "type": "event"
    },
    {
      "anonymous": false,
      "inputs": [
        {
          "indexed": true,
          "internalType": "bytes32",
          "name": "role",
          "type": "bytes32"
        },
        {
          "indexed": true,
          "internalType": "address",
          "name": "account",
          "type": "address"
        },
        {
          "indexed": true,
          "internalType": "address",
          "name": "sender",
          "type": "address"
        }
      ],
      "name": "RoleGranted",
      "type": "event"
    },
    {
      "anonymous": false,
      "inputs": [
        {
          "indexed": true,
          "internalType": "bytes32",
          "name": "role",
          "type": "bytes32"
        },
        {
          "indexed": true,
          "internalType": "address",
          "name": "account",
          "type": "address"
        },
        {
          "indexed": true,
          "internalType": "address",
          "name": "sender",
          "type": "address"
        }
      ],
      "name": "RoleRevoked",
      "type": "event"
    },
    {
      "inputs": [],
      "name": "DEFAULT_ADMIN_ROLE",
      "outputs": [
        {
          "internalType": "bytes32",
          "name": "",
          "type": "bytes32"
        }
      ],
      "stateMutability": "view",
      "type": "function"
    },
    {
      "inputs": [],
      "name": "STAKING_MANAGER_ROLE",
      "outputs": [
        {
          "internalType": "bytes32",
          "name": "",
          "type": "bytes32"
        }
      ],
      "stateMutability": "pure",
      "type": "function"
    },
    {
      "inputs": [],
      "name": "STRATEGY_MANAGER_ROLE",
      "outputs": [
        {
          "internalType": "bytes32",
          "name": "",
          "type": "bytes32"
        }
      ],
      "stateMutability": "pure",
      "type": "function"
    },
    {
      "inputs": [],
      "name": "STRATEGY_UPGRADER_ROLE",
      "outputs": [
        {
          "internalType": "bytes32",
          "name": "",
          "type": "bytes32"
        }
      ],
      "stateMutability": "pure",
      "type": "function"
    },
    {
      "inputs": [],
      "name": "VAULT_MANAGER_ROLE",
      "outputs": [
        {
          "internalType": "bytes32",
          "name": "",
          "type": "bytes32"
        }
      ],
      "stateMutability": "pure",
      "type": "function"
    },
    {
      "inputs": [
        {
          "internalType": "bytes32",
          "name": "role",
          "type": "bytes32"
        }
      ],
      "name": "getRoleAdmin",
      "outputs": [
        {
          "internalType": "bytes32",
          "name": "",
          "type": "bytes32"
        }
      ],
      "stateMutability": "view",
      "type": "function"
    },
    {
      "inputs": [
        {
          "internalType": "bytes32",
          "name": "role",
          "type": "bytes32"
        },
        {
          "internalType": "uint256",
          "name": "index",
          "type": "uint256"
        }
      ],
      "name": "getRoleMember",
      "outputs": [
        {
          "internalType": "address",
          "name": "",
          "type": "address"
        }
      ],
      "stateMutability": "view",
      "type": "function"
    },
    {
      "inputs": [
        {
          "internalType": "bytes32",
          "name": "role",
          "type": "bytes32"
        }
      ],
      "name": "getRoleMemberCount",
      "outputs": [
        {
          "internalType": "uint256",
          "name": "",
          "type": "uint256"
        }
      ],
      "stateMutability": "view",
      "type": "function"
    },
    {
      "inputs": [
        {
          "internalType": "bytes32",
          "name": "role",
          "type": "bytes32"
        }
      ],
      "name": "getRoleMembers",
      "outputs": [
        {
          "internalType": "address[]",
          "name": "",
          "type": "address[]"
        }
      ],
      "stateMutability": "view",
      "type": "function"
    },
    {
      "inputs": [
        {
          "internalType": "bytes32",
          "name": "role",
          "type": "bytes32"
        },
        {
          "internalType": "address",
          "name": "account",
          "type": "address"
        }
      ],
      "name": "grantRole",
      "outputs": [],
      "stateMutability": "nonpayable",
      "type": "function"
    },
    {
      "inputs": [
        {
          "internalType": "bytes32",
          "name": "role",
          "type": "bytes32"
        },
        {
          "internalType": "address",
          "name": "account",
          "type": "address"
        }
      ],
      "name": "hasRole",
      "outputs": [
        {
          "internalType": "bool",
          "name": "",
          "type": "bool"
        }
      ],
      "stateMutability": "view",
      "type": "function"
    },
    {
      "inputs": [
        {
          "internalType": "address",
          "name": "account",
          "type": "address"
        }
      ],
      "name": "hasStrategyManagerRole",
      "outputs": [
        {
          "internalType": "bool",
          "name": "",
          "type": "bool"
        }
      ],
      "stateMutability": "view",
      "type": "function"
    },
    {
      "inputs": [
        {
          "internalType": "address",
          "name": "account",
          "type": "address"
        }
      ],
      "name": "hasStrategyUpgraderRole",
      "outputs": [
        {
          "internalType": "bool",
          "name": "",
          "type": "bool"
        }
      ],
      "stateMutability": "view",
      "type": "function"
    },
    {
      "inputs": [
        {
          "internalType": "bytes32",
          "name": "role",
          "type": "bytes32"
        },
        {
          "internalType": "address",
          "name": "callerConfirmation",
          "type": "address"
        }
      ],
      "name": "renounceRole",
      "outputs": [],
      "stateMutability": "nonpayable",
      "type": "function"
    },
    {
      "inputs": [
        {
          "internalType": "bytes32",
          "name": "role",
          "type": "bytes32"
        },
        {
          "internalType": "address",
          "name": "account",
          "type": "address"
        }
      ],
      "name": "revokeRole",
      "outputs": [],
      "stateMutability": "nonpayable",
      "type": "function"
    },
    {
      "inputs": [
        {
          "internalType": "bytes4",
          "name": "interfaceId",
          "type": "bytes4"
        }
      ],
      "name": "supportsInterface",
      "outputs": [
        {
          "internalType": "bool",
          "name": "",
          "type": "bool"
        }
      ],
      "stateMutability": "view",
      "type": "function"
    }
  ],
  "bytecode": "0x6080604052348015600e575f5ffd5b50610a4e8061001c5f395ff3fe608060405234801561000f575f5ffd5b50600436106100fb575f3560e01c80639010d07c11610093578063abcbe0b211610063578063abcbe0b21461025a578063ca15c87314610280578063d547741f14610293578063fd245b4c146102a6575f5ffd5b80639010d07c146101f557806391d1485414610220578063a217fddf14610233578063a3246ad31461023a575f5ffd5b80633937c0b3116100ce5780633937c0b314610170578063505f158a1461019657806359f82f91146101a95780635e5a24a4146101cf575f5ffd5b806301ffc9a7146100ff578063248a9ca3146101275780632f2ff15d1461014857806336568abe1461015d575b5f5ffd5b61011261010d36600461088a565b6102b9565b60405190151581526020015b60405180910390f35b61013a6101353660046108b1565b6102e3565b60405190815260200161011e565b61015b6101563660046108e3565b610303565b005b61015b61016b3660046108e3565b610325565b7fa6b5d83d32632203555cb9b2c2f68a8d94da48cadd9266ac0d17babedb52ea5b61013a565b6101126101a436600461090d565b61035d565b7fb6b8360f529bf65be805a119c79f97914e5e29532dc734732a563b5bc869148c61013a565b7fd1473398bb66596de5d1ea1fc8e303ff2ac23265adc9144b1b52065dc4f0934b61013a565b610208610203366004610926565b610389565b6040516001600160a01b03909116815260200161011e565b61011261022e3660046108e3565b6103b6565b61013a5f81565b61024d6102483660046108b1565b6103ec565b60405161011e9190610946565b7f4170d100a3a3728ae51207936ee755ecaa64a7f6e9383c642ab204a136f90b1b61013a565b61013a61028e3660046108b1565b61041c565b61015b6102a13660046108e3565b610440565b6101126102b436600461090d565b61045c565b5f6001600160e01b03198216635a05180f60e01b14806102dd57506102dd82610486565b92915050565b5f9081525f5160206109f95f395f51905f52602052604090206001015490565b61030c826102e3565b610315816104ba565b61031f83836104c7565b50505050565b6001600160a01b038116331461034e5760405163334bd91960e11b815260040160405180910390fd5b6103588282610509565b505050565b5f6102dd7f4170d100a3a3728ae51207936ee755ecaa64a7f6e9383c642ab204a136f90b1b5b836103b6565b5f8281525f5160206109d95f395f51905f526020819052604082206103ae9084610542565b949350505050565b5f9182525f5160206109f95f395f51905f52602090815260408084206001600160a01b0393909316845291905290205460ff1690565b5f8181525f5160206109d95f395f51905f5260208190526040909120606091906104159061054d565b9392505050565b5f8181525f5160206109d95f395f51905f5260208190526040822061041590610559565b610449826102e3565b610452816104ba565b61031f8383610509565b5f6102dd7fb6b8360f529bf65be805a119c79f97914e5e29532dc734732a563b5bc869148c610383565b5f6001600160e01b03198216637965db0b60e01b14806102dd57506301ffc9a760e01b6001600160e01b03198316146102dd565b6104c48133610562565b50565b5f5f5160206109d95f395f51905f52816104e185856105a3565b905080156103ae575f8581526020839052604090206105009085610644565b50949350505050565b5f5f5160206109d95f395f51905f52816105238585610658565b905080156103ae575f85815260208390526040902061050090856106d1565b5f61041583836106e5565b60605f6104158361070b565b5f6102dd825490565b61056c82826103b6565b61059f5760405163e2517d3f60e01b81526001600160a01b03821660048201526024810183905260440160405180910390fd5b5050565b5f5f5160206109f95f395f51905f526105bc84846103b6565b61063b575f848152602082815260408083206001600160a01b03871684529091529020805460ff191660011790556105f13390565b6001600160a01b0316836001600160a01b0316857f2f8788117e7eff1d82e926ec794901d17c78024a50270940304540a733656f0d60405160405180910390a460019150506102dd565b5f9150506102dd565b5f610415836001600160a01b038416610764565b5f5f5160206109f95f395f51905f5261067184846103b6565b1561063b575f848152602082815260408083206001600160a01b0387168085529252808320805460ff1916905551339287917ff6391f5c32d9c69d2a47ea670b442974b53935d1edc7fd64eb21e047a839171b9190a460019150506102dd565b5f610415836001600160a01b0384166107b0565b5f825f0182815481106106fa576106fa610991565b905f5260205f200154905092915050565b6060815f0180548060200260200160405190810160405280929190818152602001828054801561075857602002820191905f5260205f20905b815481526020019060010190808311610744575b50505050509050919050565b5f8181526001830160205260408120546107a957508154600181810184555f8481526020808220909301849055845484825282860190935260409020919091556102dd565b505f6102dd565b5f818152600183016020526040812054801561063b575f6107d26001836109a5565b85549091505f906107e5906001906109a5565b9050808214610844575f865f01828154811061080357610803610991565b905f5260205f200154905080875f01848154811061082357610823610991565b5f918252602080832090910192909255918252600188019052604090208390555b8554869080610855576108556109c4565b600190038181905f5260205f20015f90559055856001015f8681526020019081526020015f205f9055600193505050506102dd565b5f6020828403121561089a575f5ffd5b81356001600160e01b031981168114610415575f5ffd5b5f602082840312156108c1575f5ffd5b5035919050565b80356001600160a01b03811681146108de575f5ffd5b919050565b5f5f604083850312156108f4575f5ffd5b82359150610904602084016108c8565b90509250929050565b5f6020828403121561091d575f5ffd5b610415826108c8565b5f5f60408385031215610937575f5ffd5b50508035926020909101359150565b602080825282518282018190525f918401906040840190835b818110156109865783516001600160a01b031683526020938401939092019160010161095f565b509095945050505050565b634e487b7160e01b5f52603260045260245ffd5b818103818111156102dd57634e487b7160e01b5f52601160045260245ffd5b634e487b7160e01b5f52603160045260245ffdfec1f6fe24621ce81ec5827caf0253cadb74709b061630e6b55e8237170593200002dd7bc7dec4dceedda775e58dd541e08a116c6c53815c0bd028192f7b626800a2646970667358221220831239bd7c11fda48252b99ab2dbb215274b79a05b2b71b95e3c86c78b331fe664736f6c634300081b0033",
  "linkReferences": {},
  "deployedLinkReferences": {}
}