{
  "_format": "hh-sol-artifact-1",
  "contractName": "DepositFacet",
  "sourceName": "contracts/hyperstaking/facets/DepositFacet.sol",
  "abi": [
    {
      "inputs": [],
      "name": "AccessControlBadConfirmation",
      "type": "error"
    },
    {
      "inputs": [
        {
          "internalType": "address",
          "name": "account",
          "type": "address"
        },
        {
          "internalType": "bytes32",
          "name": "neededRole",
          "type": "bytes32"
        }
      ],
      "name": "AccessControlUnauthorizedAccount",
      "type": "error"
    },
    {
      "inputs": [],
      "name": "BadRequestType",
      "type": "error"
    },
    {
      "inputs": [
        {
          "internalType": "uint256",
          "name": "id",
          "type": "uint256"
        }
      ],
      "name": "ClaimNotFound",
      "type": "error"
    },
    {
      "inputs": [],
      "name": "ClaimToZeroAddress",
      "type": "error"
    },
    {
      "inputs": [
        {
          "internalType": "uint64",
          "name": "time",
          "type": "uint64"
        },
        {
          "internalType": "uint64",
          "name": "unlockTime",
          "type": "uint64"
        }
      ],
      "name": "ClaimTooEarly",
      "type": "error"
    },
    {
      "inputs": [],
      "name": "EmptyClaim",
      "type": "error"
    },
    {
      "inputs": [],
      "name": "EnforcedPause",
      "type": "error"
    },
    {
      "inputs": [],
      "name": "ExpectedPause",
      "type": "error"
    },
    {
      "inputs": [],
      "name": "InsufficientValue",
      "type": "error"
    },
    {
      "inputs": [],
      "name": "InvalidInitialization",
      "type": "error"
    },
    {
      "inputs": [
        {
          "internalType": "address",
          "name": "",
          "type": "address"
        }
      ],
      "name": "NotAuthorized",
      "type": "error"
    },
    {
      "inputs": [
        {
          "internalType": "uint256",
          "name": "id",
          "type": "uint256"
        },
        {
          "internalType": "address",
          "name": "eligible",
          "type": "address"
        },
        {
          "internalType": "address",
          "name": "sender",
          "type": "address"
        }
      ],
      "name": "NotEligible",
      "type": "error"
    },
    {
      "inputs": [],
      "name": "NotInitializing",
      "type": "error"
    },
    {
      "inputs": [],
      "name": "OnlyDiamondInternal",
      "type": "error"
    },
    {
      "inputs": [],
      "name": "OnlyStakingManager",
      "type": "error"
    },
    {
      "inputs": [],
      "name": "OnlyStrategyManager",
      "type": "error"
    },
    {
      "inputs": [],
      "name": "OnlyStrategyUpgrader",
      "type": "error"
    },
    {
      "inputs": [],
      "name": "OnlyVaultManager",
      "type": "error"
    },
    {
      "inputs": [],
      "name": "ReentrancyGuardReentrantCall",
      "type": "error"
    },
    {
      "inputs": [],
      "name": "RefundFailed",
      "type": "error"
    },
    {
      "inputs": [],
      "name": "RequestNotClaimable",
      "type": "error"
    },
    {
      "inputs": [
        {
          "internalType": "address",
          "name": "token",
          "type": "address"
        }
      ],
      "name": "SafeERC20FailedOperation",
      "type": "error"
    },
    {
      "inputs": [
        {
          "internalType": "address",
          "name": "strategy",
          "type": "address"
        }
      ],
      "name": "StrategyDisabled",
      "type": "error"
    },
    {
      "inputs": [],
      "name": "TransferFailed",
      "type": "error"
    },
    {
      "inputs": [],
      "name": "ValueNotAccepted",
      "type": "error"
    },
    {
      "inputs": [
        {
          "internalType": "address",
          "name": "strategy",
          "type": "address"
        }
      ],
      "name": "VaultDoesNotExist",
      "type": "error"
    },
    {
      "inputs": [],
      "name": "ZeroStake",
      "type": "error"
    },
    {
      "anonymous": false,
      "inputs": [
        {
          "indexed": false,
          "internalType": "address",
          "name": "from",
          "type": "address"
        },
        {
          "indexed": true,
          "internalType": "address",
          "name": "to",
          "type": "address"
        },
        {
          "indexed": true,
          "internalType": "address",
          "name": "strategy",
          "type": "address"
        },
        {
          "indexed": false,
          "internalType": "uint256",
          "name": "stake",
          "type": "uint256"
        },
        {
          "indexed": false,
          "internalType": "uint256",
          "name": "requestId",
          "type": "uint256"
        }
      ],
      "name": "Deposit",
      "type": "event"
    },
    {
      "anonymous": false,
      "inputs": [
        {
          "indexed": false,
          "internalType": "address",
          "name": "from",
          "type": "address"
        },
        {
          "indexed": true,
          "internalType": "address",
          "name": "to",
          "type": "address"
        },
        {
          "indexed": true,
          "internalType": "address",
          "name": "strategy",
          "type": "address"
        },
        {
          "indexed": false,
          "internalType": "uint256",
          "name": "stake",
          "type": "uint256"
        },
        {
          "indexed": false,
          "internalType": "uint256",
          "name": "requestId",
          "type": "uint256"
        }
      ],
      "name": "DepositRefund",
      "type": "event"
    },
    {
      "anonymous": false,
      "inputs": [
        {
          "indexed": false,
          "internalType": "address",
          "name": "from",
          "type": "address"
        },
        {
          "indexed": true,
          "internalType": "address",
          "name": "to",
          "type": "address"
        },
        {
          "indexed": true,
          "internalType": "address",
          "name": "strategy",
          "type": "address"
        },
        {
          "indexed": false,
          "internalType": "uint256",
          "name": "stake",
          "type": "uint256"
        },
        {
          "indexed": false,
          "internalType": "uint256",
          "name": "requestId",
          "type": "uint256"
        }
      ],
      "name": "DepositRequest",
      "type": "event"
    },
    {
      "anonymous": false,
      "inputs": [
        {
          "indexed": true,
          "internalType": "address",
          "name": "strategy",
          "type": "address"
        },
        {
          "indexed": true,
          "internalType": "address",
          "name": "from",
          "type": "address"
        },
        {
          "indexed": false,
          "internalType": "uint256",
          "name": "stake",
          "type": "uint256"
        },
        {
          "indexed": false,
          "internalType": "uint256",
          "name": "allocationRefunded",
          "type": "uint256"
        },
        {
          "indexed": false,
          "internalType": "uint256",
          "name": "requestId",
          "type": "uint256"
        }
      ],
      "name": "FeeLeaveRefunded",
      "type": "event"
    },
    {
      "anonymous": false,
      "inputs": [
        {
          "indexed": true,
          "internalType": "address",
          "name": "strategy",
          "type": "address"
        },
        {
          "indexed": true,
          "internalType": "address",
          "name": "feeRecipient",
          "type": "address"
        },
        {
          "indexed": false,
          "internalType": "address",
          "name": "to",
          "type": "address"
        },
        {
          "indexed": false,
          "internalType": "uint256",
          "name": "fee",
          "type": "uint256"
        },
        {
          "indexed": false,
          "internalType": "uint256",
          "name": "exitAmount",
          "type": "uint256"
        },
        {
          "indexed": false,
          "internalType": "uint256",
          "name": "requestId",
          "type": "uint256"
        }
      ],
      "name": "FeeWithdrawClaimed",
      "type": "event"
    },
    {
      "anonymous": false,
      "inputs": [
        {
          "indexed": false,
          "internalType": "uint64",
          "name": "version",
          "type": "uint64"
        }
      ],
      "name": "Initialized",
      "type": "event"
    },
    {
      "anonymous": false,
      "inputs": [
        {
          "indexed": false,
          "internalType": "address",
          "name": "account",
          "type": "address"
        }
      ],
      "name": "Paused",
      "type": "event"
    },
    {
      "anonymous": false,
      "inputs": [
        {
          "indexed": true,
          "internalType": "bytes32",
          "name": "role",
          "type": "bytes32"
        },
        {
          "indexed": true,
          "internalType": "bytes32",
          "name": "previousAdminRole",
          "type": "bytes32"
        },
        {
          "indexed": true,
          "internalType": "bytes32",
          "name": "newAdminRole",
          "type": "bytes32"
        }
      ],
      "name": "RoleAdminChanged",
      "type": "event"
    },
    {
      "anonymous": false,
      "inputs": [
        {
          "indexed": true,
          "internalType": "bytes32",
          "name": "role",
          "type": "bytes32"
        },
        {
          "indexed": true,
          "internalType": "address",
          "name": "account",
          "type": "address"
        },
        {
          "indexed": true,
          "internalType": "address",
          "name": "sender",
          "type": "address"
        }
      ],
      "name": "RoleGranted",
      "type": "event"
    },
    {
      "anonymous": false,
      "inputs": [
        {
          "indexed": true,
          "internalType": "bytes32",
          "name": "role",
          "type": "bytes32"
        },
        {
          "indexed": true,
          "internalType": "address",
          "name": "account",
          "type": "address"
        },
        {
          "indexed": true,
          "internalType": "address",
          "name": "sender",
          "type": "address"
        }
      ],
      "name": "RoleRevoked",
      "type": "event"
    },
    {
      "anonymous": false,
      "inputs": [
        {
          "indexed": false,
          "internalType": "address",
          "name": "account",
          "type": "address"
        }
      ],
      "name": "Unpaused",
      "type": "event"
    },
    {
      "anonymous": false,
      "inputs": [
        {
          "indexed": true,
          "internalType": "address",
          "name": "strategy",
          "type": "address"
        },
        {
          "indexed": true,
          "internalType": "address",
          "name": "from",
          "type": "address"
        },
        {
          "indexed": false,
          "internalType": "address",
          "name": "to",
          "type": "address"
        },
        {
          "indexed": false,
          "internalType": "uint256",
          "name": "stake",
          "type": "uint256"
        },
        {
          "indexed": false,
          "internalType": "uint256",
          "name": "exitAmount",
          "type": "uint256"
        },
        {
          "indexed": false,
          "internalType": "uint256",
          "name": "requestId",
          "type": "uint256"
        }
      ],
      "name": "WithdrawClaimed",
      "type": "event"
    },
    {
      "anonymous": false,
      "inputs": [
        {
          "indexed": true,
          "internalType": "address",
          "name": "strategy",
          "type": "address"
        },
        {
          "indexed": true,
          "internalType": "address",
          "name": "to",
          "type": "address"
        },
        {
          "indexed": false,
          "internalType": "uint64",
          "name": "unlockTime",
          "type": "uint64"
        },
        {
          "indexed": false,
          "internalType": "uint256",
          "name": "expectedAmount",
          "type": "uint256"
        },
        {
          "indexed": true,
          "internalType": "bool",
          "name": "feeWithdraw",
          "type": "bool"
        },
        {
          "indexed": false,
          "internalType": "uint256",
          "name": "requestId",
          "type": "uint256"
        }
      ],
      "name": "WithdrawQueued",
      "type": "event"
    },
    {
      "anonymous": false,
      "inputs": [
        {
          "indexed": true,
          "internalType": "address",
          "name": "strategy",
          "type": "address"
        },
        {
          "indexed": true,
          "internalType": "address",
          "name": "from",
          "type": "address"
        },
        {
          "indexed": false,
          "internalType": "address",
          "name": "to",
          "type": "address"
        },
        {
          "indexed": false,
          "internalType": "uint256",
          "name": "stake",
          "type": "uint256"
        },
        {
          "indexed": false,
          "internalType": "uint256",
          "name": "allocationRefunded",
          "type": "uint256"
        },
        {
          "indexed": false,
          "internalType": "uint256",
          "name": "requestId",
          "type": "uint256"
        }
      ],
      "name": "WithdrawRefunded",
      "type": "event"
    },
    {
      "inputs": [],
      "name": "DEFAULT_ADMIN_ROLE",
      "outputs": [
        {
          "internalType": "bytes32",
          "name": "",
          "type": "bytes32"
        }
      ],
      "stateMutability": "view",
      "type": "function"
    },
    {
      "inputs": [],
      "name": "STAKING_MANAGER_ROLE",
      "outputs": [
        {
          "internalType": "bytes32",
          "name": "",
          "type": "bytes32"
        }
      ],
      "stateMutability": "pure",
      "type": "function"
    },
    {
      "inputs": [],
      "name": "STRATEGY_MANAGER_ROLE",
      "outputs": [
        {
          "internalType": "bytes32",
          "name": "",
          "type": "bytes32"
        }
      ],
      "stateMutability": "pure",
      "type": "function"
    },
    {
      "inputs": [],
      "name": "STRATEGY_UPGRADER_ROLE",
      "outputs": [
        {
          "internalType": "bytes32",
          "name": "",
          "type": "bytes32"
        }
      ],
      "stateMutability": "pure",
      "type": "function"
    },
    {
      "inputs": [],
      "name": "VAULT_MANAGER_ROLE",
      "outputs": [
        {
          "internalType": "bytes32",
          "name": "",
          "type": "bytes32"
        }
      ],
      "stateMutability": "pure",
      "type": "function"
    },
    {
      "inputs": [
        {
          "internalType": "address",
          "name": "strategy",
          "type": "address"
        },
        {
          "internalType": "uint256",
          "name": "requestId",
          "type": "uint256"
        }
      ],
      "name": "claimDeposit",
      "outputs": [
        {
          "internalType": "uint256",
          "name": "allocation",
          "type": "uint256"
        }
      ],
      "stateMutability": "payable",
      "type": "function"
    },
    {
      "inputs": [
        {
          "internalType": "uint256[]",
          "name": "requestIds",
          "type": "uint256[]"
        },
        {
          "internalType": "address",
          "name": "to",
          "type": "address"
        }
      ],
      "name": "claimWithdraws",
      "outputs": [],
      "stateMutability": "nonpayable",
      "type": "function"
    },
    {
      "inputs": [
        {
          "internalType": "address",
          "name": "strategy",
          "type": "address"
        },
        {
          "internalType": "address",
          "name": "to",
          "type": "address"
        },
        {
          "internalType": "uint256",
          "name": "stake",
          "type": "uint256"
        }
      ],
      "name": "deposit",
      "outputs": [
        {
          "internalType": "uint256",
          "name": "requestId",
          "type": "uint256"
        },
        {
          "internalType": "uint256",
          "name": "allocation",
          "type": "uint256"
        }
      ],
      "stateMutability": "payable",
      "type": "function"
    },
    {
      "inputs": [
        {
          "internalType": "bytes32",
          "name": "role",
          "type": "bytes32"
        }
      ],
      "name": "getRoleAdmin",
      "outputs": [
        {
          "internalType": "bytes32",
          "name": "",
          "type": "bytes32"
        }
      ],
      "stateMutability": "view",
      "type": "function"
    },
    {
      "inputs": [
        {
          "internalType": "bytes32",
          "name": "role",
          "type": "bytes32"
        },
        {
          "internalType": "uint256",
          "name": "index",
          "type": "uint256"
        }
      ],
      "name": "getRoleMember",
      "outputs": [
        {
          "internalType": "address",
          "name": "",
          "type": "address"
        }
      ],
      "stateMutability": "view",
      "type": "function"
    },
    {
      "inputs": [
        {
          "internalType": "bytes32",
          "name": "role",
          "type": "bytes32"
        }
      ],
      "name": "getRoleMemberCount",
      "outputs": [
        {
          "internalType": "uint256",
          "name": "",
          "type": "uint256"
        }
      ],
      "stateMutability": "view",
      "type": "function"
    },
    {
      "inputs": [
        {
          "internalType": "bytes32",
          "name": "role",
          "type": "bytes32"
        }
      ],
      "name": "getRoleMembers",
      "outputs": [
        {
          "internalType": "address[]",
          "name": "",
          "type": "address[]"
        }
      ],
      "stateMutability": "view",
      "type": "function"
    },
    {
      "inputs": [
        {
          "internalType": "bytes32",
          "name": "role",
          "type": "bytes32"
        },
        {
          "internalType": "address",
          "name": "account",
          "type": "address"
        }
      ],
      "name": "grantRole",
      "outputs": [],
      "stateMutability": "nonpayable",
      "type": "function"
    },
    {
      "inputs": [
        {
          "internalType": "bytes32",
          "name": "role",
          "type": "bytes32"
        },
        {
          "internalType": "address",
          "name": "account",
          "type": "address"
        }
      ],
      "name": "hasRole",
      "outputs": [
        {
          "internalType": "bool",
          "name": "",
          "type": "bool"
        }
      ],
      "stateMutability": "view",
      "type": "function"
    },
    {
      "inputs": [
        {
          "internalType": "address",
          "name": "account",
          "type": "address"
        }
      ],
      "name": "hasStrategyManagerRole",
      "outputs": [
        {
          "internalType": "bool",
          "name": "",
          "type": "bool"
        }
      ],
      "stateMutability": "view",
      "type": "function"
    },
    {
      "inputs": [
        {
          "internalType": "address",
          "name": "account",
          "type": "address"
        }
      ],
      "name": "hasStrategyUpgraderRole",
      "outputs": [
        {
          "internalType": "bool",
          "name": "",
          "type": "bool"
        }
      ],
      "stateMutability": "view",
      "type": "function"
    },
    {
      "inputs": [
        {
          "internalType": "address",
          "name": "strategy",
          "type": "address"
        },
        {
          "internalType": "address",
          "name": "user",
          "type": "address"
        },
        {
          "internalType": "uint256",
          "name": "limit",
          "type": "uint256"
        }
      ],
      "name": "lastClaims",
      "outputs": [
        {
          "internalType": "uint256[]",
          "name": "ids",
          "type": "uint256[]"
        }
      ],
      "stateMutability": "view",
      "type": "function"
    },
    {
      "inputs": [],
      "name": "pauseDeposit",
      "outputs": [],
      "stateMutability": "nonpayable",
      "type": "function"
    },
    {
      "inputs": [],
      "name": "paused",
      "outputs": [
        {
          "internalType": "bool",
          "name": "",
          "type": "bool"
        }
      ],
      "stateMutability": "view",
      "type": "function"
    },
    {
      "inputs": [
        {
          "internalType": "uint256[]",
          "name": "requestIds",
          "type": "uint256[]"
        }
      ],
      "name": "pendingWithdrawClaims",
      "outputs": [
        {
          "components": [
            {
              "internalType": "address",
              "name": "strategy",
              "type": "address"
            },
            {
              "internalType": "uint64",
              "name": "unlockTime",
              "type": "uint64"
            },
            {
              "internalType": "address",
              "name": "eligible",
              "type": "address"
            },
            {
              "internalType": "uint256",
              "name": "expectedAmount",
              "type": "uint256"
            },
            {
              "internalType": "bool",
              "name": "feeWithdraw",
              "type": "bool"
            }
          ],
          "internalType": "struct WithdrawClaim[]",
          "name": "claims",
          "type": "tuple[]"
        }
      ],
      "stateMutability": "view",
      "type": "function"
    },
    {
      "inputs": [
        {
          "internalType": "address",
          "name": "strategy",
          "type": "address"
        },
        {
          "internalType": "address",
          "name": "user",
          "type": "address"
        },
        {
          "internalType": "uint256",
          "name": "stake",
          "type": "uint256"
        },
        {
          "internalType": "uint256",
          "name": "allocation",
          "type": "uint256"
        },
        {
          "internalType": "bool",
          "name": "feeWithdraw",
          "type": "bool"
        }
      ],
      "name": "queueWithdraw",
      "outputs": [],
      "stateMutability": "nonpayable",
      "type": "function"
    },
    {
      "inputs": [
        {
          "internalType": "address",
          "name": "strategy",
          "type": "address"
        },
        {
          "internalType": "address",
          "name": "user",
          "type": "address"
        },
        {
          "internalType": "uint256",
          "name": "stake",
          "type": "uint256"
        }
      ],
      "name": "quoteDepositDispatch",
      "outputs": [
        {
          "internalType": "uint256",
          "name": "",
          "type": "uint256"
        }
      ],
      "stateMutability": "view",
      "type": "function"
    },
    {
      "inputs": [
        {
          "internalType": "address",
          "name": "strategy",
          "type": "address"
        },
        {
          "internalType": "uint256",
          "name": "requestId",
          "type": "uint256"
        },
        {
          "internalType": "address",
          "name": "to",
          "type": "address"
        }
      ],
      "name": "refundDeposit",
      "outputs": [
        {
          "internalType": "uint256",
          "name": "stake",
          "type": "uint256"
        }
      ],
      "stateMutability": "nonpayable",
      "type": "function"
    },
    {
      "inputs": [
        {
          "internalType": "uint256",
          "name": "requestId",
          "type": "uint256"
        },
        {
          "internalType": "address",
          "name": "to",
          "type": "address"
        }
      ],
      "name": "refundWithdraw",
      "outputs": [
        {
          "internalType": "uint256",
          "name": "allocationRefunded",
          "type": "uint256"
        }
      ],
      "stateMutability": "payable",
      "type": "function"
    },
    {
      "inputs": [
        {
          "internalType": "bytes32",
          "name": "role",
          "type": "bytes32"
        },
        {
          "internalType": "address",
          "name": "callerConfirmation",
          "type": "address"
        }
      ],
      "name": "renounceRole",
      "outputs": [],
      "stateMutability": "nonpayable",
      "type": "function"
    },
    {
      "inputs": [
        {
          "internalType": "address",
          "name": "strategy",
          "type": "address"
        },
        {
          "internalType": "address",
          "name": "to",
          "type": "address"
        },
        {
          "internalType": "uint256",
          "name": "stake",
          "type": "uint256"
        }
      ],
      "name": "requestDeposit",
      "outputs": [
        {
          "internalType": "uint256",
          "name": "requestId",
          "type": "uint256"
        }
      ],
      "stateMutability": "payable",
      "type": "function"
    },
    {
      "inputs": [
        {
          "internalType": "bytes32",
          "name": "role",
          "type": "bytes32"
        },
        {
          "internalType": "address",
          "name": "account",
          "type": "address"
        }
      ],
      "name": "revokeRole",
      "outputs": [],
      "stateMutability": "nonpayable",
      "type": "function"
    },
    {
      "inputs": [
        {
          "internalType": "bytes4",
          "name": "interfaceId",
          "type": "bytes4"
        }
      ],
      "name": "supportsInterface",
      "outputs": [
        {
          "internalType": "bool",
          "name": "",
          "type": "bool"
        }
      ],
      "stateMutability": "view",
      "type": "function"
    },
    {
      "inputs": [],
      "name": "unpauseDeposit",
      "outputs": [],
      "stateMutability": "nonpayable",
      "type": "function"
    }
  ],
  "bytecode": "0x6080604052348015600e575f5ffd5b50612dd68061001c5f395ff3fe6080604052600436106101ba575f3560e01c806369026e88116100f2578063a1bfe1ba11610092578063ca15c87311610062578063ca15c8731461053c578063d547741f1461055b578063db0749361461057a578063fd245b4c14610599575f5ffd5b8063a1bfe1ba146104b8578063a217fddf146104cb578063a3246ad3146104de578063abcbe0b21461050a575f5ffd5b8063860f3458116100cd578063860f34581461040a5780639010d07c1461043657806391d148541461046d5780639c4c99fc1461048c575f5ffd5b806369026e88146103af5780637124e0f3146103c35780638340f549146103e2575f5ffd5b806344e424691161015d57806359f82f911161013857806359f82f91146103095780635c975abb1461033b5780635e1d59271461035e5780635e5a24a41461037d575f5ffd5b806344e42469146102c3578063505f158a146102d65780635157ced5146102f5575f5ffd5b80632a9fdb6f116101985780632a9fdb6f146102405780632f2ff15d1461025357806336568abe146102725780633937c0b314610291575f5ffd5b806301ffc9a7146101be5780630d629421146101f2578063248a9ca314610213575b5f5ffd5b3480156101c9575f5ffd5b506101dd6101d8366004612765565b6105b8565b60405190151581526020015b60405180910390f35b3480156101fd575f5ffd5b5061021161020c3660046127e7565b6105e2565b005b34801561021e575f5ffd5b5061023261022d366004612839565b6109ef565b6040519081526020016101e9565b61023261024e366004612850565b610a0f565b34801561025e575f5ffd5b5061021161026d36600461288e565b610bd4565b34801561027d575f5ffd5b5061021161028c36600461288e565b610bf6565b34801561029c575f5ffd5b507fa6b5d83d32632203555cb9b2c2f68a8d94da48cadd9266ac0d17babedb52ea5b610232565b6102326102d136600461288e565b610c29565b3480156102e1575f5ffd5b506101dd6102f03660046128bc565b611073565b348015610300575f5ffd5b5061021161109f565b348015610314575f5ffd5b507fb6b8360f529bf65be805a119c79f97914e5e29532dc734732a563b5bc869148c610232565b348015610346575f5ffd5b505f516020612d615f395f51905f525460ff166101dd565b348015610369575f5ffd5b506102116103783660046128e4565b6110f9565b348015610388575f5ffd5b507fd1473398bb66596de5d1ea1fc8e303ff2ac23265adc9144b1b52065dc4f0934b610232565b3480156103ba575f5ffd5b50610211611392565b3480156103ce575f5ffd5b506102326103dd366004612850565b6113e8565b6103f56103f0366004612850565b6114bb565b604080519283526020830191909152016101e9565b348015610415575f5ffd5b50610429610424366004612850565b6116ed565b6040516101e99190612979565b348015610441575f5ffd5b5061045561045036600461298b565b6117de565b6040516001600160a01b0390911681526020016101e9565b348015610478575f5ffd5b506101dd61048736600461288e565b61180b565b348015610497575f5ffd5b506104ab6104a63660046129ab565b611841565b6040516101e991906129e9565b6102326104c6366004612a76565b611982565b3480156104d6575f5ffd5b506102325f81565b3480156104e9575f5ffd5b506104fd6104f8366004612839565b611bf8565b6040516101e99190612aa0565b348015610515575f5ffd5b507f4170d100a3a3728ae51207936ee755ecaa64a7f6e9383c642ab204a136f90b1b610232565b348015610547575f5ffd5b50610232610556366004612839565b611c21565b348015610566575f5ffd5b5061021161057536600461288e565b611c45565b348015610585575f5ffd5b50610232610594366004612ae0565b611c61565b3480156105a4575f5ffd5b506101dd6105b33660046128bc565b611eb5565b5f6001600160e01b03198216635a05180f60e01b14806105dc57506105dc82611edf565b92915050565b6105ea611f13565b5f6105f3611f4a565b905082806106145760405163da80cc7360e01b815260040160405180910390fd5b6001600160a01b03831661063b5760405163088d6c0d60e31b815260040160405180910390fd5b5f5b818110156109d1575f86868381811061065857610658612b14565b602090810292909201355f81815260038881018552604091829020825160a08101845281546001600160a01b03808216808452600160a01b9092046001600160401b03169883019890985260018301549097169381019390935260028101546060840181905291015460ff16151560808301529194509290915083906106fd57604051633373e46160e01b81526004016106f491815260200190565b60405180910390fd5b5060408201518390336001600160a01b038216811461074957604051634266a9e960e11b815260048101939093526001600160a01b0391821660248401521660448201526064016106f4565b505050602082015142906001600160401b0381168210156107905760405163a1b0201760e01b81526001600160401b039283166004820152911660248201526044016106f4565b50505f8381526003878101602052604080832080546001600160e01b0319168155600180820180546001600160a01b0319169055600282018590559201805460ff1916905580518281528082019091529081602001602082028036833701905050905083815f8151811061080657610806612b14565b6020908102919091010152825160405163020268c160e11b81525f916001600160a01b031690630404d182906108429085908d90600401612b3c565b6020604051808303815f875af115801561085e573d5f5f3e3d5ffd5b505050506040513d601f19601f820116820180604052508101906108829190612b65565b90508360800151156109165783516001600160a01b03165f908152600189016020526040812060040180548592906108bb908490612b90565b9091555050835160405133916001600160a01b0316907f0b58f91c05cd9e1225c80ebabc4fafb9dcbec1b0e12bd6ccefb9561980f6af7190610904908d90889087908c90612ba3565b60405180910390a350505050506109c9565b83516001600160a01b03165f90815260018901602052604081208054859290610940908490612b90565b909155505083516001600160a01b03165f90815260018901602052604081206003018054859290610972908490612b90565b9091555050835160405133916001600160a01b0316907f361095e8f2e0d2abae17eeed2e1daabbbb5bc921344e03cf4bde124bb62b7f19906109bb908d90889087908c90612ba3565b60405180910390a350505050505b60010161063d565b5050506109ea60015f516020612d815f395f51905f5255565b505050565b5f9081525f516020612d415f395f51905f52602052604090206001015490565b5f610a18611f13565b610a20611f77565b5f610a29611f4a565b6001600160a01b0386165f908152602082905260409020909150610a4e818786611fa7565b6001600160a01b0386165f90815260018301602052604081208054869290610a77908490612bc9565b90915550506001600160a01b0386165f90815260018301602052604081206002018054869290610aa8908490612bc9565b9091555050604080516020810190915260018201546001600160a01b03168152610ad490333087611fd1565b60405163f509118960e01b8152309063f509118990610afb90899089908990600401612bdc565b6020604051808303815f875af1158015610b17573d5f5f3e3d5ffd5b505050506040513d601f19601f82011682018060405250810190610b3b9190612b65565b6001600160a01b038088165f8181526004860160209081526040808320948b168084529482528083208054600181018255908452919092200184905551929550917ff384004c31a926b6ad482ea3529e6d1feafaa3488f0bdeb89299aacb055f623b90610bad90339089908990612c00565b60405180910390a35050610bcd60015f516020612d815f395f51905f5255565b9392505050565b610bdd826109ef565b610be681612125565b610bf08383612132565b50505050565b6001600160a01b0381163314610c1f5760405163334bd91960e11b815260040160405180910390fd5b6109ea8282612174565b5f610c32611f13565b5f610c3b611f4a565b90506001600160a01b038316610c645760405163088d6c0d60e31b815260040160405180910390fd5b5f84815260038281016020908152604092839020835160a08101855281546001600160a01b03808216808452600160a01b9092046001600160401b03169483019490945260018301549093169481019490945260028101546060850181905292015460ff16151560808401528690610cf257604051633373e46160e01b81526004016106f491815260200190565b5060408201518690336001600160a01b0382168114610d3e57604051634266a9e960e11b815260048101939093526001600160a01b0391821660248401521660448201526064016106f4565b5050505f8681526003848101602052604080832080546001600160e01b0319168155600180820180546001600160a01b0319169055600282018590559201805460ff1916905580518281528082019091529081602001602082028036833701905050905086815f81518110610db557610db5612b14565b6020908102919091010152825160405163358a43d760e11b81526001600160a01b0390911690636b1487ae90610df19084903090600401612b3c565b6020604051808303815f875af1158015610e0d573d5f5f3e3d5ffd5b505050506040513d601f19601f82011682018060405250810190610e319190612b65565b83516001600160a01b03165f9081526001808701602052604082200180549297508792909190610e62908490612bc9565b9091555050608083015115610f16573415610e9057604051630d7b65ad60e01b815260040160405180910390fd5b82516001600160a01b03165f90815260018501602052604081206004018054849290610ebd908490612b90565b90915550508251604080518481526020810188905290810189905233916001600160a01b0316907fda928c69b23deb3aa3f3e86e35f2be10026b6004fd63021a429921dc1bee90f89060600160405180910390a3611059565b82516001600160a01b03165f90815260018501602052604081206003018054849290610f43908490612b90565b909155505082515f90610f579088856113e8565b6040516305bc726160e21b81523360048201526024810182905290915030906316f1c9849034906044015f604051808303818588803b158015610f98575f5ffd5b505af1158015610faa573d5f5f3e3d5ffd5b505086516040516302dc560760e41b8152309450632dc560709350610fd692508b908890600401612bdc565b5f604051808303815f87803b158015610fed575f5ffd5b505af1158015610fff573d5f5f3e3d5ffd5b50505050336001600160a01b0316845f01516001600160a01b03167f20607e8796e90c82b47413d437a21aa4d5c05497fb839996f96c1c32b36edb2b89868a8d60405161104f9493929190612ba3565b60405180910390a3505b505050506105dc60015f516020612d815f395f51905f5255565b5f6105dc7f4170d100a3a3728ae51207936ee755ecaa64a7f6e9383c642ab204a136f90b1b5b8361180b565b6110ca7fa6b5d83d32632203555cb9b2c2f68a8d94da48cadd9266ac0d17babedb52ea5b5b3361180b565b6110e75760405163b995ef4760e01b815260040160405180910390fd5b6110ef6121ad565b6110f76121dc565b565b3330146111195760405163d248bf1560e01b815260040160405180910390fd5b5f611122611f4a565b90505f61112d61223b565b604051631b34ebe760e21b815260048101829052602481018690526001600160a01b0388811660448301529192505f91891690636cd3af9c906064016020604051808303815f875af1158015611185573d5f5f3e3d5ffd5b505050506040513d601f19601f820116820180604052508101906111a99190612c3c565b90506040518060a00160405280896001600160a01b03168152602001826001600160401b03168152602001886001600160a01b03168152602001878152602001851515815250836003015f8481526020019081526020015f205f820151815f015f6101000a8154816001600160a01b0302191690836001600160a01b031602179055506020820151815f0160146101000a8154816001600160401b0302191690836001600160401b031602179055506040820151816001015f6101000a8154816001600160a01b0302191690836001600160a01b03160217905550606082015181600201556080820151816003015f6101000a81548160ff021916908315150217905550905050826004015f896001600160a01b03166001600160a01b031681526020019081526020015f205f886001600160a01b03166001600160a01b031681526020019081526020015f2082908060018154018082558091505060019003905f5260205f20015f9091909190915055831515876001600160a01b0316896001600160a01b03167f59296d67b53a601f7eb95654e524f4b48ac7a398cde6d9f7bbc397798b2022ce848a87604051611380939291906001600160401b039390931683526020830191909152604082015260600190565b60405180910390a45050505050505050565b6113bb7fa6b5d83d32632203555cb9b2c2f68a8d94da48cadd9266ac0d17babedb52ea5b6110c4565b6113d85760405163b995ef4760e01b815260040160405180910390fd5b6113e0611f77565b6110f7612257565b5f5f60405180608001604052806113fd61229f565b6001600160401b0390811682526001600160a01b0380891660208085019190915288821660408086019190915260609485018990528051630a652bc360e31b815286519094166004850152908501518216602484015284015116604482015290820151606482015290915030906353295e1890608401602060405180830381865afa15801561148e573d5f5f3e3d5ffd5b505050506040513d601f19601f820116820180604052508101906114b29190612b65565b95945050505050565b5f5f6114c5611f13565b6114cd611f77565b5f6114d6611f4a565b6001600160a01b0387165f9081526020829052604090209091506114fb818887611fa7565b6001600160a01b0387165f90815260018301602052604081208054879290611524908490612bc9565b909155505f90506115368888886113e8565b604080516020810190915260018401546001600160a01b0316908190529091506115915761158c3330611569848a612bc9565b604080516020810190915260018701546001600160a01b03168152929190611fd1565b61160f565b6040516305bc726160e21b81523360048201526024810182905230906316f1c9849034906044015f604051808303818588803b1580156115cf575f5ffd5b505af11580156115e1573d5f5f3e3d5ffd5b5050604080516020810190915260018601546001600160a01b0316815261160f935091503390503089611fd1565b6040516340ea8ae560e11b815230906381d515ca90611636908b908b908b90600401612bdc565b60408051808303815f875af1158015611651573d5f5f3e3d5ffd5b505050506040513d601f19601f820116820180604052508101906116759190612c55565b8095508196505050876001600160a01b0316876001600160a01b03167f5fe47ed6d4225326d3303476197d782ded5a4e9c14f479dc9ec4992af4e85d593389896040516116c493929190612c00565b60405180910390a35050506116e560015f516020612d815f395f51905f5255565b935093915050565b60605f6116f8611f4a565b6001600160a01b038087165f908152600483016020908152604080832093891683529290522080549192509080851115611730578094505b846001600160401b0381111561174857611748612b28565b604051908082528060200260200182016040528015611771578160200160208202803683370190505b5093505f5b858110156117d357828161178b600185612b90565b6117959190612b90565b815481106117a5576117a5612b14565b905f5260205f2001548582815181106117c0576117c0612b14565b6020908102919091010152600101611776565b505050509392505050565b5f8281525f516020612d215f395f51905f5260208190526040822061180390846122c2565b949350505050565b5f9182525f516020612d415f395f51905f52602090815260408084206001600160a01b0393909316845291905290205460ff1690565b60605f61184c611f4a565b905082806001600160401b0381111561186757611867612b28565b6040519080825280602002602001820160405280156118be57816020015b6040805160a0810182525f808252602080830182905292820181905260608201819052608082015282525f199092019101816118855790505b5092505f5b81811015611979575f8686838181106118de576118de612b14565b602090810292909201355f81815260038881018552604091829020825160a08101845281546001600160a01b038082168352600160a01b9091046001600160401b03169782019790975260018201549096169286019290925260028201546060860152015460ff161515608084015287519093508791508490811061196557611965612b14565b6020908102919091010152506001016118c3565b50505092915050565b5f61198b611f13565b611993611f77565b5f61199c611f4a565b6001600160a01b0385165f9081526020829052604090209091506119c081866122cd565b5f5f5f5f886001600160a01b0316634f588bf1896040518263ffffffff1660e01b81526004016119f291815260200190565b60c060405180830381865afa158015611a0d573d5f5f3e3d5ffd5b505050506040513d601f19601f82011682018060405250810190611a319190612c77565b955050509350935093508215611a5a57604051636b824b8d60e01b815260040160405180910390fd5b80611a7857604051637570897f60e01b815260040160405180910390fd5b6001600160a01b0389165f90815260018701602052604081206002018054849290611aa4908490612b90565b909155505060405163cf24c87d60e01b81526001600160a01b03808b166004830152602482018a90528516604482015260648101839052309063cf24c87d906084016020604051808303815f875af1158015611b02573d5f5f3e3d5ffd5b505050506040513d601f19601f82011682018060405250810190611b269190612b65565b96505f611b348a86856113e8565b6040516305bc726160e21b81523360048201526024810182905290915030906316f1c9849034906044015f604051808303818588803b158015611b75575f5ffd5b505af1158015611b87573d5f5f3e3d5ffd5b5050505050896001600160a01b0316856001600160a01b03167f5fe47ed6d4225326d3303476197d782ded5a4e9c14f479dc9ec4992af4e85d5933868d604051611bd393929190612c00565b60405180910390a3505050505050506105dc60015f516020612d815f395f51905f5255565b5f8181525f516020612d215f395f51905f526020819052604090912060609190610bcd90612339565b5f8181525f516020612d215f395f51905f52602081905260408220610bcd90612345565b611c4e826109ef565b611c5781612125565b610bf08383612174565b5f611c6a611f13565b611c72611f77565b5f611c7b611f4a565b6001600160a01b0386165f908152602082905260409020909150611c9f81876122cd565b604051634f588bf160e01b8152600481018690525f9081906001600160a01b03891690634f588bf19060240160c060405180830381865afa158015611ce6573d5f5f3e3d5ffd5b505050506040513d601f19601f82011682018060405250810190611d0a9190612c77565b50505050915091508015611d3157604051636b824b8d60e01b815260040160405180910390fd5b336001600160a01b0383168114611d6757604051634a0bfec160e01b81526001600160a01b0390911660048201526024016106f4565b50604051630e310ff160e01b81526001600160a01b03808a166004830152602482018990528084166044830152871660648201523090630e310ff1906084016020604051808303815f875af1158015611dc2573d5f5f3e3d5ffd5b505050506040513d601f19601f82011682018060405250810190611de69190612b65565b6001600160a01b0389165f908152600186016020526040812080549297508792909190611e14908490612b90565b90915550506001600160a01b0388165f90815260018501602052604081206002018054879290611e45908490612b90565b92505081905550876001600160a01b0316866001600160a01b03167f2b3bd44477ac35f0243ce025406098d14cb5e0b0edeeadbb92953a41588271f533888b604051611e9393929190612c00565b60405180910390a350505050610bcd60015f516020612d815f395f51905f5255565b5f6105dc7fb6b8360f529bf65be805a119c79f97914e5e29532dc734732a563b5bc869148c611099565b5f6001600160e01b03198216637965db0b60e01b14806105dc57506301ffc9a760e01b6001600160e01b03198316146105dc565b5f516020612d815f395f51905f52805460011901611f4457604051633ee5aeb560e01b815260040160405180910390fd5b60029055565b5f806105dc60017fbdce9fce78852f4396d00427ddc098ac2e3263701a971553200759a6322f4465612b90565b5f516020612d615f395f51905f525460ff16156110f75760405163d93c066560e01b815260040160405180910390fd5b5f8111611fc75760405163150a67e960e01b815260040160405180910390fd5b6109ea83836122cd565b83516001600160a01b031661210e57803410156120015760405163044044a560e21b815260040160405180910390fd5b6001600160a01b0382163014612083575f826001600160a01b0316826040515f6040518083038185875af1925050503d805f811461205a576040519150601f19603f3d011682016040523d82523d5f602084013e61205f565b606091505b5050905080612081576040516312171d8360e31b815260040160405180910390fd5b505b5f61208e8234612b90565b90508015612108575f846001600160a01b0316826040515f6040518083038185875af1925050503d805f81146120df576040519150601f19603f3d011682016040523d82523d5f602084013e6120e4565b606091505b505090508061210657604051633c31275160e21b815260040160405180910390fd5b505b50610bf0565b8351610bf0906001600160a01b031684848461234e565b61212f81336123a8565b50565b5f5f516020612d215f395f51905f528161214c85856123e5565b90508015611803575f85815260208390526040902061216b9085612486565b50949350505050565b5f5f516020612d215f395f51905f528161218e858561249a565b90508015611803575f85815260208390526040902061216b9085612513565b5f516020612d615f395f51905f525460ff166110f757604051638dfc202b60e01b815260040160405180910390fd5b6121e46121ad565b5f516020612d615f395f51905f52805460ff191681557f5db9ee0a495bf2e6ff9c91a7834c1ba4fdd244a5e8aa4e537bd38aeae4b073aa335b6040516001600160a01b03909116815260200160405180910390a150565b5f5f612245611f4a565b60020180546001019081905592915050565b61225f611f77565b5f516020612d615f395f51905f52805460ff191660011781557f62e78cea01bee320cd4e420270b5ea74000d11b0c9f74754ebdbfc544b05a2583361221d565b5f6122a8612527565b546122bd906001600160401b03166001612ced565b905090565b5f610bcd8383612554565b8154819061010090046001600160a01b03166123085760405163d6e0102560e01b81526001600160a01b0390911660048201526024016106f4565b508154819060ff166109ea576040516311e8f21d60e11b81526001600160a01b0390911660048201526024016106f4565b60605f610bcd8361257a565b5f6105dc825490565b610bf084856001600160a01b03166323b872dd86868660405160240161237693929190612bdc565b604051602081830303815290604052915060e01b6020820180516001600160e01b0383818316178352505050506125d3565b6123b2828261180b565b6123e15760405163e2517d3f60e01b81526001600160a01b0382166004820152602481018390526044016106f4565b5050565b5f5f516020612d415f395f51905f526123fe848461180b565b61247d575f848152602082815260408083206001600160a01b03871684529091529020805460ff191660011790556124333390565b6001600160a01b0316836001600160a01b0316857f2f8788117e7eff1d82e926ec794901d17c78024a50270940304540a733656f0d60405160405180910390a460019150506105dc565b5f9150506105dc565b5f610bcd836001600160a01b03841661263f565b5f5f516020612d415f395f51905f526124b3848461180b565b1561247d575f848152602082815260408083206001600160a01b0387168085529252808320805460ff1916905551339287917ff6391f5c32d9c69d2a47ea670b442974b53935d1edc7fd64eb21e047a839171b9190a460019150506105dc565b5f610bcd836001600160a01b03841661268b565b5f806105dc60017f5bb7656ef24c73b7e8f5713e1e3451eff01777c4d0b1e46eb4b823c11d8aa151612b90565b5f825f01828154811061256957612569612b14565b905f5260205f200154905092915050565b6060815f018054806020026020016040519081016040528092919081815260200182805480156125c757602002820191905f5260205f20905b8154815260200190600101908083116125b3575b50505050509050919050565b5f5f60205f8451602086015f885af1806125f2576040513d5f823e3d81fd5b50505f513d91508115612609578060011415612616565b6001600160a01b0384163b155b15610bf057604051635274afe760e01b81526001600160a01b03851660048201526024016106f4565b5f81815260018301602052604081205461268457508154600181810184555f8481526020808220909301849055845484825282860190935260409020919091556105dc565b505f6105dc565b5f818152600183016020526040812054801561247d575f6126ad600183612b90565b85549091505f906126c090600190612b90565b905080821461271f575f865f0182815481106126de576126de612b14565b905f5260205f200154905080875f0184815481106126fe576126fe612b14565b5f918252602080832090910192909255918252600188019052604090208390555b855486908061273057612730612d0c565b600190038181905f5260205f20015f90559055856001015f8681526020019081526020015f205f9055600193505050506105dc565b5f60208284031215612775575f5ffd5b81356001600160e01b031981168114610bcd575f5ffd5b5f5f83601f84011261279c575f5ffd5b5081356001600160401b038111156127b2575f5ffd5b6020830191508360208260051b85010111156127cc575f5ffd5b9250929050565b6001600160a01b038116811461212f575f5ffd5b5f5f5f604084860312156127f9575f5ffd5b83356001600160401b0381111561280e575f5ffd5b61281a8682870161278c565b909450925050602084013561282e816127d3565b809150509250925092565b5f60208284031215612849575f5ffd5b5035919050565b5f5f5f60608486031215612862575f5ffd5b833561286d816127d3565b9250602084013561287d816127d3565b929592945050506040919091013590565b5f5f6040838503121561289f575f5ffd5b8235915060208301356128b1816127d3565b809150509250929050565b5f602082840312156128cc575f5ffd5b8135610bcd816127d3565b801515811461212f575f5ffd5b5f5f5f5f5f60a086880312156128f8575f5ffd5b8535612903816127d3565b94506020860135612913816127d3565b935060408601359250606086013591506080860135612931816128d7565b809150509295509295909350565b5f8151808452602084019350602083015f5b8281101561296f578151865260209586019590910190600101612951565b5093949350505050565b602081525f610bcd602083018461293f565b5f5f6040838503121561299c575f5ffd5b50508035926020909101359150565b5f5f602083850312156129bc575f5ffd5b82356001600160401b038111156129d1575f5ffd5b6129dd8582860161278c565b90969095509350505050565b602080825282518282018190525f918401906040840190835b81811015612a6b57835160018060a01b0381511684526001600160401b03602082015116602085015260018060a01b036040820151166040850152606081015160608501526080810151151560808501525060a083019250602084019350600181019050612a02565b509095945050505050565b5f5f60408385031215612a87575f5ffd5b8235612a92816127d3565b946020939093013593505050565b602080825282518282018190525f918401906040840190835b81811015612a6b5783516001600160a01b0316835260209384019390920191600101612ab9565b5f5f5f60608486031215612af2575f5ffd5b8335612afd816127d3565b925060208401359150604084013561282e816127d3565b634e487b7160e01b5f52603260045260245ffd5b634e487b7160e01b5f52604160045260245ffd5b604081525f612b4e604083018561293f565b905060018060a01b03831660208301529392505050565b5f60208284031215612b75575f5ffd5b5051919050565b634e487b7160e01b5f52601160045260245ffd5b818103818111156105dc576105dc612b7c565b6001600160a01b0394909416845260208401929092526040830152606082015260800190565b808201808211156105dc576105dc612b7c565b6001600160a01b039384168152919092166020820152604081019190915260600190565b6001600160a01b039390931683526020830191909152604082015260600190565b80516001600160401b0381168114612c37575f5ffd5b919050565b5f60208284031215612c4c575f5ffd5b610bcd82612c21565b5f5f60408385031215612c66575f5ffd5b505080516020909101519092909150565b5f5f5f5f5f5f60c08789031215612c8c575f5ffd5b8651612c97816127d3565b6020880151909650612ca8816128d7565b60408801519095509350612cbe60608801612c21565b92506080870151612cce816128d7565b60a0880151909250612cdf816128d7565b809150509295509295509295565b6001600160401b0381811683821601908111156105dc576105dc612b7c565b634e487b7160e01b5f52603160045260245ffdfec1f6fe24621ce81ec5827caf0253cadb74709b061630e6b55e8237170593200002dd7bc7dec4dceedda775e58dd541e08a116c6c53815c0bd028192f7b626800cd5ed15c6e187e77e9aee88184c21f4f2182ab5827cb3b7e07fbedcd63f033009b779b17422d0df92223018b32b4d1fa46e071723d6817e2486d003becc55f00a2646970667358221220a172f9e3dad6fc87f452608cd8c9908b41021c8c0e89fe8266503ecf25a8ca0e64736f6c634300081b0033",
  "linkReferences": {},
  "deployedLinkReferences": {}
}