{
  "_format": "hh-sol-artifact-1",
  "contractName": "RouteRegistry",
  "sourceName": "contracts/hyperstaking/facets/routes/RouteRegistry.sol",
  "abi": [
    {
      "inputs": [],
      "name": "AccessControlBadConfirmation",
      "type": "error"
    },
    {
      "inputs": [
        {
          "internalType": "address",
          "name": "account",
          "type": "address"
        },
        {
          "internalType": "bytes32",
          "name": "neededRole",
          "type": "bytes32"
        }
      ],
      "name": "AccessControlUnauthorizedAccount",
      "type": "error"
    },
    {
      "inputs": [],
      "name": "DestinationUnset",
      "type": "error"
    },
    {
      "inputs": [],
      "name": "InvalidInitialization",
      "type": "error"
    },
    {
      "inputs": [],
      "name": "NotInitializing",
      "type": "error"
    },
    {
      "inputs": [],
      "name": "OnlyDiamondInternal",
      "type": "error"
    },
    {
      "inputs": [],
      "name": "OnlyStakingManager",
      "type": "error"
    },
    {
      "inputs": [],
      "name": "OnlyStrategyManager",
      "type": "error"
    },
    {
      "inputs": [],
      "name": "OnlyStrategyUpgrader",
      "type": "error"
    },
    {
      "inputs": [],
      "name": "OnlyVaultManager",
      "type": "error"
    },
    {
      "inputs": [],
      "name": "RecipientUnset",
      "type": "error"
    },
    {
      "anonymous": false,
      "inputs": [
        {
          "indexed": false,
          "internalType": "uint64",
          "name": "version",
          "type": "uint64"
        }
      ],
      "name": "Initialized",
      "type": "event"
    },
    {
      "anonymous": false,
      "inputs": [
        {
          "indexed": true,
          "internalType": "bytes32",
          "name": "role",
          "type": "bytes32"
        },
        {
          "indexed": true,
          "internalType": "bytes32",
          "name": "previousAdminRole",
          "type": "bytes32"
        },
        {
          "indexed": true,
          "internalType": "bytes32",
          "name": "newAdminRole",
          "type": "bytes32"
        }
      ],
      "name": "RoleAdminChanged",
      "type": "event"
    },
    {
      "anonymous": false,
      "inputs": [
        {
          "indexed": true,
          "internalType": "bytes32",
          "name": "role",
          "type": "bytes32"
        },
        {
          "indexed": true,
          "internalType": "address",
          "name": "account",
          "type": "address"
        },
        {
          "indexed": true,
          "internalType": "address",
          "name": "sender",
          "type": "address"
        }
      ],
      "name": "RoleGranted",
      "type": "event"
    },
    {
      "anonymous": false,
      "inputs": [
        {
          "indexed": true,
          "internalType": "bytes32",
          "name": "role",
          "type": "bytes32"
        },
        {
          "indexed": true,
          "internalType": "address",
          "name": "account",
          "type": "address"
        },
        {
          "indexed": true,
          "internalType": "address",
          "name": "sender",
          "type": "address"
        }
      ],
      "name": "RoleRevoked",
      "type": "event"
    },
    {
      "anonymous": false,
      "inputs": [
        {
          "indexed": true,
          "internalType": "address",
          "name": "mailbox",
          "type": "address"
        },
        {
          "indexed": false,
          "internalType": "address",
          "name": "lumiaFactory",
          "type": "address"
        },
        {
          "indexed": false,
          "internalType": "uint64",
          "name": "nonce",
          "type": "uint64"
        },
        {
          "indexed": true,
          "internalType": "address",
          "name": "strategy",
          "type": "address"
        },
        {
          "indexed": false,
          "internalType": "string",
          "name": "name",
          "type": "string"
        },
        {
          "indexed": false,
          "internalType": "string",
          "name": "symbol",
          "type": "string"
        },
        {
          "indexed": false,
          "internalType": "uint8",
          "name": "decimals",
          "type": "uint8"
        }
      ],
      "name": "RouteRegistryDispatched",
      "type": "event"
    },
    {
      "inputs": [],
      "name": "DEFAULT_ADMIN_ROLE",
      "outputs": [
        {
          "internalType": "bytes32",
          "name": "",
          "type": "bytes32"
        }
      ],
      "stateMutability": "view",
      "type": "function"
    },
    {
      "inputs": [],
      "name": "STAKING_MANAGER_ROLE",
      "outputs": [
        {
          "internalType": "bytes32",
          "name": "",
          "type": "bytes32"
        }
      ],
      "stateMutability": "pure",
      "type": "function"
    },
    {
      "inputs": [],
      "name": "STRATEGY_MANAGER_ROLE",
      "outputs": [
        {
          "internalType": "bytes32",
          "name": "",
          "type": "bytes32"
        }
      ],
      "stateMutability": "pure",
      "type": "function"
    },
    {
      "inputs": [],
      "name": "STRATEGY_UPGRADER_ROLE",
      "outputs": [
        {
          "internalType": "bytes32",
          "name": "",
          "type": "bytes32"
        }
      ],
      "stateMutability": "pure",
      "type": "function"
    },
    {
      "inputs": [],
      "name": "VAULT_MANAGER_ROLE",
      "outputs": [
        {
          "internalType": "bytes32",
          "name": "",
          "type": "bytes32"
        }
      ],
      "stateMutability": "pure",
      "type": "function"
    },
    {
      "inputs": [
        {
          "components": [
            {
              "internalType": "uint64",
              "name": "nonce",
              "type": "uint64"
            },
            {
              "internalType": "address",
              "name": "strategy",
              "type": "address"
            },
            {
              "internalType": "string",
              "name": "name",
              "type": "string"
            },
            {
              "internalType": "string",
              "name": "symbol",
              "type": "string"
            },
            {
              "internalType": "uint8",
              "name": "decimals",
              "type": "uint8"
            },
            {
              "internalType": "bytes",
              "name": "metadata",
              "type": "bytes"
            }
          ],
          "internalType": "struct RouteRegistryData",
          "name": "data",
          "type": "tuple"
        }
      ],
      "name": "generateRouteRegistryBody",
      "outputs": [
        {
          "internalType": "bytes",
          "name": "body",
          "type": "bytes"
        }
      ],
      "stateMutability": "pure",
      "type": "function"
    },
    {
      "inputs": [
        {
          "internalType": "bytes32",
          "name": "role",
          "type": "bytes32"
        }
      ],
      "name": "getRoleAdmin",
      "outputs": [
        {
          "internalType": "bytes32",
          "name": "",
          "type": "bytes32"
        }
      ],
      "stateMutability": "view",
      "type": "function"
    },
    {
      "inputs": [
        {
          "internalType": "bytes32",
          "name": "role",
          "type": "bytes32"
        },
        {
          "internalType": "uint256",
          "name": "index",
          "type": "uint256"
        }
      ],
      "name": "getRoleMember",
      "outputs": [
        {
          "internalType": "address",
          "name": "",
          "type": "address"
        }
      ],
      "stateMutability": "view",
      "type": "function"
    },
    {
      "inputs": [
        {
          "internalType": "bytes32",
          "name": "role",
          "type": "bytes32"
        }
      ],
      "name": "getRoleMemberCount",
      "outputs": [
        {
          "internalType": "uint256",
          "name": "",
          "type": "uint256"
        }
      ],
      "stateMutability": "view",
      "type": "function"
    },
    {
      "inputs": [
        {
          "internalType": "bytes32",
          "name": "role",
          "type": "bytes32"
        }
      ],
      "name": "getRoleMembers",
      "outputs": [
        {
          "internalType": "address[]",
          "name": "",
          "type": "address[]"
        }
      ],
      "stateMutability": "view",
      "type": "function"
    },
    {
      "inputs": [
        {
          "internalType": "bytes32",
          "name": "role",
          "type": "bytes32"
        },
        {
          "internalType": "address",
          "name": "account",
          "type": "address"
        }
      ],
      "name": "grantRole",
      "outputs": [],
      "stateMutability": "nonpayable",
      "type": "function"
    },
    {
      "inputs": [
        {
          "internalType": "bytes32",
          "name": "role",
          "type": "bytes32"
        },
        {
          "internalType": "address",
          "name": "account",
          "type": "address"
        }
      ],
      "name": "hasRole",
      "outputs": [
        {
          "internalType": "bool",
          "name": "",
          "type": "bool"
        }
      ],
      "stateMutability": "view",
      "type": "function"
    },
    {
      "inputs": [
        {
          "internalType": "address",
          "name": "account",
          "type": "address"
        }
      ],
      "name": "hasStrategyManagerRole",
      "outputs": [
        {
          "internalType": "bool",
          "name": "",
          "type": "bool"
        }
      ],
      "stateMutability": "view",
      "type": "function"
    },
    {
      "inputs": [
        {
          "internalType": "address",
          "name": "account",
          "type": "address"
        }
      ],
      "name": "hasStrategyUpgraderRole",
      "outputs": [
        {
          "internalType": "bool",
          "name": "",
          "type": "bool"
        }
      ],
      "stateMutability": "view",
      "type": "function"
    },
    {
      "inputs": [
        {
          "components": [
            {
              "internalType": "uint64",
              "name": "nonce",
              "type": "uint64"
            },
            {
              "internalType": "address",
              "name": "strategy",
              "type": "address"
            },
            {
              "internalType": "string",
              "name": "name",
              "type": "string"
            },
            {
              "internalType": "string",
              "name": "symbol",
              "type": "string"
            },
            {
              "internalType": "uint8",
              "name": "decimals",
              "type": "uint8"
            },
            {
              "internalType": "bytes",
              "name": "metadata",
              "type": "bytes"
            }
          ],
          "internalType": "struct RouteRegistryData",
          "name": "data",
          "type": "tuple"
        }
      ],
      "name": "quoteDispatchRouteRegistry",
      "outputs": [
        {
          "internalType": "uint256",
          "name": "",
          "type": "uint256"
        }
      ],
      "stateMutability": "view",
      "type": "function"
    },
    {
      "inputs": [
        {
          "internalType": "bytes32",
          "name": "role",
          "type": "bytes32"
        },
        {
          "internalType": "address",
          "name": "callerConfirmation",
          "type": "address"
        }
      ],
      "name": "renounceRole",
      "outputs": [],
      "stateMutability": "nonpayable",
      "type": "function"
    },
    {
      "inputs": [
        {
          "internalType": "bytes32",
          "name": "role",
          "type": "bytes32"
        },
        {
          "internalType": "address",
          "name": "account",
          "type": "address"
        }
      ],
      "name": "revokeRole",
      "outputs": [],
      "stateMutability": "nonpayable",
      "type": "function"
    },
    {
      "inputs": [
        {
          "components": [
            {
              "internalType": "uint64",
              "name": "nonce",
              "type": "uint64"
            },
            {
              "internalType": "address",
              "name": "strategy",
              "type": "address"
            },
            {
              "internalType": "string",
              "name": "name",
              "type": "string"
            },
            {
              "internalType": "string",
              "name": "symbol",
              "type": "string"
            },
            {
              "internalType": "uint8",
              "name": "decimals",
              "type": "uint8"
            },
            {
              "internalType": "bytes",
              "name": "metadata",
              "type": "bytes"
            }
          ],
          "internalType": "struct RouteRegistryData",
          "name": "data",
          "type": "tuple"
        }
      ],
      "name": "routeRegistryDispatch",
      "outputs": [],
      "stateMutability": "payable",
      "type": "function"
    },
    {
      "inputs": [
        {
          "internalType": "bytes4",
          "name": "interfaceId",
          "type": "bytes4"
        }
      ],
      "name": "supportsInterface",
      "outputs": [
        {
          "internalType": "bool",
          "name": "",
          "type": "bool"
        }
      ],
      "stateMutability": "view",
      "type": "function"
    }
  ],
  "bytecode": "0x6080604052348015600e575f5ffd5b506113458061001c5f395ff3fe608060405260043610610110575f3560e01c806391d148541161009d578063ca9f758211610062578063ca9f758214610350578063ce09fc051461037c578063d547741f1461038f578063ec8441dc146103ae578063fd245b4c146103cd575f5ffd5b806391d14854146102a1578063a217fddf146102c0578063a3246ad3146102d3578063abcbe0b2146102ff578063ca15c87314610331575f5ffd5b80633937c0b3116100e35780633937c0b3146101b5578063505f158a146101e757806359f82f91146102065780635e5a24a4146102385780639010d07c1461026a575f5ffd5b806301ffc9a714610114578063248a9ca3146101485780632f2ff15d1461017557806336568abe14610196575b5f5ffd5b34801561011f575f5ffd5b5061013361012e366004610df6565b6103ec565b60405190151581526020015b60405180910390f35b348015610153575f5ffd5b50610167610162366004610e1d565b610416565b60405190815260200161013f565b348015610180575f5ffd5b5061019461018f366004610e4f565b610436565b005b3480156101a1575f5ffd5b506101946101b0366004610e4f565b610458565b3480156101c0575f5ffd5b507fa6b5d83d32632203555cb9b2c2f68a8d94da48cadd9266ac0d17babedb52ea5b610167565b3480156101f2575f5ffd5b50610133610201366004610e79565b610490565b348015610211575f5ffd5b507fb6b8360f529bf65be805a119c79f97914e5e29532dc734732a563b5bc869148c610167565b348015610243575f5ffd5b507fd1473398bb66596de5d1ea1fc8e303ff2ac23265adc9144b1b52065dc4f0934b610167565b348015610275575f5ffd5b50610289610284366004610e92565b6104bc565b6040516001600160a01b03909116815260200161013f565b3480156102ac575f5ffd5b506101336102bb366004610e4f565b6104e9565b3480156102cb575f5ffd5b506101675f81565b3480156102de575f5ffd5b506102f26102ed366004610e1d565b61051f565b60405161013f9190610eb2565b34801561030a575f5ffd5b507f4170d100a3a3728ae51207936ee755ecaa64a7f6e9383c642ab204a136f90b1b610167565b34801561033c575f5ffd5b5061016761034b366004610e1d565b61054f565b34801561035b575f5ffd5b5061036f61036a366004610ff2565b610573565b60405161013f9190611115565b61019461038a366004610ff2565b61057e565b34801561039a575f5ffd5b506101946103a9366004610e4f565b610722565b3480156103b9575f5ffd5b506101676103c8366004610ff2565b61073e565b3480156103d8575f5ffd5b506101336103e7366004610e79565b6107e4565b5f6001600160e01b03198216635a05180f60e01b148061041057506104108261080e565b92915050565b5f9081525f5160206112f05f395f51905f52602052604090206001015490565b61043f82610416565b61044881610842565b610452838361084f565b50505050565b6001600160a01b03811633146104815760405163334bd91960e11b815260040160405180910390fd5b61048b8282610891565b505050565b5f6104107f4170d100a3a3728ae51207936ee755ecaa64a7f6e9383c642ab204a136f90b1b5b836104e9565b5f8281525f5160206112d05f395f51905f526020819052604082206104e190846108ca565b949350505050565b5f9182525f5160206112f05f395f51905f52602090815260408084206001600160a01b0393909316845291905290205460ff1690565b5f8181525f5160206112d05f395f51905f526020819052604090912060609190610548906108d5565b9392505050565b5f8181525f5160206112d05f395f51905f52602081905260408220610548906108e1565b6060610410826108ea565b33301461059e5760405163d248bf1560e01b815260040160405180910390fd5b5f6105a7610975565b6008810154600590910191506001600160a01b03166105d9576040516394d1b98f60e01b815260040160405180910390fd5b6002810154600160a01b900463ffffffff165f0361060a57604051632490a0bf60e11b815260040160405180910390fd5b5f61061483610573565b60038301549091505f906001600160a01b03168354600285015460405163fa31de0160e01b81529293506001600160a01b039091169163fa31de0191349161067091600160a01b900463ffffffff169086908890600401611127565b60206040518083038185885af115801561068c573d5f5f3e3d5ffd5b50505050506040513d601f19601f820116820180604052508101906106b19190611154565b50602084015183546003850154865160408089015160608a015160808b015192516001600160a01b0397881697968716967f610b5b6bdc7c0aa4d26647fcdbdd241f0736076a8ed58cb1fc722114021177b396610714969116949093929161116b565b60405180910390a350505050565b61072b82610416565b61073481610842565b6104528383610891565b5f5f610748610975565b60058101805460078301546008909301549193506001600160a01b0390811692639c42bd1892600160a01b90910463ffffffff16911661078787610573565b6040518463ffffffff1660e01b81526004016107a593929190611127565b602060405180830381865afa1580156107c0573d5f5f3e3d5ffd5b505050506040513d601f19601f820116820180604052508101906105489190611154565b5f6104107fb6b8360f529bf65be805a119c79f97914e5e29532dc734732a563b5bc869148c6104b6565b5f6001600160e01b03198216637965db0b60e01b148061041057506301ffc9a760e01b6001600160e01b0319831614610410565b61084c81336109a2565b50565b5f5f5160206112d05f395f51905f528161086985856109e4565b905080156104e1575f8581526020839052604090206108889085610a85565b50949350505050565b5f5f5160206112d05f395f51905f52816108ab8585610a99565b905080156104e1575f8581526020839052604090206108889085610b12565b5f6105488383610b26565b60605f61054883610b4c565b5f610410825490565b60605f5f6108fb8460400151610ba5565b915091505f5f61090e8660600151610c38565b90925090505f60c01b865f015160c01b61093288602001516001600160a01b031690565b868686868c6080015160f81b8d60a0015160405160200161095b999897969594939291906111dd565b604051602081830303815290604052945050505050919050565b5f8061041060017fbdce9fce78852f4396d00427ddc098ac2e3263701a971553200759a6322f4465611288565b6109ac82826104e9565b6109e05760405163e2517d3f60e01b81526001600160a01b0382166004820152602481018390526044015b60405180910390fd5b5050565b5f5f5160206112f05f395f51905f526109fd84846104e9565b610a7c575f848152602082815260408083206001600160a01b03871684529091529020805460ff19166001179055610a323390565b6001600160a01b0316836001600160a01b0316857f2f8788117e7eff1d82e926ec794901d17c78024a50270940304540a733656f0d60405160405180910390a46001915050610410565b5f915050610410565b5f610548836001600160a01b038416610cb2565b5f5f5160206112f05f395f51905f52610ab284846104e9565b15610a7c575f848152602082815260408083206001600160a01b0387168085529252808320805460ff1916905551339287917ff6391f5c32d9c69d2a47ea670b442974b53935d1edc7fd64eb21e047a839171b9190a46001915050610410565b5f610548836001600160a01b038416610cfe565b5f825f018281548110610b3b57610b3b6112a7565b905f5260205f200154905092915050565b6060815f01805480602002602001604051908101604052809291908181526020018280548015610b9957602002820191905f5260205f20905b815481526020019060010190808311610b85575b50505050509050919050565b5f610bae610dd8565b8251839060401015610c025760405162461bcd60e51b815260206004820152601960248201527f737472696e67546f427974657336343a206f766572666c6f770000000000000060448201526064016109d7565b80515f03610c13575f925050915091565b80519250602081015182526020831115610c3257604081015160208301525b50915091565b5f5f5f83905080515f03610c5157505f93849350915050565b602081511115610ca35760405162461bcd60e51b815260206004820152601960248201527f737472696e67546f427974657333323a206f766572666c6f770000000000000060448201526064016109d7565b51602093909301519293915050565b5f818152600183016020526040812054610cf757508154600181810184555f848152602080822090930184905584548482528286019093526040902091909155610410565b505f610410565b5f8181526001830160205260408120548015610a7c575f610d20600183611288565b85549091505f90610d3390600190611288565b9050808214610d92575f865f018281548110610d5157610d516112a7565b905f5260205f200154905080875f018481548110610d7157610d716112a7565b5f918252602080832090910192909255918252600188019052604090208390555b8554869080610da357610da36112bb565b600190038181905f5260205f20015f90559055856001015f8681526020019081526020015f205f905560019350505050610410565b60405180604001604052806002906020820280368337509192915050565b5f60208284031215610e06575f5ffd5b81356001600160e01b031981168114610548575f5ffd5b5f60208284031215610e2d575f5ffd5b5035919050565b80356001600160a01b0381168114610e4a575f5ffd5b919050565b5f5f60408385031215610e60575f5ffd5b82359150610e7060208401610e34565b90509250929050565b5f60208284031215610e89575f5ffd5b61054882610e34565b5f5f60408385031215610ea3575f5ffd5b50508035926020909101359150565b602080825282518282018190525f918401906040840190835b81811015610ef25783516001600160a01b0316835260209384019390920191600101610ecb565b509095945050505050565b634e487b7160e01b5f52604160045260245ffd5b60405160c0810167ffffffffffffffff81118282101715610f3457610f34610efd565b60405290565b803567ffffffffffffffff81168114610e4a575f5ffd5b5f82601f830112610f60575f5ffd5b8135602083015f5f67ffffffffffffffff841115610f8057610f80610efd565b50604051601f19601f85018116603f0116810181811067ffffffffffffffff82111715610faf57610faf610efd565b604052838152905080828401871015610fc6575f5ffd5b838360208301375f602085830101528094505050505092915050565b803560ff81168114610e4a575f5ffd5b5f60208284031215611002575f5ffd5b813567ffffffffffffffff811115611018575f5ffd5b820160c08185031215611029575f5ffd5b611031610f11565b61103a82610f3a565b815261104860208301610e34565b6020820152604082013567ffffffffffffffff811115611066575f5ffd5b61107286828501610f51565b604083015250606082013567ffffffffffffffff811115611091575f5ffd5b61109d86828501610f51565b6060830152506110af60808301610fe2565b608082015260a082013567ffffffffffffffff8111156110cd575f5ffd5b6110d986828501610f51565b60a083015250949350505050565b5f81518084528060208401602086015e5f602082860101526020601f19601f83011685010191505092915050565b602081525f61054860208301846110e7565b63ffffffff84168152826020820152606060408201525f61114b60608301846110e7565b95945050505050565b5f60208284031215611164575f5ffd5b5051919050565b6001600160a01b038616815267ffffffffffffffff8516602082015260a0604082018190525f9061119e908301866110e7565b82810360608401526111b081866110e7565b91505060ff831660808301529695505050505050565b5f81518060208401855e5f93019283525090919050565b6001600160c01b03198a81168252891660088201526010810188905260f887901b6001600160f81b03191660308201525f6031820187825b6002811015611234578151835260209283019290910190600101611215565b505050611250607183018760f81b6001600160f81b0319169052565b84607283015261126c60928301856001600160f81b0319169052565b61127960938301846111c6565b9b9a5050505050505050505050565b8181038181111561041057634e487b7160e01b5f52601160045260245ffd5b634e487b7160e01b5f52603260045260245ffd5b634e487b7160e01b5f52603160045260245ffdfec1f6fe24621ce81ec5827caf0253cadb74709b061630e6b55e8237170593200002dd7bc7dec4dceedda775e58dd541e08a116c6c53815c0bd028192f7b626800a2646970667358221220e3d63bfbfd07996f8b8370b03c1831cfdfd390232064920d3532a31fa3791d2d64736f6c634300081b0033",
  "linkReferences": {},
  "deployedLinkReferences": {}
}