{
  "_format": "hh-sol-artifact-1",
  "contractName": "StakeInfoRoute",
  "sourceName": "contracts/hyperstaking/facets/routes/StakeInfoRoute.sol",
  "abi": [
    {
      "inputs": [],
      "name": "AccessControlBadConfirmation",
      "type": "error"
    },
    {
      "inputs": [
        {
          "internalType": "address",
          "name": "account",
          "type": "address"
        },
        {
          "internalType": "bytes32",
          "name": "neededRole",
          "type": "bytes32"
        }
      ],
      "name": "AccessControlUnauthorizedAccount",
      "type": "error"
    },
    {
      "inputs": [],
      "name": "DestinationUnset",
      "type": "error"
    },
    {
      "inputs": [],
      "name": "InvalidInitialization",
      "type": "error"
    },
    {
      "inputs": [],
      "name": "NotInitializing",
      "type": "error"
    },
    {
      "inputs": [],
      "name": "OnlyDiamondInternal",
      "type": "error"
    },
    {
      "inputs": [],
      "name": "OnlyStakingManager",
      "type": "error"
    },
    {
      "inputs": [],
      "name": "OnlyStrategyManager",
      "type": "error"
    },
    {
      "inputs": [],
      "name": "OnlyStrategyUpgrader",
      "type": "error"
    },
    {
      "inputs": [],
      "name": "OnlyVaultManager",
      "type": "error"
    },
    {
      "inputs": [],
      "name": "RecipientUnset",
      "type": "error"
    },
    {
      "anonymous": false,
      "inputs": [
        {
          "indexed": false,
          "internalType": "uint64",
          "name": "version",
          "type": "uint64"
        }
      ],
      "name": "Initialized",
      "type": "event"
    },
    {
      "anonymous": false,
      "inputs": [
        {
          "indexed": true,
          "internalType": "bytes32",
          "name": "role",
          "type": "bytes32"
        },
        {
          "indexed": true,
          "internalType": "bytes32",
          "name": "previousAdminRole",
          "type": "bytes32"
        },
        {
          "indexed": true,
          "internalType": "bytes32",
          "name": "newAdminRole",
          "type": "bytes32"
        }
      ],
      "name": "RoleAdminChanged",
      "type": "event"
    },
    {
      "anonymous": false,
      "inputs": [
        {
          "indexed": true,
          "internalType": "bytes32",
          "name": "role",
          "type": "bytes32"
        },
        {
          "indexed": true,
          "internalType": "address",
          "name": "account",
          "type": "address"
        },
        {
          "indexed": true,
          "internalType": "address",
          "name": "sender",
          "type": "address"
        }
      ],
      "name": "RoleGranted",
      "type": "event"
    },
    {
      "anonymous": false,
      "inputs": [
        {
          "indexed": true,
          "internalType": "bytes32",
          "name": "role",
          "type": "bytes32"
        },
        {
          "indexed": true,
          "internalType": "address",
          "name": "account",
          "type": "address"
        },
        {
          "indexed": true,
          "internalType": "address",
          "name": "sender",
          "type": "address"
        }
      ],
      "name": "RoleRevoked",
      "type": "event"
    },
    {
      "anonymous": false,
      "inputs": [
        {
          "indexed": true,
          "internalType": "address",
          "name": "mailbox",
          "type": "address"
        },
        {
          "indexed": false,
          "internalType": "address",
          "name": "lumiaFactory",
          "type": "address"
        },
        {
          "indexed": false,
          "internalType": "uint64",
          "name": "nonce",
          "type": "uint64"
        },
        {
          "indexed": true,
          "internalType": "address",
          "name": "strategy",
          "type": "address"
        },
        {
          "indexed": true,
          "internalType": "address",
          "name": "user",
          "type": "address"
        },
        {
          "indexed": false,
          "internalType": "uint256",
          "name": "stake",
          "type": "uint256"
        }
      ],
      "name": "StakeInfoDispatched",
      "type": "event"
    },
    {
      "inputs": [],
      "name": "DEFAULT_ADMIN_ROLE",
      "outputs": [
        {
          "internalType": "bytes32",
          "name": "",
          "type": "bytes32"
        }
      ],
      "stateMutability": "view",
      "type": "function"
    },
    {
      "inputs": [],
      "name": "STAKING_MANAGER_ROLE",
      "outputs": [
        {
          "internalType": "bytes32",
          "name": "",
          "type": "bytes32"
        }
      ],
      "stateMutability": "pure",
      "type": "function"
    },
    {
      "inputs": [],
      "name": "STRATEGY_MANAGER_ROLE",
      "outputs": [
        {
          "internalType": "bytes32",
          "name": "",
          "type": "bytes32"
        }
      ],
      "stateMutability": "pure",
      "type": "function"
    },
    {
      "inputs": [],
      "name": "STRATEGY_UPGRADER_ROLE",
      "outputs": [
        {
          "internalType": "bytes32",
          "name": "",
          "type": "bytes32"
        }
      ],
      "stateMutability": "pure",
      "type": "function"
    },
    {
      "inputs": [],
      "name": "VAULT_MANAGER_ROLE",
      "outputs": [
        {
          "internalType": "bytes32",
          "name": "",
          "type": "bytes32"
        }
      ],
      "stateMutability": "pure",
      "type": "function"
    },
    {
      "inputs": [
        {
          "components": [
            {
              "internalType": "uint64",
              "name": "nonce",
              "type": "uint64"
            },
            {
              "internalType": "address",
              "name": "strategy",
              "type": "address"
            },
            {
              "internalType": "address",
              "name": "user",
              "type": "address"
            },
            {
              "internalType": "uint256",
              "name": "stake",
              "type": "uint256"
            }
          ],
          "internalType": "struct StakeInfoData",
          "name": "data",
          "type": "tuple"
        }
      ],
      "name": "generateStakeInfoBody",
      "outputs": [
        {
          "internalType": "bytes",
          "name": "body",
          "type": "bytes"
        }
      ],
      "stateMutability": "pure",
      "type": "function"
    },
    {
      "inputs": [
        {
          "internalType": "bytes32",
          "name": "role",
          "type": "bytes32"
        }
      ],
      "name": "getRoleAdmin",
      "outputs": [
        {
          "internalType": "bytes32",
          "name": "",
          "type": "bytes32"
        }
      ],
      "stateMutability": "view",
      "type": "function"
    },
    {
      "inputs": [
        {
          "internalType": "bytes32",
          "name": "role",
          "type": "bytes32"
        },
        {
          "internalType": "uint256",
          "name": "index",
          "type": "uint256"
        }
      ],
      "name": "getRoleMember",
      "outputs": [
        {
          "internalType": "address",
          "name": "",
          "type": "address"
        }
      ],
      "stateMutability": "view",
      "type": "function"
    },
    {
      "inputs": [
        {
          "internalType": "bytes32",
          "name": "role",
          "type": "bytes32"
        }
      ],
      "name": "getRoleMemberCount",
      "outputs": [
        {
          "internalType": "uint256",
          "name": "",
          "type": "uint256"
        }
      ],
      "stateMutability": "view",
      "type": "function"
    },
    {
      "inputs": [
        {
          "internalType": "bytes32",
          "name": "role",
          "type": "bytes32"
        }
      ],
      "name": "getRoleMembers",
      "outputs": [
        {
          "internalType": "address[]",
          "name": "",
          "type": "address[]"
        }
      ],
      "stateMutability": "view",
      "type": "function"
    },
    {
      "inputs": [
        {
          "internalType": "bytes32",
          "name": "role",
          "type": "bytes32"
        },
        {
          "internalType": "address",
          "name": "account",
          "type": "address"
        }
      ],
      "name": "grantRole",
      "outputs": [],
      "stateMutability": "nonpayable",
      "type": "function"
    },
    {
      "inputs": [
        {
          "internalType": "bytes32",
          "name": "role",
          "type": "bytes32"
        },
        {
          "internalType": "address",
          "name": "account",
          "type": "address"
        }
      ],
      "name": "hasRole",
      "outputs": [
        {
          "internalType": "bool",
          "name": "",
          "type": "bool"
        }
      ],
      "stateMutability": "view",
      "type": "function"
    },
    {
      "inputs": [
        {
          "internalType": "address",
          "name": "account",
          "type": "address"
        }
      ],
      "name": "hasStrategyManagerRole",
      "outputs": [
        {
          "internalType": "bool",
          "name": "",
          "type": "bool"
        }
      ],
      "stateMutability": "view",
      "type": "function"
    },
    {
      "inputs": [
        {
          "internalType": "address",
          "name": "account",
          "type": "address"
        }
      ],
      "name": "hasStrategyUpgraderRole",
      "outputs": [
        {
          "internalType": "bool",
          "name": "",
          "type": "bool"
        }
      ],
      "stateMutability": "view",
      "type": "function"
    },
    {
      "inputs": [
        {
          "components": [
            {
              "internalType": "uint64",
              "name": "nonce",
              "type": "uint64"
            },
            {
              "internalType": "address",
              "name": "strategy",
              "type": "address"
            },
            {
              "internalType": "address",
              "name": "user",
              "type": "address"
            },
            {
              "internalType": "uint256",
              "name": "stake",
              "type": "uint256"
            }
          ],
          "internalType": "struct StakeInfoData",
          "name": "data",
          "type": "tuple"
        }
      ],
      "name": "quoteDispatchStakeInfo",
      "outputs": [
        {
          "internalType": "uint256",
          "name": "",
          "type": "uint256"
        }
      ],
      "stateMutability": "view",
      "type": "function"
    },
    {
      "inputs": [
        {
          "internalType": "bytes32",
          "name": "role",
          "type": "bytes32"
        },
        {
          "internalType": "address",
          "name": "callerConfirmation",
          "type": "address"
        }
      ],
      "name": "renounceRole",
      "outputs": [],
      "stateMutability": "nonpayable",
      "type": "function"
    },
    {
      "inputs": [
        {
          "internalType": "bytes32",
          "name": "role",
          "type": "bytes32"
        },
        {
          "internalType": "address",
          "name": "account",
          "type": "address"
        }
      ],
      "name": "revokeRole",
      "outputs": [],
      "stateMutability": "nonpayable",
      "type": "function"
    },
    {
      "inputs": [
        {
          "components": [
            {
              "internalType": "uint64",
              "name": "nonce",
              "type": "uint64"
            },
            {
              "internalType": "address",
              "name": "strategy",
              "type": "address"
            },
            {
              "internalType": "address",
              "name": "user",
              "type": "address"
            },
            {
              "internalType": "uint256",
              "name": "stake",
              "type": "uint256"
            }
          ],
          "internalType": "struct StakeInfoData",
          "name": "data",
          "type": "tuple"
        }
      ],
      "name": "stakeInfoDispatch",
      "outputs": [],
      "stateMutability": "payable",
      "type": "function"
    },
    {
      "inputs": [
        {
          "internalType": "bytes4",
          "name": "interfaceId",
          "type": "bytes4"
        }
      ],
      "name": "supportsInterface",
      "outputs": [
        {
          "internalType": "bool",
          "name": "",
          "type": "bool"
        }
      ],
      "stateMutability": "view",
      "type": "function"
    }
  ],
  "bytecode": "0x6080604052348015600e575f5ffd5b50610fa58061001c5f395ff3fe608060405260043610610110575f3560e01c806359f82f911161009d578063a3246ad311610062578063a3246ad314610331578063abcbe0b21461035d578063ca15c8731461038f578063d547741f146103ae578063fd245b4c146103cd575f5ffd5b806359f82f91146102645780635e5a24a4146102965780639010d07c146102c857806391d14854146102ff578063a217fddf1461031e575f5ffd5b80633937c0b3116100e35780633937c0b3146101b5578063505f158a146101e757806351872b571461020657806353295e181461023257806357d6001d14610251575f5ffd5b806301ffc9a714610114578063248a9ca3146101485780632f2ff15d1461017557806336568abe14610196575b5f5ffd5b34801561011f575f5ffd5b5061013361012e366004610ccb565b6103ec565b60405190151581526020015b60405180910390f35b348015610153575f5ffd5b50610167610162366004610cf2565b610416565b60405190815260200161013f565b348015610180575f5ffd5b5061019461018f366004610d24565b610436565b005b3480156101a1575f5ffd5b506101946101b0366004610d24565b610458565b3480156101c0575f5ffd5b507fa6b5d83d32632203555cb9b2c2f68a8d94da48cadd9266ac0d17babedb52ea5b610167565b3480156101f2575f5ffd5b50610133610201366004610d4e565b610490565b348015610211575f5ffd5b50610225610220366004610d67565b6104bc565b60405161013f9190610e27565b34801561023d575f5ffd5b5061016761024c366004610d67565b6104c7565b61019461025f366004610d67565b610574565b34801561026f575f5ffd5b507fb6b8360f529bf65be805a119c79f97914e5e29532dc734732a563b5bc869148c610167565b3480156102a1575f5ffd5b507fd1473398bb66596de5d1ea1fc8e303ff2ac23265adc9144b1b52065dc4f0934b610167565b3480156102d3575f5ffd5b506102e76102e2366004610e39565b610727565b6040516001600160a01b03909116815260200161013f565b34801561030a575f5ffd5b50610133610319366004610d24565b610754565b348015610329575f5ffd5b506101675f81565b34801561033c575f5ffd5b5061035061034b366004610cf2565b61078a565b60405161013f9190610e59565b348015610368575f5ffd5b507f4170d100a3a3728ae51207936ee755ecaa64a7f6e9383c642ab204a136f90b1b610167565b34801561039a575f5ffd5b506101676103a9366004610cf2565b6107b3565b3480156103b9575f5ffd5b506101946103c8366004610d24565b6107d7565b3480156103d8575f5ffd5b506101336103e7366004610d4e565b6107f3565b5f6001600160e01b03198216635a05180f60e01b148061041057506104108261081d565b92915050565b5f9081525f516020610f505f395f51905f52602052604090206001015490565b61043f82610416565b61044881610851565b610452838361085e565b50505050565b6001600160a01b03811633146104815760405163334bd91960e11b815260040160405180910390fd5b61048b82826108a0565b505050565b5f6104107f4170d100a3a3728ae51207936ee755ecaa64a7f6e9383c642ab204a136f90b1b5b83610754565b6060610410826108d9565b5f5f6104d1610956565b60058101805460078301546008909301549193506001600160a01b0390811692639c42bd1892600160a01b90910463ffffffff169116610510876104bc565b6040518463ffffffff1660e01b815260040161052e93929190610ea4565b602060405180830381865afa158015610549573d5f5f3e3d5ffd5b505050506040513d601f19601f8201168201806040525081019061056d9190610ed1565b9392505050565b3330146105945760405163d248bf1560e01b815260040160405180910390fd5b5f61059d610956565b6008810154600590910191506001600160a01b03166105cf576040516394d1b98f60e01b815260040160405180910390fd5b6002810154600160a01b900463ffffffff165f0361060057604051632490a0bf60e11b815260040160405180910390fd5b5f61060a836104bc565b60038301549091505f906001600160a01b03168354600285015460405163fa31de0160e01b81529293506001600160a01b039091169163fa31de0191349161066691600160a01b900463ffffffff169086908890600401610ea4565b60206040518083038185885af1158015610682573d5f5f3e3d5ffd5b50505050506040513d601f19601f820116820180604052508101906106a79190610ed1565b506040848101516020808701518654600388015489516060808c015188516001600160a01b03948516815267ffffffffffffffff9093169683019690965296810194909452938416949184169316917fbc99506ad3e32111efb126e5db85b6998ecabf48b736d8aab68234cccbf69a7c910160405180910390a450505050565b5f8281525f516020610f305f395f51905f5260208190526040822061074c9084610983565b949350505050565b5f9182525f516020610f505f395f51905f52602090815260408084206001600160a01b0393909316845291905290205460ff1690565b5f8181525f516020610f305f395f51905f52602081905260409091206060919061056d9061098e565b5f8181525f516020610f305f395f51905f5260208190526040822061056d9061099a565b6107e082610416565b6107e981610851565b61045283836108a0565b5f6104107fb6b8360f529bf65be805a119c79f97914e5e29532dc734732a563b5bc869148c6104b6565b5f6001600160e01b03198216637965db0b60e01b148061041057506301ffc9a760e01b6001600160e01b0319831614610410565b61085b81336109a3565b50565b5f5f516020610f305f395f51905f528161087885856109e4565b9050801561074c575f8581526020839052604090206108979085610a85565b50949350505050565b5f5f516020610f305f395f51905f52816108ba8585610a99565b9050801561074c575f8581526020839052604090206108979085610b12565b6060600160c01b825f015160c01b6108fb84602001516001600160a01b031690565b60408501516001600160a01b031660608601516040516001600160c01b031995861660208201529490931660288501526030840191909152605083015260708201526090016040516020818303038152906040529050919050565b5f8061041060017fbdce9fce78852f4396d00427ddc098ac2e3263701a971553200759a6322f4465610ee8565b5f61056d8383610b26565b60605f61056d83610b4c565b5f610410825490565b6109ad8282610754565b6109e05760405163e2517d3f60e01b81526001600160a01b03821660048201526024810183905260440160405180910390fd5b5050565b5f5f516020610f505f395f51905f526109fd8484610754565b610a7c575f848152602082815260408083206001600160a01b03871684529091529020805460ff19166001179055610a323390565b6001600160a01b0316836001600160a01b0316857f2f8788117e7eff1d82e926ec794901d17c78024a50270940304540a733656f0d60405160405180910390a46001915050610410565b5f915050610410565b5f61056d836001600160a01b038416610ba5565b5f5f516020610f505f395f51905f52610ab28484610754565b15610a7c575f848152602082815260408083206001600160a01b0387168085529252808320805460ff1916905551339287917ff6391f5c32d9c69d2a47ea670b442974b53935d1edc7fd64eb21e047a839171b9190a46001915050610410565b5f61056d836001600160a01b038416610bf1565b5f825f018281548110610b3b57610b3b610f07565b905f5260205f200154905092915050565b6060815f01805480602002602001604051908101604052809291908181526020018280548015610b9957602002820191905f5260205f20905b815481526020019060010190808311610b85575b50505050509050919050565b5f818152600183016020526040812054610bea57508154600181810184555f848152602080822090930184905584548482528286019093526040902091909155610410565b505f610410565b5f8181526001830160205260408120548015610a7c575f610c13600183610ee8565b85549091505f90610c2690600190610ee8565b9050808214610c85575f865f018281548110610c4457610c44610f07565b905f5260205f200154905080875f018481548110610c6457610c64610f07565b5f918252602080832090910192909255918252600188019052604090208390555b8554869080610c9657610c96610f1b565b600190038181905f5260205f20015f90559055856001015f8681526020019081526020015f205f905560019350505050610410565b5f60208284031215610cdb575f5ffd5b81356001600160e01b03198116811461056d575f5ffd5b5f60208284031215610d02575f5ffd5b5035919050565b80356001600160a01b0381168114610d1f575f5ffd5b919050565b5f5f60408385031215610d35575f5ffd5b82359150610d4560208401610d09565b90509250929050565b5f60208284031215610d5e575f5ffd5b61056d82610d09565b5f6080828403128015610d78575f5ffd5b506040516080810167ffffffffffffffff81118282101715610da857634e487b7160e01b5f52604160045260245ffd5b604052823567ffffffffffffffff81168114610dc2575f5ffd5b8152610dd060208401610d09565b6020820152610de160408401610d09565b60408201526060928301359281019290925250919050565b5f81518084528060208401602086015e5f602082860101526020601f19601f83011685010191505092915050565b602081525f61056d6020830184610df9565b5f5f60408385031215610e4a575f5ffd5b50508035926020909101359150565b602080825282518282018190525f918401906040840190835b81811015610e995783516001600160a01b0316835260209384019390920191600101610e72565b509095945050505050565b63ffffffff84168152826020820152606060408201525f610ec86060830184610df9565b95945050505050565b5f60208284031215610ee1575f5ffd5b5051919050565b8181038181111561041057634e487b7160e01b5f52601160045260245ffd5b634e487b7160e01b5f52603260045260245ffd5b634e487b7160e01b5f52603160045260245ffdfec1f6fe24621ce81ec5827caf0253cadb74709b061630e6b55e8237170593200002dd7bc7dec4dceedda775e58dd541e08a116c6c53815c0bd028192f7b626800a264697066735822122057469c19c03e7841d1088936dea8ed52ad793da46c0e4c14c8553ff936a3dbf664736f6c634300081b0033",
  "linkReferences": {},
  "deployedLinkReferences": {}
}