{
  "_format": "hh-sol-artifact-1",
  "contractName": "HyperStakingInit",
  "sourceName": "contracts/hyperstaking/HyperStakingInit.sol",
  "abi": [
    {
      "inputs": [],
      "name": "AccessControlBadConfirmation",
      "type": "error"
    },
    {
      "inputs": [
        {
          "internalType": "address",
          "name": "account",
          "type": "address"
        },
        {
          "internalType": "bytes32",
          "name": "neededRole",
          "type": "bytes32"
        }
      ],
      "name": "AccessControlUnauthorizedAccount",
      "type": "error"
    },
    {
      "inputs": [],
      "name": "EnforcedPause",
      "type": "error"
    },
    {
      "inputs": [],
      "name": "ExpectedPause",
      "type": "error"
    },
    {
      "inputs": [],
      "name": "InvalidInitialization",
      "type": "error"
    },
    {
      "inputs": [],
      "name": "NotInitializing",
      "type": "error"
    },
    {
      "inputs": [],
      "name": "ReentrancyGuardReentrantCall",
      "type": "error"
    },
    {
      "inputs": [],
      "name": "ZeroAddress",
      "type": "error"
    },
    {
      "anonymous": false,
      "inputs": [
        {
          "indexed": false,
          "internalType": "uint64",
          "name": "version",
          "type": "uint64"
        }
      ],
      "name": "Initialized",
      "type": "event"
    },
    {
      "anonymous": false,
      "inputs": [
        {
          "indexed": false,
          "internalType": "address",
          "name": "account",
          "type": "address"
        }
      ],
      "name": "Paused",
      "type": "event"
    },
    {
      "anonymous": false,
      "inputs": [
        {
          "indexed": true,
          "internalType": "bytes32",
          "name": "role",
          "type": "bytes32"
        },
        {
          "indexed": true,
          "internalType": "bytes32",
          "name": "previousAdminRole",
          "type": "bytes32"
        },
        {
          "indexed": true,
          "internalType": "bytes32",
          "name": "newAdminRole",
          "type": "bytes32"
        }
      ],
      "name": "RoleAdminChanged",
      "type": "event"
    },
    {
      "anonymous": false,
      "inputs": [
        {
          "indexed": true,
          "internalType": "bytes32",
          "name": "role",
          "type": "bytes32"
        },
        {
          "indexed": true,
          "internalType": "address",
          "name": "account",
          "type": "address"
        },
        {
          "indexed": true,
          "internalType": "address",
          "name": "sender",
          "type": "address"
        }
      ],
      "name": "RoleGranted",
      "type": "event"
    },
    {
      "anonymous": false,
      "inputs": [
        {
          "indexed": true,
          "internalType": "bytes32",
          "name": "role",
          "type": "bytes32"
        },
        {
          "indexed": true,
          "internalType": "address",
          "name": "account",
          "type": "address"
        },
        {
          "indexed": true,
          "internalType": "address",
          "name": "sender",
          "type": "address"
        }
      ],
      "name": "RoleRevoked",
      "type": "event"
    },
    {
      "anonymous": false,
      "inputs": [
        {
          "indexed": false,
          "internalType": "address",
          "name": "account",
          "type": "address"
        }
      ],
      "name": "Unpaused",
      "type": "event"
    },
    {
      "inputs": [],
      "name": "DEFAULT_ADMIN_ROLE",
      "outputs": [
        {
          "internalType": "bytes32",
          "name": "",
          "type": "bytes32"
        }
      ],
      "stateMutability": "view",
      "type": "function"
    },
    {
      "inputs": [
        {
          "internalType": "bytes32",
          "name": "role",
          "type": "bytes32"
        }
      ],
      "name": "getRoleAdmin",
      "outputs": [
        {
          "internalType": "bytes32",
          "name": "",
          "type": "bytes32"
        }
      ],
      "stateMutability": "view",
      "type": "function"
    },
    {
      "inputs": [
        {
          "internalType": "bytes32",
          "name": "role",
          "type": "bytes32"
        },
        {
          "internalType": "uint256",
          "name": "index",
          "type": "uint256"
        }
      ],
      "name": "getRoleMember",
      "outputs": [
        {
          "internalType": "address",
          "name": "",
          "type": "address"
        }
      ],
      "stateMutability": "view",
      "type": "function"
    },
    {
      "inputs": [
        {
          "internalType": "bytes32",
          "name": "role",
          "type": "bytes32"
        }
      ],
      "name": "getRoleMemberCount",
      "outputs": [
        {
          "internalType": "uint256",
          "name": "",
          "type": "uint256"
        }
      ],
      "stateMutability": "view",
      "type": "function"
    },
    {
      "inputs": [
        {
          "internalType": "bytes32",
          "name": "role",
          "type": "bytes32"
        }
      ],
      "name": "getRoleMembers",
      "outputs": [
        {
          "internalType": "address[]",
          "name": "",
          "type": "address[]"
        }
      ],
      "stateMutability": "view",
      "type": "function"
    },
    {
      "inputs": [
        {
          "internalType": "bytes32",
          "name": "role",
          "type": "bytes32"
        },
        {
          "internalType": "address",
          "name": "account",
          "type": "address"
        }
      ],
      "name": "grantRole",
      "outputs": [],
      "stateMutability": "nonpayable",
      "type": "function"
    },
    {
      "inputs": [
        {
          "internalType": "bytes32",
          "name": "role",
          "type": "bytes32"
        },
        {
          "internalType": "address",
          "name": "account",
          "type": "address"
        }
      ],
      "name": "hasRole",
      "outputs": [
        {
          "internalType": "bool",
          "name": "",
          "type": "bool"
        }
      ],
      "stateMutability": "view",
      "type": "function"
    },
    {
      "inputs": [
        {
          "internalType": "address",
          "name": "initStakingManager",
          "type": "address"
        },
        {
          "internalType": "address",
          "name": "initVaultManager",
          "type": "address"
        },
        {
          "internalType": "address",
          "name": "initStrategyManager",
          "type": "address"
        },
        {
          "internalType": "address",
          "name": "lockboxMailbox",
          "type": "address"
        },
        {
          "internalType": "uint32",
          "name": "lockboxDestination",
          "type": "uint32"
        }
      ],
      "name": "init",
      "outputs": [],
      "stateMutability": "nonpayable",
      "type": "function"
    },
    {
      "inputs": [],
      "name": "paused",
      "outputs": [
        {
          "internalType": "bool",
          "name": "",
          "type": "bool"
        }
      ],
      "stateMutability": "view",
      "type": "function"
    },
    {
      "inputs": [
        {
          "internalType": "bytes32",
          "name": "role",
          "type": "bytes32"
        },
        {
          "internalType": "address",
          "name": "callerConfirmation",
          "type": "address"
        }
      ],
      "name": "renounceRole",
      "outputs": [],
      "stateMutability": "nonpayable",
      "type": "function"
    },
    {
      "inputs": [
        {
          "internalType": "bytes32",
          "name": "role",
          "type": "bytes32"
        },
        {
          "internalType": "address",
          "name": "account",
          "type": "address"
        }
      ],
      "name": "revokeRole",
      "outputs": [],
      "stateMutability": "nonpayable",
      "type": "function"
    },
    {
      "inputs": [
        {
          "internalType": "bytes4",
          "name": "interfaceId",
          "type": "bytes4"
        }
      ],
      "name": "supportsInterface",
      "outputs": [
        {
          "internalType": "bool",
          "name": "",
          "type": "bool"
        }
      ],
      "stateMutability": "view",
      "type": "function"
    }
  ],
  "bytecode": "0x6080604052348015600e575f5ffd5b50610d468061001c5f395ff3fe608060405234801561000f575f5ffd5b50600436106100b1575f3560e01c806391d148541161006e57806391d148541461017b578063a217fddf1461018e578063a3246ad314610195578063ca15c873146101b5578063d547741f146101c8578063ded48503146101db575f5ffd5b806301ffc9a7146100b5578063248a9ca3146100dd5780632f2ff15d146100fe57806336568abe146101135780635c975abb146101265780639010d07c14610150575b5f5ffd5b6100c86100c3366004610b2e565b6101ee565b60405190151581526020015b60405180910390f35b6100f06100eb366004610b55565b610218565b6040519081526020016100d4565b61011161010c366004610b87565b610238565b005b610111610121366004610b87565b61025a565b7fcd5ed15c6e187e77e9aee88184c21f4f2182ab5827cb3b7e07fbedcd63f033005460ff166100c8565b61016361015e366004610bb1565b610292565b6040516001600160a01b0390911681526020016100d4565b6100c8610189366004610b87565b6102bf565b6100f05f81565b6101a86101a3366004610b55565b6102f5565b6040516100d49190610bd1565b6100f06101c3366004610b55565b610325565b6101116101d6366004610b87565b610349565b6101116101e9366004610c1c565b610365565b5f6001600160e01b03198216635a05180f60e01b1480610212575061021282610629565b92915050565b5f9081525f516020610cf15f395f51905f52602052604090206001015490565b61024182610218565b61024a8161065d565b610254838361066a565b50505050565b6001600160a01b03811633146102835760405163334bd91960e11b815260040160405180910390fd5b61028d82826106ac565b505050565b5f8281525f516020610cd15f395f51905f526020819052604082206102b790846106e5565b949350505050565b5f9182525f516020610cf15f395f51905f52602090815260408084206001600160a01b0393909316845291905290205460ff1690565b5f8181525f516020610cd15f395f51905f52602081905260409091206060919061031e906106f0565b9392505050565b5f8181525f516020610cd15f395f51905f5260208190526040822061031e906106fc565b61035282610218565b61035b8161065d565b61025483836106ac565b7ff0c57e16840df040f15088dc2f81fe391c3923bec73e23a9662efc9c229c6a008054600160401b810460ff16159067ffffffffffffffff165f811580156103aa5750825b90505f8267ffffffffffffffff1660011480156103c65750303b155b9050811580156103d4575080155b156103f25760405163f92ee8a960e01b815260040160405180910390fd5b845467ffffffffffffffff19166001178555831561041c57845460ff60401b1916600160401b1785555b610424610705565b61042c61070f565b61043461071f565b61043e5f3361066a565b506104697fa6b5d83d32632203555cb9b2c2f68a8d94da48cadd9266ac0d17babedb52ea5b8b61066a565b506104947fd1473398bb66596de5d1ea1fc8e303ff2ac23265adc9144b1b52065dc4f0934b8a61066a565b506104bf7f4170d100a3a3728ae51207936ee755ecaa64a7f6e9383c642ab204a136f90b1b8961066a565b506104ea7fb6b8360f529bf65be805a119c79f97914e5e29532dc734732a563b5bc869148c3361066a565b50635a05180f60e01b5f9081527fc8fcad8db84d3cc18b4c41d551ea0ee66dd599cde068d998e57d5e09332c131f6020527fead49a91534c613aa041a37b4ec60071fffa378ffdebca636e9dba34cc056cc8805460ff191660011790557fc8fcad8db84d3cc18b4c41d551ea0ee66dd599cde068d998e57d5e09332c131c9061057161072f565b90506001600160a01b03891661059a5760405163d92e233d60e01b815260040160405180910390fd5b60078101805463ffffffff60a01b1916600160a01b63ffffffff8b160217905560050180546001600160a01b0319166001600160a01b038a1617905550831561061d57845460ff60401b19168555604051600181527fc7f505b2f371ae2175ee4913f4499e1f2633a7b5936321eed1cdaeb6115181d29060200160405180910390a15b50505050505050505050565b5f6001600160e01b03198216637965db0b60e01b148061021257506301ffc9a760e01b6001600160e01b0319831614610212565b610667813361075c565b50565b5f5f516020610cd15f395f51905f5281610684858561079d565b905080156102b7575f8581526020839052604090206106a3908561083e565b50949350505050565b5f5f516020610cd15f395f51905f52816106c68585610852565b905080156102b7575f8581526020839052604090206106a390856108cb565b5f61031e83836108df565b60605f61031e83610905565b5f610212825490565b61070d61095e565b565b61071761095e565b61070d6109a7565b61072761095e565b61070d6109d5565b5f8061021260017fbdce9fce78852f4396d00427ddc098ac2e3263701a971553200759a6322f4465610c89565b61076682826102bf565b6107995760405163e2517d3f60e01b81526001600160a01b03821660048201526024810183905260440160405180910390fd5b5050565b5f5f516020610cf15f395f51905f526107b684846102bf565b610835575f848152602082815260408083206001600160a01b03871684529091529020805460ff191660011790556107eb3390565b6001600160a01b0316836001600160a01b0316857f2f8788117e7eff1d82e926ec794901d17c78024a50270940304540a733656f0d60405160405180910390a46001915050610212565b5f915050610212565b5f61031e836001600160a01b038416610a08565b5f5f516020610cf15f395f51905f5261086b84846102bf565b15610835575f848152602082815260408083206001600160a01b0387168085529252808320805460ff1916905551339287917ff6391f5c32d9c69d2a47ea670b442974b53935d1edc7fd64eb21e047a839171b9190a46001915050610212565b5f61031e836001600160a01b038416610a54565b5f825f0182815481106108f4576108f4610ca8565b905f5260205f200154905092915050565b6060815f0180548060200260200160405190810160405280929190818152602001828054801561095257602002820191905f5260205f20905b81548152602001906001019080831161093e575b50505050509050919050565b7ff0c57e16840df040f15088dc2f81fe391c3923bec73e23a9662efc9c229c6a0054600160401b900460ff1661070d57604051631afcd79f60e31b815260040160405180910390fd5b6109af61095e565b60017f9b779b17422d0df92223018b32b4d1fa46e071723d6817e2486d003becc55f0055565b6109dd61095e565b7fcd5ed15c6e187e77e9aee88184c21f4f2182ab5827cb3b7e07fbedcd63f03300805460ff19169055565b5f818152600183016020526040812054610a4d57508154600181810184555f848152602080822090930184905584548482528286019093526040902091909155610212565b505f610212565b5f8181526001830160205260408120548015610835575f610a76600183610c89565b85549091505f90610a8990600190610c89565b9050808214610ae8575f865f018281548110610aa757610aa7610ca8565b905f5260205f200154905080875f018481548110610ac757610ac7610ca8565b5f918252602080832090910192909255918252600188019052604090208390555b8554869080610af957610af9610cbc565b600190038181905f5260205f20015f90559055856001015f8681526020019081526020015f205f905560019350505050610212565b5f60208284031215610b3e575f5ffd5b81356001600160e01b03198116811461031e575f5ffd5b5f60208284031215610b65575f5ffd5b5035919050565b80356001600160a01b0381168114610b82575f5ffd5b919050565b5f5f60408385031215610b98575f5ffd5b82359150610ba860208401610b6c565b90509250929050565b5f5f60408385031215610bc2575f5ffd5b50508035926020909101359150565b602080825282518282018190525f918401906040840190835b81811015610c115783516001600160a01b0316835260209384019390920191600101610bea565b509095945050505050565b5f5f5f5f5f60a08688031215610c30575f5ffd5b610c3986610b6c565b9450610c4760208701610b6c565b9350610c5560408701610b6c565b9250610c6360608701610b6c565b9150608086013563ffffffff81168114610c7b575f5ffd5b809150509295509295909350565b8181038181111561021257634e487b7160e01b5f52601160045260245ffd5b634e487b7160e01b5f52603260045260245ffd5b634e487b7160e01b5f52603160045260245ffdfec1f6fe24621ce81ec5827caf0253cadb74709b061630e6b55e8237170593200002dd7bc7dec4dceedda775e58dd541e08a116c6c53815c0bd028192f7b626800a2646970667358221220a8dcd152ad39b19f15dc9a8f4732b68867528664609964630ebba97580ec9c6e64736f6c634300081b0033",
  "linkReferences": {},
  "deployedLinkReferences": {}
}