{
  "_format": "hh-sol-artifact-1",
  "contractName": "MockReserveStrategy",
  "sourceName": "contracts/test/MockReserveStrategy.sol",
  "abi": [
    {
      "inputs": [
        {
          "internalType": "address",
          "name": "target",
          "type": "address"
        }
      ],
      "name": "AddressEmptyCode",
      "type": "error"
    },
    {
      "inputs": [],
      "name": "AlreadyClaimed",
      "type": "error"
    },
    {
      "inputs": [],
      "name": "DontSupportArrays",
      "type": "error"
    },
    {
      "inputs": [
        {
          "internalType": "address",
          "name": "implementation",
          "type": "address"
        }
      ],
      "name": "ERC1967InvalidImplementation",
      "type": "error"
    },
    {
      "inputs": [],
      "name": "ERC1967NonPayable",
      "type": "error"
    },
    {
      "inputs": [],
      "name": "FailedCall",
      "type": "error"
    },
    {
      "inputs": [],
      "name": "InsufficientBalance",
      "type": "error"
    },
    {
      "inputs": [],
      "name": "InsufficientValue",
      "type": "error"
    },
    {
      "inputs": [],
      "name": "InvalidInitialization",
      "type": "error"
    },
    {
      "inputs": [],
      "name": "MissingCollateral",
      "type": "error"
    },
    {
      "inputs": [],
      "name": "NotInitializing",
      "type": "error"
    },
    {
      "inputs": [],
      "name": "NotLumiaDiamond",
      "type": "error"
    },
    {
      "inputs": [],
      "name": "NotReady",
      "type": "error"
    },
    {
      "inputs": [],
      "name": "NotStrategyManager",
      "type": "error"
    },
    {
      "inputs": [],
      "name": "NotStrategyUpgrader",
      "type": "error"
    },
    {
      "inputs": [],
      "name": "RefundFailed",
      "type": "error"
    },
    {
      "inputs": [],
      "name": "RefundNotSupported",
      "type": "error"
    },
    {
      "inputs": [
        {
          "internalType": "uint256",
          "name": "id",
          "type": "uint256"
        }
      ],
      "name": "RequestIdExists",
      "type": "error"
    },
    {
      "inputs": [
        {
          "internalType": "uint256",
          "name": "id",
          "type": "uint256"
        }
      ],
      "name": "RequestNotFound",
      "type": "error"
    },
    {
      "inputs": [
        {
          "internalType": "address",
          "name": "token",
          "type": "address"
        }
      ],
      "name": "SafeERC20FailedOperation",
      "type": "error"
    },
    {
      "inputs": [],
      "name": "TransferFailed",
      "type": "error"
    },
    {
      "inputs": [],
      "name": "UUPSUnauthorizedCallContext",
      "type": "error"
    },
    {
      "inputs": [
        {
          "internalType": "bytes32",
          "name": "slot",
          "type": "bytes32"
        }
      ],
      "name": "UUPSUnsupportedProxiableUUID",
      "type": "error"
    },
    {
      "inputs": [],
      "name": "WrongKind",
      "type": "error"
    },
    {
      "inputs": [],
      "name": "ZeroAddress",
      "type": "error"
    },
    {
      "inputs": [],
      "name": "ZeroAmount",
      "type": "error"
    },
    {
      "inputs": [],
      "name": "ZeroUser",
      "type": "error"
    },
    {
      "anonymous": false,
      "inputs": [
        {
          "indexed": true,
          "internalType": "uint256",
          "name": "id",
          "type": "uint256"
        },
        {
          "indexed": false,
          "internalType": "address",
          "name": "receiver",
          "type": "address"
        },
        {
          "indexed": false,
          "internalType": "uint256",
          "name": "assetAllocation",
          "type": "uint256"
        }
      ],
      "name": "AllocationClaimed",
      "type": "event"
    },
    {
      "anonymous": false,
      "inputs": [
        {
          "indexed": true,
          "internalType": "uint256",
          "name": "id",
          "type": "uint256"
        },
        {
          "indexed": false,
          "internalType": "address",
          "name": "receiver",
          "type": "address"
        },
        {
          "indexed": false,
          "internalType": "uint256",
          "name": "refundedStake",
          "type": "uint256"
        }
      ],
      "name": "AllocationRefunded",
      "type": "event"
    },
    {
      "anonymous": false,
      "inputs": [
        {
          "indexed": true,
          "internalType": "uint256",
          "name": "id",
          "type": "uint256"
        },
        {
          "indexed": true,
          "internalType": "address",
          "name": "user",
          "type": "address"
        },
        {
          "indexed": false,
          "internalType": "uint256",
          "name": "stakeAmount",
          "type": "uint256"
        },
        {
          "indexed": false,
          "internalType": "uint64",
          "name": "readyAt",
          "type": "uint64"
        }
      ],
      "name": "AllocationRequested",
      "type": "event"
    },
    {
      "anonymous": false,
      "inputs": [
        {
          "indexed": true,
          "internalType": "address",
          "name": "from",
          "type": "address"
        },
        {
          "indexed": true,
          "internalType": "address",
          "name": "asset",
          "type": "address"
        },
        {
          "indexed": false,
          "internalType": "uint256",
          "name": "newAssetPrice",
          "type": "uint256"
        }
      ],
      "name": "AssetPriceSet",
      "type": "event"
    },
    {
      "anonymous": false,
      "inputs": [
        {
          "indexed": true,
          "internalType": "address",
          "name": "sender",
          "type": "address"
        },
        {
          "indexed": true,
          "internalType": "address",
          "name": "currencyToken",
          "type": "address"
        },
        {
          "indexed": false,
          "internalType": "uint256",
          "name": "amount",
          "type": "uint256"
        },
        {
          "indexed": true,
          "internalType": "address",
          "name": "to",
          "type": "address"
        }
      ],
      "name": "EmergencyWithdraw",
      "type": "event"
    },
    {
      "anonymous": false,
      "inputs": [
        {
          "indexed": true,
          "internalType": "uint256",
          "name": "id",
          "type": "uint256"
        },
        {
          "indexed": false,
          "internalType": "address",
          "name": "receiver",
          "type": "address"
        },
        {
          "indexed": false,
          "internalType": "uint256",
          "name": "exitStakeAmount",
          "type": "uint256"
        }
      ],
      "name": "ExitClaimed",
      "type": "event"
    },
    {
      "anonymous": false,
      "inputs": [
        {
          "indexed": true,
          "internalType": "uint256",
          "name": "id",
          "type": "uint256"
        },
        {
          "indexed": false,
          "internalType": "address",
          "name": "receiver",
          "type": "address"
        },
        {
          "indexed": false,
          "internalType": "uint256",
          "name": "refundedAllocation",
          "type": "uint256"
        }
      ],
      "name": "ExitRefunded",
      "type": "event"
    },
    {
      "anonymous": false,
      "inputs": [
        {
          "indexed": true,
          "internalType": "uint256",
          "name": "id",
          "type": "uint256"
        },
        {
          "indexed": true,
          "internalType": "address",
          "name": "user",
          "type": "address"
        },
        {
          "indexed": false,
          "internalType": "uint256",
          "name": "assetAllocation",
          "type": "uint256"
        },
        {
          "indexed": false,
          "internalType": "uint64",
          "name": "readyAt",
          "type": "uint64"
        }
      ],
      "name": "ExitRequested",
      "type": "event"
    },
    {
      "anonymous": false,
      "inputs": [
        {
          "indexed": false,
          "internalType": "uint64",
          "name": "version",
          "type": "uint64"
        }
      ],
      "name": "Initialized",
      "type": "event"
    },
    {
      "anonymous": false,
      "inputs": [
        {
          "indexed": false,
          "internalType": "uint64",
          "name": "allocationOffset",
          "type": "uint64"
        },
        {
          "indexed": false,
          "internalType": "uint64",
          "name": "exitOffset",
          "type": "uint64"
        }
      ],
      "name": "ReadyAtOffsetsSet",
      "type": "event"
    },
    {
      "anonymous": false,
      "inputs": [
        {
          "indexed": true,
          "internalType": "address",
          "name": "from",
          "type": "address"
        },
        {
          "indexed": false,
          "internalType": "uint256",
          "name": "value",
          "type": "uint256"
        }
      ],
      "name": "Received",
      "type": "event"
    },
    {
      "anonymous": false,
      "inputs": [
        {
          "indexed": true,
          "internalType": "address",
          "name": "from",
          "type": "address"
        },
        {
          "indexed": true,
          "internalType": "address",
          "name": "asset",
          "type": "address"
        },
        {
          "indexed": false,
          "internalType": "uint256",
          "name": "amount",
          "type": "uint256"
        }
      ],
      "name": "RevenueAssetSupply",
      "type": "event"
    },
    {
      "anonymous": false,
      "inputs": [
        {
          "indexed": true,
          "internalType": "address",
          "name": "to",
          "type": "address"
        },
        {
          "indexed": true,
          "internalType": "address",
          "name": "asset",
          "type": "address"
        },
        {
          "indexed": false,
          "internalType": "uint256",
          "name": "amount",
          "type": "uint256"
        }
      ],
      "name": "RevenueAssetWithdraw",
      "type": "event"
    },
    {
      "anonymous": false,
      "inputs": [
        {
          "indexed": true,
          "internalType": "address",
          "name": "to",
          "type": "address"
        },
        {
          "indexed": true,
          "internalType": "address",
          "name": "stakeToken",
          "type": "address"
        },
        {
          "indexed": false,
          "internalType": "uint256",
          "name": "amount",
          "type": "uint256"
        }
      ],
      "name": "StakeAssetWithdraw",
      "type": "event"
    },
    {
      "anonymous": false,
      "inputs": [
        {
          "indexed": true,
          "internalType": "address",
          "name": "implementation",
          "type": "address"
        }
      ],
      "name": "Upgraded",
      "type": "event"
    },
    {
      "inputs": [],
      "name": "DIAMOND",
      "outputs": [
        {
          "internalType": "address",
          "name": "",
          "type": "address"
        }
      ],
      "stateMutability": "view",
      "type": "function"
    },
    {
      "inputs": [],
      "name": "UPGRADE_INTERFACE_VERSION",
      "outputs": [
        {
          "internalType": "string",
          "name": "",
          "type": "string"
        }
      ],
      "stateMutability": "view",
      "type": "function"
    },
    {
      "inputs": [],
      "name": "allocationReadyAtOffset",
      "outputs": [
        {
          "internalType": "uint64",
          "name": "",
          "type": "uint64"
        }
      ],
      "stateMutability": "view",
      "type": "function"
    },
    {
      "inputs": [],
      "name": "assetPrice",
      "outputs": [
        {
          "internalType": "uint256",
          "name": "",
          "type": "uint256"
        }
      ],
      "stateMutability": "view",
      "type": "function"
    },
    {
      "inputs": [],
      "name": "assetReserve",
      "outputs": [
        {
          "internalType": "uint256",
          "name": "",
          "type": "uint256"
        }
      ],
      "stateMutability": "view",
      "type": "function"
    },
    {
      "inputs": [
        {
          "internalType": "uint256[]",
          "name": "ids_",
          "type": "uint256[]"
        },
        {
          "internalType": "address",
          "name": "receiver_",
          "type": "address"
        }
      ],
      "name": "claimAllocation",
      "outputs": [
        {
          "internalType": "uint256",
          "name": "allocation",
          "type": "uint256"
        }
      ],
      "stateMutability": "nonpayable",
      "type": "function"
    },
    {
      "inputs": [
        {
          "internalType": "uint256[]",
          "name": "ids_",
          "type": "uint256[]"
        },
        {
          "internalType": "address",
          "name": "receiver_",
          "type": "address"
        }
      ],
      "name": "claimExit",
      "outputs": [
        {
          "internalType": "uint256",
          "name": "exitAmount",
          "type": "uint256"
        }
      ],
      "stateMutability": "nonpayable",
      "type": "function"
    },
    {
      "inputs": [
        {
          "components": [
            {
              "internalType": "address",
              "name": "token",
              "type": "address"
            }
          ],
          "internalType": "struct Currency",
          "name": "currency_",
          "type": "tuple"
        },
        {
          "internalType": "uint256",
          "name": "amount_",
          "type": "uint256"
        },
        {
          "internalType": "address",
          "name": "to_",
          "type": "address"
        }
      ],
      "name": "emergencyWithdrawal",
      "outputs": [],
      "stateMutability": "nonpayable",
      "type": "function"
    },
    {
      "inputs": [],
      "name": "exitReadyAtOffset",
      "outputs": [
        {
          "internalType": "uint64",
          "name": "",
          "type": "uint64"
        }
      ],
      "stateMutability": "view",
      "type": "function"
    },
    {
      "inputs": [],
      "name": "implementationVersion",
      "outputs": [
        {
          "internalType": "string",
          "name": "",
          "type": "string"
        }
      ],
      "stateMutability": "pure",
      "type": "function"
    },
    {
      "inputs": [
        {
          "internalType": "address",
          "name": "diamond_",
          "type": "address"
        },
        {
          "components": [
            {
              "internalType": "address",
              "name": "token",
              "type": "address"
            }
          ],
          "internalType": "struct Currency",
          "name": "stake_",
          "type": "tuple"
        },
        {
          "internalType": "contract IERC20Metadata",
          "name": "revenueAsset_",
          "type": "address"
        },
        {
          "internalType": "uint256",
          "name": "assetPrice_",
          "type": "uint256"
        }
      ],
      "name": "initialize",
      "outputs": [],
      "stateMutability": "nonpayable",
      "type": "function"
    },
    {
      "inputs": [],
      "name": "isIntegratedStakeStrategy",
      "outputs": [
        {
          "internalType": "bool",
          "name": "",
          "type": "bool"
        }
      ],
      "stateMutability": "pure",
      "type": "function"
    },
    {
      "inputs": [
        {
          "internalType": "uint256",
          "name": "stake_",
          "type": "uint256"
        }
      ],
      "name": "previewAllocation",
      "outputs": [
        {
          "internalType": "uint256",
          "name": "allocation",
          "type": "uint256"
        }
      ],
      "stateMutability": "view",
      "type": "function"
    },
    {
      "inputs": [
        {
          "internalType": "uint256",
          "name": "",
          "type": "uint256"
        }
      ],
      "name": "previewAllocationReadyAt",
      "outputs": [
        {
          "internalType": "uint64",
          "name": "readyAt",
          "type": "uint64"
        }
      ],
      "stateMutability": "view",
      "type": "function"
    },
    {
      "inputs": [
        {
          "internalType": "uint256",
          "name": "allocation_",
          "type": "uint256"
        }
      ],
      "name": "previewExit",
      "outputs": [
        {
          "internalType": "uint256",
          "name": "stake",
          "type": "uint256"
        }
      ],
      "stateMutability": "view",
      "type": "function"
    },
    {
      "inputs": [
        {
          "internalType": "uint256",
          "name": "",
          "type": "uint256"
        }
      ],
      "name": "previewExitReadyAt",
      "outputs": [
        {
          "internalType": "uint64",
          "name": "readyAt",
          "type": "uint64"
        }
      ],
      "stateMutability": "view",
      "type": "function"
    },
    {
      "inputs": [],
      "name": "proxiableUUID",
      "outputs": [
        {
          "internalType": "bytes32",
          "name": "",
          "type": "bytes32"
        }
      ],
      "stateMutability": "view",
      "type": "function"
    },
    {
      "inputs": [
        {
          "internalType": "uint256[]",
          "name": "ids_",
          "type": "uint256[]"
        },
        {
          "internalType": "address",
          "name": "receiver_",
          "type": "address"
        }
      ],
      "name": "refundAllocation",
      "outputs": [
        {
          "internalType": "uint256",
          "name": "refundedStake",
          "type": "uint256"
        }
      ],
      "stateMutability": "nonpayable",
      "type": "function"
    },
    {
      "inputs": [
        {
          "internalType": "uint256[]",
          "name": "ids_",
          "type": "uint256[]"
        },
        {
          "internalType": "address",
          "name": "receiver_",
          "type": "address"
        }
      ],
      "name": "refundExit",
      "outputs": [
        {
          "internalType": "uint256",
          "name": "refundedAllocation",
          "type": "uint256"
        }
      ],
      "stateMutability": "nonpayable",
      "type": "function"
    },
    {
      "inputs": [
        {
          "internalType": "uint256",
          "name": "requestId_",
          "type": "uint256"
        },
        {
          "internalType": "uint256",
          "name": "stakeAmount_",
          "type": "uint256"
        },
        {
          "internalType": "address",
          "name": "user_",
          "type": "address"
        }
      ],
      "name": "requestAllocation",
      "outputs": [
        {
          "internalType": "uint64",
          "name": "readyAt",
          "type": "uint64"
        }
      ],
      "stateMutability": "payable",
      "type": "function"
    },
    {
      "inputs": [
        {
          "internalType": "uint256",
          "name": "requestId_",
          "type": "uint256"
        },
        {
          "internalType": "uint256",
          "name": "assetAllocation_",
          "type": "uint256"
        },
        {
          "internalType": "address",
          "name": "user_",
          "type": "address"
        }
      ],
      "name": "requestExit",
      "outputs": [
        {
          "internalType": "uint64",
          "name": "readyAt",
          "type": "uint64"
        }
      ],
      "stateMutability": "nonpayable",
      "type": "function"
    },
    {
      "inputs": [
        {
          "internalType": "uint256",
          "name": "id_",
          "type": "uint256"
        }
      ],
      "name": "requestInfo",
      "outputs": [
        {
          "internalType": "address",
          "name": "user",
          "type": "address"
        },
        {
          "internalType": "bool",
          "name": "isExit",
          "type": "bool"
        },
        {
          "internalType": "uint256",
          "name": "amount",
          "type": "uint256"
        },
        {
          "internalType": "uint64",
          "name": "readyAt",
          "type": "uint64"
        },
        {
          "internalType": "bool",
          "name": "claimed",
          "type": "bool"
        },
        {
          "internalType": "bool",
          "name": "claimable",
          "type": "bool"
        }
      ],
      "stateMutability": "view",
      "type": "function"
    },
    {
      "inputs": [
        {
          "internalType": "uint256[]",
          "name": "ids_",
          "type": "uint256[]"
        }
      ],
      "name": "requestInfoBatch",
      "outputs": [
        {
          "internalType": "address[]",
          "name": "users",
          "type": "address[]"
        },
        {
          "internalType": "bool[]",
          "name": "isExits",
          "type": "bool[]"
        },
        {
          "internalType": "uint256[]",
          "name": "amounts",
          "type": "uint256[]"
        },
        {
          "internalType": "uint64[]",
          "name": "readyAts",
          "type": "uint64[]"
        },
        {
          "internalType": "bool[]",
          "name": "claimedArr",
          "type": "bool[]"
        },
        {
          "internalType": "bool[]",
          "name": "claimables",
          "type": "bool[]"
        }
      ],
      "stateMutability": "view",
      "type": "function"
    },
    {
      "inputs": [],
      "name": "revenueAsset",
      "outputs": [
        {
          "internalType": "address",
          "name": "",
          "type": "address"
        }
      ],
      "stateMutability": "view",
      "type": "function"
    },
    {
      "inputs": [
        {
          "internalType": "uint256",
          "name": "assetPrice_",
          "type": "uint256"
        }
      ],
      "name": "setAssetPrice",
      "outputs": [],
      "stateMutability": "nonpayable",
      "type": "function"
    },
    {
      "inputs": [
        {
          "internalType": "uint64",
          "name": "allocationOffset_",
          "type": "uint64"
        },
        {
          "internalType": "uint64",
          "name": "exitOffset_",
          "type": "uint64"
        }
      ],
      "name": "setReadyAtOffsets",
      "outputs": [],
      "stateMutability": "nonpayable",
      "type": "function"
    },
    {
      "inputs": [],
      "name": "stakeCurrency",
      "outputs": [
        {
          "components": [
            {
              "internalType": "address",
              "name": "token",
              "type": "address"
            }
          ],
          "internalType": "struct Currency",
          "name": "",
          "type": "tuple"
        }
      ],
      "stateMutability": "view",
      "type": "function"
    },
    {
      "inputs": [
        {
          "internalType": "uint256",
          "name": "amount_",
          "type": "uint256"
        }
      ],
      "name": "supplyRevenueAsset",
      "outputs": [],
      "stateMutability": "nonpayable",
      "type": "function"
    },
    {
      "inputs": [
        {
          "internalType": "address",
          "name": "newImplementation",
          "type": "address"
        },
        {
          "internalType": "bytes",
          "name": "data",
          "type": "bytes"
        }
      ],
      "name": "upgradeToAndCall",
      "outputs": [],
      "stateMutability": "payable",
      "type": "function"
    },
    {
      "inputs": [
        {
          "internalType": "uint256",
          "name": "amount_",
          "type": "uint256"
        }
      ],
      "name": "withdrawRevenueAsset",
      "outputs": [],
      "stateMutability": "nonpayable",
      "type": "function"
    },
    {
      "inputs": [
        {
          "internalType": "uint256",
          "name": "amount_",
          "type": "uint256"
        }
      ],
      "name": "withdrawStakeAsset",
      "outputs": [],
      "stateMutability": "nonpayable",
      "type": "function"
    },
    {
      "stateMutability": "payable",
      "type": "receive"
    }
  ],
  "bytecode": "0x60a060405230608052348015610013575f5ffd5b5061001c610021565b6100d3565b7ff0c57e16840df040f15088dc2f81fe391c3923bec73e23a9662efc9c229c6a00805468010000000000000000900460ff16156100715760405163f92ee8a960e01b815260040160405180910390fd5b80546001600160401b03908116146100d05780546001600160401b0319166001600160401b0390811782556040519081527fc7f505b2f371ae2175ee4913f4499e1f2633a7b5936321eed1cdaeb6115181d29060200160405180910390a15b50565b608051612c1c6100f95f395f8181611b2401528181611b4d0152611d3b0152612c1c5ff3fe6080604052600436106101d3575f3560e01c806366b8d779116100fd57806398895e5f11610092578063b099adb411610062578063b099adb414610615578063d24378eb14610634578063d92065f114610649578063db3c09251461066f575f5ffd5b806398895e5f14610588578063a610ae45146105a7578063ac819f80146105c6578063ad3cb1cc146105e5575f5ffd5b80637cffd22f116100cd5780637cffd22f146105065780638697b57e14610525578063882b21b4146105565780638b14bad314610575575f5ffd5b806366b8d7791461048a578063692ceca9146104a95780636b1487ae146104c85780636cd3af9c146104e7575f5ffd5b80634ea35738116101735780635a466bf7116101435780635a466bf7146104005780635b587dc1146104155780635b64be4b1461044c5780635c96992f1461046b575f5ffd5b80634ea35738146103575780634f1ef286146103765780634f588bf11461038957806352d1902d146103ec575f5ffd5b8063190cfb0c116101ae578063190cfb0c146102a6578063206545c2146102e3578063241634ae146103195780632eed8b9514610338575f5ffd5b80630404d1821461021357806306bfcec61461024557806311cc17af14610285575f5ffd5b3661020f5760405134815233907f88a5966d370b9919b20f3e2c13ff65706f196a4e32cc2c12bf57088f885258749060200160405180910390a2005b5f5ffd5b34801561021e575f5ffd5b5061023261022d366004612668565b610689565b6040519081526020015b60405180910390f35b348015610250575f5ffd5b5060408051808201909152600f81526e049537472617465677920312e312e3608c1b60208201525b60405161023c91906126ba565b348015610290575f5ffd5b506102a461029f36600461277e565b61079f565b005b3480156102b1575f5ffd5b5060408051602080820183525f909152815180820183526034546001600160a01b03169081905291519182520161023c565b3480156102ee575f5ffd5b505f54610301906001600160a01b031681565b6040516001600160a01b03909116815260200161023c565b348015610324575f5ffd5b506102326103333660046127b1565b6108c1565b348015610343575f5ffd5b506102a46103523660046127b1565b6108d1565b348015610362575f5ffd5b50610232610371366004612668565b6109a4565b6102a46103843660046127c8565b610a9f565b348015610394575f5ffd5b506103a86103a33660046127b1565b610abe565b604080516001600160a01b0390971687529415156020870152938501929092526001600160401b0316606084015215156080830152151560a082015260c00161023c565b3480156103f7575f5ffd5b50610232610bb2565b34801561040b575f5ffd5b5061023260375481565b348015610420575f5ffd5b5061043461042f3660046127b1565b610bcd565b6040516001600160401b03909116815260200161023c565b348015610457575f5ffd5b506102a46104663660046127b1565b610bfe565b348015610476575f5ffd5b50610232610485366004612668565b610ce9565b348015610495575f5ffd5b50603554610301906001600160a01b031681565b3480156104b4575f5ffd5b506102a46104c3366004612883565b610dd4565b3480156104d3575f5ffd5b506102326104e2366004612668565b610ecd565b3480156104f2575f5ffd5b506104346105013660046128b4565b610fac565b348015610511575f5ffd5b506102326105203660046127b1565b61110b565b348015610530575f5ffd5b5061054461053f3660046128df565b611130565b60405161023c969594939291906129c2565b348015610561575f5ffd5b506102a46105703660046127b1565b6114d0565b6104346105833660046128b4565b6115c5565b348015610593575f5ffd5b50603854610434906001600160401b031681565b3480156105b2575f5ffd5b506104346105c13660046127b1565b61167b565b3480156105d1575f5ffd5b506102a46105e03660046127b1565b6116ba565b3480156105f0575f5ffd5b50610278604051806040016040528060058152602001640352e302e360dc1b81525081565b348015610620575f5ffd5b506102a461062f366004612a76565b61180a565b34801561063f575f5ffd5b5061023260365481565b348015610654575f5ffd5b5060385461043490600160401b90046001600160401b031681565b34801561067a575f5ffd5b506040515f815260200161023c565b5f80546001600160a01b031633146106b45760405163a34ad82d60e01b815260040160405180910390fd5b600183146106d55760405163444bc55560e11b815260040160405180910390fd5b5f84845f8181106106e8576106e8612ac3565b9050602002013590505f6106fd826001611953565b9050610708826119b7565b61071581606001516108c1565b92508260375f8282546107289190612aeb565b909155505060408051602081019091526034546001600160a01b031681526107519085856119d7565b604080516001600160a01b03861681526020810185905283917f775c5d0ff18b9a78180de7c883eb3a43c89675fbb00ec6a999367d6229aec42091015b60405180910390a250509392505050565b5f5460405163282f8ac560e11b81523360048201526001600160a01b039091169063505f158a90602401602060405180830381865afa1580156107e4573d5f5f3e3d5ffd5b505050506040513d601f19601f820116820180604052508101906108089190612afe565b610825576040516308e8994960e11b815260040160405180910390fd5b6001600160a01b03811661084c5760405163d92e233d60e01b815260040160405180910390fd5b5f821161086c57604051631f2a200560e01b815260040160405180910390fd5b6108778382846119d7565b82516040518381526001600160a01b0380841692169033907f1fcefb8a55f55890575d7a3972108526a056231e1fb145f645053b4b2f7d973e9060200160405180910390a4505050565b5f6108cb82611a98565b92915050565b5f5460405163282f8ac560e11b81523360048201526001600160a01b039091169063505f158a90602401602060405180830381865afa158015610916573d5f5f3e3d5ffd5b505050506040513d601f19601f8201168201806040525081019061093a9190612afe565b610957576040516308e8994960e11b815260040160405180910390fd5b60368190556035546040518281526001600160a01b039091169033907ffa39106d92827c4e21902548f9ed84c2337fb83a04c99dc92c5705f2e3208596906020015b60405180910390a350565b5f80546001600160a01b031633146109cf5760405163a34ad82d60e01b815260040160405180910390fd5b600183146109f05760405163444bc55560e11b815260040160405180910390fd5b5f84845f818110610a0357610a03612ac3565b9050602002013590505f610a17825f611953565b9050610a22826119b7565b610a2f816060015161110b565b92508260375f828254610a429190612b1d565b9091555050603554610a5e906001600160a01b03168585611aba565b604080516001600160a01b03861681526020810185905283917fee89b274de26d8ff2f7a29873f93a4aeb474c4aba006584d53c8a39e71f41d2a910161078e565b610aa7611b19565b610ab082611bbf565b610aba8282611c6f565b5050565b5f818152600160208181526040808420815160a0810190925280546001600160a01b03811683528594859485948594859485949293919291840191600160a01b90910460ff1690811115610b1457610b14612b30565b6001811115610b2557610b25612b30565b81528154600160a81b900460ff161515602082015260018083015460408301526002909201546001600160401b03166060909101528151985090915081602001516001811115610b7757610b77612b30565b14955080606001519450806080015193508060400151925082158015610ba65750836001600160401b03164210155b91505091939550919395565b5f610bbb611d30565b505f516020612bc75f395f51905f5290565b6038545f906001600160401b03168103610be857505f919050565b6038546108cb906001600160401b031642612b44565b5f5460405163282f8ac560e11b81523360048201526001600160a01b039091169063505f158a90602401602060405180830381865afa158015610c43573d5f5f3e3d5ffd5b505050506040513d601f19601f82011682018060405250810190610c679190612afe565b610c84576040516308e8994960e11b815260040160405180910390fd5b60408051602081019091526034546001600160a01b03168152610ca89033836119d7565b6034546040518281526001600160a01b039091169033907f11643319fd9ed0ae20b0070e920a6acedccbbcb4bb527f1f2da66475bcd1775690602001610999565b5f80546001600160a01b03163314610d145760405163a34ad82d60e01b815260040160405180910390fd5b60018314610d355760405163444bc55560e11b815260040160405180910390fd5b5f84845f818110610d4857610d48612ac3565b9050602002013590505f610d5c825f611953565b9050610d67826119b7565b606081015160408051602081019091526034546001600160a01b03168152909350610d939085856119d7565b604080516001600160a01b03861681526020810185905283917f63799f02048bfaad43d1a9154a2abfcbaa50043f453eb1f33fe774954a1dfbad910161078e565b5f5460405163282f8ac560e11b81523360048201526001600160a01b039091169063505f158a90602401602060405180830381865afa158015610e19573d5f5f3e3d5ffd5b505050506040513d601f19601f82011682018060405250810190610e3d9190612afe565b610e5a576040516308e8994960e11b815260040160405180910390fd5b603880546001600160401b038481166fffffffffffffffffffffffffffffffff199092168217600160401b918516918202179092556040805191825260208201929092527fbf8fbf9777ee54844a099118d5d23c4af2848655f8bc9352c9b71f44706df297910160405180910390a15050565b5f80546001600160a01b03163314610ef85760405163a34ad82d60e01b815260040160405180910390fd5b60018314610f195760405163444bc55560e11b815260040160405180910390fd5b5f84845f818110610f2c57610f2c612ac3565b9050602002013590505f610f41826001611953565b9050610f4c826119b7565b6060810151603554909350610f6b906001600160a01b03168585611aba565b604080516001600160a01b03861681526020810185905283917f947299f0fc661e1213700b3b05b4e3ba8637f4f6cc1fc3d99ab78df2e7a7cafd910161078e565b5f80546001600160a01b03163314610fd75760405163a34ad82d60e01b815260040160405180910390fd5b610fe083611a98565b60408051602081019091526034546001600160a01b031681526110039030611d79565b1015611022576040516338d90e0560e21b815260040160405180910390fd5b61102b8361167b565b905061103984838584611e14565b6035545f546040516323b872dd60e01b81526001600160a01b039182166004820152306024820152604481018690529116906323b872dd906064016020604051808303815f875af1158015611090573d5f5f3e3d5ffd5b505050506040513d601f19601f820116820180604052508101906110b49190612afe565b50604080518481526001600160401b03831660208201526001600160a01b0384169186917f5e52dbcef55b31a0328228c5c73cab3f6344ac1be07abea07fea63d459020ef991015b60405180910390a39392505050565b5f61111582611f8e565b90508161112182611a98565b101561112b576001015b919050565b6060808080808086806001600160401b03811115611150576111506126ef565b604051908082528060200260200182016040528015611179578160200160208202803683370190505b509650806001600160401b03811115611194576111946126ef565b6040519080825280602002602001820160405280156111bd578160200160208202803683370190505b509550806001600160401b038111156111d8576111d86126ef565b604051908082528060200260200182016040528015611201578160200160208202803683370190505b509450806001600160401b0381111561121c5761121c6126ef565b604051908082528060200260200182016040528015611245578160200160208202803683370190505b509350806001600160401b03811115611260576112606126ef565b604051908082528060200260200182016040528015611289578160200160208202803683370190505b509250806001600160401b038111156112a4576112a46126ef565b6040519080825280602002602001820160405280156112cd578160200160208202803683370190505b5091505f5b818110156114c4575f60015f8c8c858181106112f0576112f0612ac3565b602090810292909201358352508181019290925260409081015f20815160a0810190925280546001600160a01b03811683529192909190830190600160a01b900460ff16600181111561134557611345612b30565b600181111561135657611356612b30565b81528154600160a81b900460ff1615156020820152600182015460408201526002909101546001600160401b031660609091015280518a51919250908a90849081106113a4576113a4612ac3565b6001600160a01b03909216602092830291909101909101526001816020015160018111156113d4576113d4612b30565b148883815181106113e7576113e7612ac3565b602002602001019015159081151581525050806060015187838151811061141057611410612ac3565b602002602001018181525050806080015186838151811061143357611433612ac3565b60200260200101906001600160401b031690816001600160401b031681525050806040015185838151811061146a5761146a612ac3565b911515602092830291909101909101526040810151158015611499575080608001516001600160401b03164210155b8483815181106114ab576114ab612ac3565b91151560209283029190910190910152506001016112d2565b50509295509295509295565b5f5460405163282f8ac560e11b81523360048201526001600160a01b039091169063505f158a90602401602060405180830381865afa158015611515573d5f5f3e3d5ffd5b505050506040513d601f19601f820116820180604052508101906115399190612afe565b611556576040516308e8994960e11b815260040160405180910390fd5b8060375f8282546115679190612aeb565b9091555050603554611584906001600160a01b0316333084611fa5565b6035546040518281526001600160a01b039091169033907f086aa0a786c3fbac092998f38ecd457fce567fac19127ebea2f68cb6a8f42f4490602001610999565b5f80546001600160a01b031633146115f05760405163a34ad82d60e01b815260040160405180910390fd5b5f5460408051602081019091526034546001600160a01b03908116825261161992163086611fde565b61162283610bcd565b905061163084838584612132565b604080518481526001600160401b03831660208201526001600160a01b0384169186917f0e546c36aff23c2100bc146420b6177b086e0118af51441502f5269c8fde4d0b91016110fc565b6038545f90600160401b90046001600160401b0316810361169d57505f919050565b6038546108cb90600160401b90046001600160401b031642612b44565b5f5460405163282f8ac560e11b81523360048201526001600160a01b039091169063505f158a90602401602060405180830381865afa1580156116ff573d5f5f3e3d5ffd5b505050506040513d601f19601f820116820180604052508101906117239190612afe565b611740576040516308e8994960e11b815260040160405180910390fd5b8060375f8282546117519190612b1d565b909155505060355460405163a9059cbb60e01b8152336004820152602481018390526001600160a01b039091169063a9059cbb906044016020604051808303815f875af11580156117a4573d5f5f3e3d5ffd5b505050506040513d601f19601f820116820180604052508101906117c89190612afe565b506035546040518281526001600160a01b039091169033907f31f3ee86d076c21fa216e9b31c682e7e7df0514ab3f1852bac039aa4dc9baec990602001610999565b7ff0c57e16840df040f15088dc2f81fe391c3923bec73e23a9662efc9c229c6a008054600160401b810460ff1615906001600160401b03165f8115801561184e5750825b90505f826001600160401b031660011480156118695750303b155b905081158015611877575080155b156118955760405163f92ee8a960e01b815260040160405180910390fd5b845467ffffffffffffffff1916600117855583156118bf57845460ff60401b1916600160401b1785555b6118c8896121d5565b8751603480546001600160a01b03199081166001600160a01b03938416179091556035805490911691891691909117905560368690555f603755831561194857845460ff60401b19168555604051600181527fc7f505b2f371ae2175ee4913f4499e1f2633a7b5936321eed1cdaeb6115181d29060200160405180910390a15b505050505050505050565b6040805160a0810182525f80825260208201819052918101829052606081018290526080810191909152611987838361222d565b905080608001516001600160401b03164210156108cb57604051634a44555360e11b815260040160405180910390fd5b5f908152600160205260409020805460ff60a81b1916600160a81b179055565b82516001600160a01b0316611a7d5780471015611a0757604051631e9acf1760e31b815260040160405180910390fd5b5f826001600160a01b0316826040515f6040518083038185875af1925050503d805f8114611a50576040519150601f19603f3d011682016040523d82523d5f602084013e611a55565b606091505b5050905080611a77576040516312171d8360e31b815260040160405180910390fd5b50505050565b8251611a93906001600160a01b03168383611aba565b505050565b5f670de0b6b3a764000060365483611ab09190612b63565b6108cb9190612b7a565b6040516001600160a01b03838116602483015260448201839052611a9391859182169063a9059cbb906064015b604051602081830303815290604052915060e01b6020820180516001600160e01b03838183161783525050505061237f565b306001600160a01b037f0000000000000000000000000000000000000000000000000000000000000000161480611b9f57507f00000000000000000000000000000000000000000000000000000000000000006001600160a01b0316611b935f516020612bc75f395f51905f52546001600160a01b031690565b6001600160a01b031614155b15611bbd5760405163703e46dd60e11b815260040160405180910390fd5b565b5f54604051633f4916d360e21b81523360048201526001600160a01b039091169063fd245b4c90602401602060405180830381865afa158015611c04573d5f5f3e3d5ffd5b505050506040513d601f19601f82011682018060405250810190611c289190612afe565b611c4557604051630f56143960e31b815260040160405180910390fd5b6001600160a01b038116611c6c5760405163d92e233d60e01b815260040160405180910390fd5b50565b816001600160a01b03166352d1902d6040518163ffffffff1660e01b8152600401602060405180830381865afa925050508015611cc9575060408051601f3d908101601f19168201909252611cc691810190612b99565b60015b611cf657604051634c9c8ce360e01b81526001600160a01b03831660048201526024015b60405180910390fd5b5f516020612bc75f395f51905f528114611d2657604051632a87526960e21b815260048101829052602401611ced565b611a9383836123eb565b306001600160a01b037f00000000000000000000000000000000000000000000000000000000000000001614611bbd5760405163703e46dd60e11b815260040160405180910390fd5b5f611d8c83516001600160a01b03161590565b15611da257506001600160a01b038116316108cb565b82516040516370a0823160e01b81526001600160a01b038481166004830152909116906370a0823190602401602060405180830381865afa158015611de9573d5f5f3e3d5ffd5b505050506040513d601f19601f82011682018060405250810190611e0d9190612b99565b90506108cb565b5f8211611e3457604051631f2a200560e01b815260040160405180910390fd5b6001600160a01b038316611e5b5760405163e0830f6b60e01b815260040160405180910390fd5b5f8481526001602052604090205484906001600160a01b031615611e95576040516355347b4f60e11b8152600401611ced91815260200190565b506040805160a081019091526001600160a01b03841681526020810160015b81525f602080830182905260408084018790526001600160401b038616606090940193909352878252600180825292909120835181546001600160a01b039091166001600160a01b0319821681178355928501519193919284926001600160a81b03199092161790600160a01b908490811115611f3357611f33612b30565b02179055506040820151815460ff60a81b1916600160a81b91151591909102178155606082015160018201556080909101516002909101805467ffffffffffffffff19166001600160401b0390921691909117905550505050565b6036545f90611ab0670de0b6b3a764000084612b63565b6040516001600160a01b038481166024830152838116604483015260648201839052611a779186918216906323b872dd90608401611ae7565b83516001600160a01b031661211b578034101561200e5760405163044044a560e21b815260040160405180910390fd5b6001600160a01b0382163014612090575f826001600160a01b0316826040515f6040518083038185875af1925050503d805f8114612067576040519150601f19603f3d011682016040523d82523d5f602084013e61206c565b606091505b505090508061208e576040516312171d8360e31b815260040160405180910390fd5b505b5f61209b8234612b1d565b90508015612115575f846001600160a01b0316826040515f6040518083038185875af1925050503d805f81146120ec576040519150601f19603f3d011682016040523d82523d5f602084013e6120f1565b606091505b505090508061211357604051633c31275160e21b815260040160405180910390fd5b505b50611a77565b8351611a77906001600160a01b0316848484611fa5565b5f821161215257604051631f2a200560e01b815260040160405180910390fd5b6001600160a01b0383166121795760405163e0830f6b60e01b815260040160405180910390fd5b5f8481526001602052604090205484906001600160a01b0316156121b3576040516355347b4f60e11b8152600401611ced91815260200190565b506040805160a081019091526001600160a01b0384168152602081015f611eb4565b6121dd612440565b6121e5612489565b6001600160a01b03811661220c5760405163d92e233d60e01b815260040160405180910390fd5b5f80546001600160a01b0319166001600160a01b0392909216919091179055565b6040805160a0810182525f808252602082018190529181018290526060810182905260808101919091525f83815260016020818152604092839020835160a0810190945280546001600160a01b0381168552909291840191600160a01b90910460ff16908111156122a0576122a0612b30565b60018111156122b1576122b1612b30565b81528154600160a81b900460ff1615156020820152600182015460408201526002909101546001600160401b0316606090910152805190915083906001600160a01b031661231557604051634ec726c760e01b8152600401611ced91815260200190565b5080604001511561233957604051630c8d9eab60e31b815260040160405180910390fd5b81600181111561234b5761234b612b30565b8160200151600181111561236157612361612b30565b146108cb576040516335a08a0760e01b815260040160405180910390fd5b5f5f60205f8451602086015f885af18061239e576040513d5f823e3d81fd5b50505f513d915081156123b55780600114156123c2565b6001600160a01b0384163b155b15611a7757604051635274afe760e01b81526001600160a01b0385166004820152602401611ced565b6123f482612491565b6040516001600160a01b038316907fbc7cd75a20ee27fd9adebab32041f755214dbc6bffa90cc0225b39da2e5c2d3b905f90a280511561243857611a9382826124f4565b610aba612566565b7ff0c57e16840df040f15088dc2f81fe391c3923bec73e23a9662efc9c229c6a0054600160401b900460ff16611bbd57604051631afcd79f60e31b815260040160405180910390fd5b611bbd612440565b806001600160a01b03163b5f036124c657604051634c9c8ce360e01b81526001600160a01b0382166004820152602401611ced565b5f516020612bc75f395f51905f5280546001600160a01b0319166001600160a01b0392909216919091179055565b60605f5f846001600160a01b0316846040516125109190612bb0565b5f60405180830381855af49150503d805f8114612548576040519150601f19603f3d011682016040523d82523d5f602084013e61254d565b606091505b509150915061255d858383612585565b95945050505050565b3415611bbd5760405163b398979f60e01b815260040160405180910390fd5b60608261259a57612595826125e4565b6125dd565b81511580156125b157506001600160a01b0384163b155b156125da57604051639996b31560e01b81526001600160a01b0385166004820152602401611ced565b50805b9392505050565b8051156125f45780518082602001fd5b60405163d6bda27560e01b815260040160405180910390fd5b5f5f83601f84011261261d575f5ffd5b5081356001600160401b03811115612633575f5ffd5b6020830191508360208260051b850101111561264d575f5ffd5b9250929050565b6001600160a01b0381168114611c6c575f5ffd5b5f5f5f6040848603121561267a575f5ffd5b83356001600160401b0381111561268f575f5ffd5b61269b8682870161260d565b90945092505060208401356126af81612654565b809150509250925092565b602081525f82518060208401528060208501604085015e5f604082850101526040601f19601f83011684010191505092915050565b634e487b7160e01b5f52604160045260245ffd5b604051601f8201601f191681016001600160401b038111828210171561272b5761272b6126ef565b604052919050565b5f60208284031215612743575f5ffd5b604051602081016001600160401b0381118282101715612765576127656126ef565b604052905080823561277681612654565b905292915050565b5f5f5f60608486031215612790575f5ffd5b61279a8585612733565b92506020840135915060408401356126af81612654565b5f602082840312156127c1575f5ffd5b5035919050565b5f5f604083850312156127d9575f5ffd5b82356127e481612654565b915060208301356001600160401b038111156127fe575f5ffd5b8301601f8101851361280e575f5ffd5b80356001600160401b03811115612827576128276126ef565b61283a601f8201601f1916602001612703565b81815286602083850101111561284e575f5ffd5b816020840160208301375f602083830101528093505050509250929050565b80356001600160401b038116811461112b575f5ffd5b5f5f60408385031215612894575f5ffd5b61289d8361286d565b91506128ab6020840161286d565b90509250929050565b5f5f5f606084860312156128c6575f5ffd5b833592506020840135915060408401356126af81612654565b5f5f602083850312156128f0575f5ffd5b82356001600160401b03811115612905575f5ffd5b6129118582860161260d565b90969095509350505050565b5f8151808452602084019350602083015f5b8281101561294f578151151586526020958601959091019060010161292f565b5093949350505050565b5f8151808452602084019350602083015f5b8281101561294f57815186526020958601959091019060010161296b565b5f8151808452602084019350602083015f5b8281101561294f5781516001600160401b031686526020958601959091019060010161299b565b60c080825287519082018190525f90602089019060e0840190835b81811015612a045783516001600160a01b03168352602093840193909201916001016129dd565b50508381036020850152612a18818a61291d565b9150508281036040840152612a2d8188612959565b90508281036060840152612a418187612989565b90508281036080840152612a55818661291d565b905082810360a0840152612a69818561291d565b9998505050505050505050565b5f5f5f5f60808587031215612a89575f5ffd5b8435612a9481612654565b9350612aa38660208701612733565b92506040850135612ab381612654565b9396929550929360600135925050565b634e487b7160e01b5f52603260045260245ffd5b634e487b7160e01b5f52601160045260245ffd5b808201808211156108cb576108cb612ad7565b5f60208284031215612b0e575f5ffd5b815180151581146125dd575f5ffd5b818103818111156108cb576108cb612ad7565b634e487b7160e01b5f52602160045260245ffd5b6001600160401b0381811683821601908111156108cb576108cb612ad7565b80820281158282048414176108cb576108cb612ad7565b5f82612b9457634e487b7160e01b5f52601260045260245ffd5b500490565b5f60208284031215612ba9575f5ffd5b5051919050565b5f82518060208501845e5f92019182525091905056fe360894a13ba1a3210667c828492db98dca3e2076cc3735a920a3ca505d382bbca26469706673582212206a048a3254551c72c1a44903255f8ff7711176e00d8d96c20e96b9075e24aca064736f6c634300081b0033",
  "linkReferences": {},
  "deployedLinkReferences": {}
}