{
  "_format": "hh-sol-artifact-1",
  "contractName": "TrustedRelayerIsm",
  "sourceName": "contracts/external/hyperlane/isms/TrustedRelayerIsm.sol",
  "abi": [
    {
      "inputs": [
        {
          "internalType": "address",
          "name": "_mailbox",
          "type": "address"
        },
        {
          "internalType": "address",
          "name": "_trustedRelayer",
          "type": "address"
        }
      ],
      "stateMutability": "nonpayable",
      "type": "constructor"
    },
    {
      "inputs": [],
      "name": "PACKAGE_VERSION",
      "outputs": [
        {
          "internalType": "string",
          "name": "",
          "type": "string"
        }
      ],
      "stateMutability": "view",
      "type": "function"
    },
    {
      "inputs": [],
      "name": "mailbox",
      "outputs": [
        {
          "internalType": "contract Mailbox",
          "name": "",
          "type": "address"
        }
      ],
      "stateMutability": "view",
      "type": "function"
    },
    {
      "inputs": [],
      "name": "moduleType",
      "outputs": [
        {
          "internalType": "uint8",
          "name": "",
          "type": "uint8"
        }
      ],
      "stateMutability": "view",
      "type": "function"
    },
    {
      "inputs": [],
      "name": "trustedRelayer",
      "outputs": [
        {
          "internalType": "address",
          "name": "",
          "type": "address"
        }
      ],
      "stateMutability": "view",
      "type": "function"
    },
    {
      "inputs": [
        {
          "internalType": "bytes",
          "name": "",
          "type": "bytes"
        },
        {
          "internalType": "bytes",
          "name": "message",
          "type": "bytes"
        }
      ],
      "name": "verify",
      "outputs": [
        {
          "internalType": "bool",
          "name": "",
          "type": "bool"
        }
      ],
      "stateMutability": "view",
      "type": "function"
    }
  ],
  "bytecode": "0x60e06040526006608052348015610014575f5ffd5b506040516105423803806105428339810160408190526100339161012d565b6001600160a01b0381166100995760405162461bcd60e51b815260206004820152602260248201527f5472757374656452656c6179657249736d3a20696e76616c69642072656c617960448201526132b960f11b60648201526084015b60405180910390fd5b6001600160a01b0382163b6100fb5760405162461bcd60e51b815260206004820152602260248201527f5472757374656452656c6179657249736d3a20696e76616c6964206d61696c626044820152610def60f31b6064820152608401610090565b6001600160a01b0391821660a0521660c05261015e565b80516001600160a01b0381168114610128575f5ffd5b919050565b5f5f6040838503121561013e575f5ffd5b61014783610112565b915061015560208401610112565b90509250929050565b60805160a05160c0516103ae6101945f395f8181609c015261015501525f818161010d015261017f01525f605e01526103ae5ff3fe608060405234801561000f575f5ffd5b5060043610610055575f3560e01c80636465e69f146100595780638596c2261461009757806393c44847146100d6578063d5438eae14610108578063f7e83aee1461012f575b5f5ffd5b6100807f000000000000000000000000000000000000000000000000000000000000000081565b60405160ff90911681526020015b60405180910390f35b6100be7f000000000000000000000000000000000000000000000000000000000000000081565b6040516001600160a01b03909116815260200161008e565b6100fb6040518060400160405280600681526020016531302e302e3360d01b81525081565b60405161008e9190610265565b6100be7f000000000000000000000000000000000000000000000000000000000000000081565b61014261013d3660046102df565b610152565b604051901515815260200161008e565b5f7f00000000000000000000000000000000000000000000000000000000000000006001600160a01b03167f00000000000000000000000000000000000000000000000000000000000000006001600160a01b0316635d1fe5a96101ea86868080601f0160208091040260200160405190810160405280939291908181526020018383808284375f9201919091525061025a92505050565b6040518263ffffffff1660e01b815260040161020891815260200190565b602060405180830381865afa158015610223573d5f5f3e3d5ffd5b505050506040513d601f19601f82011682018060405250810190610247919061034b565b6001600160a01b03161495945050505050565b805160209091012090565b602081525f82518060208401528060208501604085015e5f604082850101526040601f19601f83011684010191505092915050565b5f5f83601f8401126102aa575f5ffd5b50813567ffffffffffffffff8111156102c1575f5ffd5b6020830191508360208285010111156102d8575f5ffd5b9250929050565b5f5f5f5f604085870312156102f2575f5ffd5b843567ffffffffffffffff811115610308575f5ffd5b6103148782880161029a565b909550935050602085013567ffffffffffffffff811115610333575f5ffd5b61033f8782880161029a565b95989497509550505050565b5f6020828403121561035b575f5ffd5b81516001600160a01b0381168114610371575f5ffd5b939250505056fea264697066735822122080f76b878abf337680d4be0a2e9aed16cb7d39d78ce1f5b8b933fd4584c09b4d64736f6c634300081b0033",
  "linkReferences": {},
  "deployedLinkReferences": {}
}